:020000040800F2
:1000000060040020A101000825090008210900085A
:1000100023090008050700089919000800000000DE
:100020000000000000000000000000006D0F00084C
:100030000707000800000000770E0008D91000082C
:10004000BB010008BB010008BB010008BB010008A0
:10005000BB010008BB010008BB010008BB01000890
:10006000BB010008BB010008BB010008BB01000880
:10007000BB010008BB010008BB010008BB01000870
:10008000BB010008BB010008BB010008BB01000860
:10009000BB010008BB010008BB010008BB01000850
:1000A000BB010008BB010008BB010008BB01000840
:1000B000BB010008BB010008BB010008BB01000830
:1000C000BB010008BB010008BB010008BB01000820
:1000D000BB010008ED170008BB010008BB010008C8
:1000E000BB010008BB010008BB010008BB01000800
:1000F000BB010008BB010008BB010008BB010008F0
:10010000BB010008BB010008BB010008BB010008DF
:10011000BB010008BB010008BB0100081112000868
:10012000BB010008BB010008BB010008BB010008BF
:10013000BB010008BB010008BB010008BB010008AF
:10014000BB010008BB010008BB010008BB0100089F
:10015000BB010008BB010008BB010008BB0100088F
:10016000BB010008BB010008BB010008BB0100087F
:10017000BB010008BB010008BB010008BB0100086F
:10018000BB010008BB010008DFF810D000F0A8FA9E
:1001900000480047E9220008AFF300806004002017
:1001A0000648804706480047FEE7FEE7FEE7FEE711
:1001B000FEE7FEE7FEE7FEE7FEE7FEE7E9100008E0
:1001C000890100082DE9FE4F804681EA0300C00F37
:1001D0000C46009021F0004123F00045B8EB0200EE
:1001E000A94105D24046214690461C460B46024690
:1001F00023F00040104347D0270DC7F30A00C3F394
:100200000A510290401A019040286BDAC3F31300A0
:1002100040F4801B0098924620B10023D2EB030AE1
:1002200063EB0B0B01985946C0F14002504600F0B9
:1002300029F906460D4650465946019A00F041F903
:1002400010EB08006141002487EA115284EAE77349
:100250001A4340D0009A62B3019A012A4FEA07522A
:1002600015DC001B61EB02014FF0004202EA07526D
:10027000CDE90042001C41F5801132462B4600F0CA
:1002800041F903B0BDE8F08F40462146F9E7001B75
:1002900061EB0201001C41F5801300185B4120183E
:1002A000A2F5001747EB030140EAD570B6196D417E
:1002B00011E06D084FEA360645EAC0754FEA07526D
:1002C000001B61EB0201001C41F5801149084FEA57
:1002D00030000019514132462B4603B0BDE8F04FC3
:1002E00000F001B90098012240000023D0EB020287
:1002F00063EBE073009821464FEAE074B8EB00002E
:1003000061EB0401E9E783F000435BE781F0004122
:1003100058E72DE9FE4F81EA030404F0004421F080
:10032000004100944FF0000B23F0004350EA010419
:100330005ED052EA03045BD0C3F30A54C1F30A55FA
:100340002C44A4F2F3340194A0FB0254C1F3130132
:1003500041F48011C3F3130343F4801301FB0244FF
:1003600000FB034E840A970A44EA815447EA835704
:10037000A4FB076802958D0A05FB07854FEA932CBD
:1003800004FB0C542705029D4FEA065847EA16372E
:10039000B5EB08056EEB070C870E920E47EA811746
:1003A00042EA8312A7FB0201B6EB0B0164EB0004E7
:1003B0002B0D43EA0C335E1844EB1C50DA465146D1
:1003C000E7FB0201C5F313044FEA0B3343EA14536E
:1003D0004FEA0432019C43EA0603A4F10C040294A0
:1003E000009CCDE900B400F08DF803B0BDE8F08FBB
:1003F00000200146F9E730B50B46014600202022D7
:10040000012409E021FA02F59D4205D303FA02F521
:10041000491B04FA02F52844151EA2F10102F1DC81
:1004200030BD2DE9F05F0546002092469B46884688
:100430000646814640241BE0284641464746224660
:1004400000F02FF853465A46C01A914110D3114676
:100450001846224600F016F82D1A67EB01084F46A1
:1004600022460120002100F00DF817EB00094E4153
:10047000201EA4F10104DFDC484631462A464346EB
:10048000BDE8F09F202A04DB203A00FA02F10020A8
:1004900070479140C2F1200320FA03F319439040C2
:1004A0007047202A04DB203A21FA02F0002170472D
:1004B00021FA02F3D040C2F12002914008431946CC
:1004C0007047202A06DBCB17203A41FA02F043EAB4
:1004D000E07306E041FA02F3D040C2F120029140FD
:1004E00008431946704710B5141E73F1000408DA6A
:1004F000401C41F1000192185B411A4301D120F0E8
:10050000010010BD2DE9F04D92469B4611B1B1FAA4
:1005100081F202E0B0FA80F220329046FFF7B2FF9B
:1005200004460F4640EA0A0041EA0B0153465A4688
:10053000084313D0114653EA010019D0C8F1400214
:100540005046FFF7AEFF05460E4650465946424616
:10055000FFF798FF084305D0012004E02046394604
:10056000BDE8F08D0020054346EAE0762C43374392
:100570000A986305E40AA0EB08000022FD0A44EA99
:1005800047540A3002D500200146E9E70105101959
:100590006941DDE9084500196941BDE8F04DA2E770
:1005A0002DE9F04D81EA030404F0004B21F00045F1
:1005B00014464FF0000A23F0004150EA050220D013
:1005C00054EA01021DD0C5F30A570246C5F31303CE
:1005D000C1F31300C1F30A5640F4801543F48013AD
:1005E000A7EB0608101BD64608F2FD3873EB050092
:1005F00002D308F1010801E092185B41B8F1000F45
:1006000003DA00200146BDE8F08D00204FF4801190
:10061000064684460EE0171B73EB050705D3121B35
:1006200063EB050306434CEA010C49084FEA30002E
:1006300092185B4150EA0107EDD152EA030012D053
:1006400082EA040083EA0501084305D0101BAB4190
:1006500006D20122002306E000224FF0004302E010
:100660006FF0010253101AEB06004CEB085110EB2F
:100670000A0041EB0B01BDE8F04DFFF734BFC1F3B9
:100680000A52C1F3130140F2FF3341F480119A4240
:1006900002DA00200146704740F233439A42A2F248
:1006A000334202DC5242FFF7FCBEFFF7EBBE000014
:1006B00030B5041E71F1000404DB4FF000444042E9
:1006C00064EB0101141E73F1000405DB1C464FF0BE
:1006D0000043524263EB0403994208BF904230BD8D
:1006E000064C074D06E0E06840F0010394E807007F
:1006F00098471034AC42F6D3FFF74AFD802B000830
:10070000A02B0008FEE7704700B502464FF47A734D
:1007100002E0184600F004F8521E501CF9D100BD4A
:1007200000EBC000C1004FF0E02041610021816179
:10073000052101610169C903FCD5042101617047EC
:1007400030B589B00121042000F0A4FB0121022072
:1007500000F092FBC020079002208DF820000320BB
:100760008DF8210000248DF823408DF82240204D83
:1007700007A9284600F04EF802220621284600F07C
:1007800087F802220721284600F082F84FF6FE7013
:100790000590ADF81040ADF81240ADF818408DF856
:1007A0001A40144D04A9284600F020FF01A800F0CB
:1007B000D3FDADF804400F24ADF80C4001A9284644
:1007C00000F099FD0421ADF80410ADF80C4001A92A
:1007D000284600F090FD00231A460321284600F029
:1007E00063FD0121284600F053FD09B030BD000033
:1007F000000402400008004070B5054D284600F096
:100800006CFD04B20021284600F0C6FE204670BDF3
:10081000000800402DE9F041002201274FF0030CB1
:1008200007FA02F50B682B40AB422CD10668530047
:100830000CFA03F4A64306600E79D0F800809E40BF
:1008400046EA080606600E79012E01D0022E12D16A
:100850008668A64386604E79D0F808809E4046EAB6
:10086000080686604668AE43466045688E799640C5
:10087000B6B235434560C568A543C560CC799C4098
:10088000C3681C43C460521C102AC9D3BDE8F08160
:1008900010B54B07DB0E9A40C90800EB8100016AD6
:1008A0000F249C40A1430162016A1143016210BD03
:1008B0004183704701837047002A01D0018370474C
:1008C000418370477CB50121402000F0D5FA012416
:1008D0008DF8044000268DF80660200200908DF807
:1008E000074002258DF8055069460B48FFF792FF37
:1008F0000121202000F0C0FA8DF804408DF8066038
:1009000040F2FF1000908DF807408DF805506946C1
:100910000248FFF77FFF7CBD001802400014024030
:10092000FEE7FEE77047000030B50F23C2780125CF
:100930000178002A1FD0154A126802F4E062C2F55D
:10094000E062C2F30722C2F10404D3404278A2401D
:1009500084781C401443220101F1E02181F8002435
:10096000007800F01F018D404009800000F1E02078
:10097000C0F8005130BD01F01F00854048098000DB
:1009800000F1E020C0F8805130BD00000CED00E027
:100990000249084302490860704700000000FA0558
:1009A0000CED00E070B50025002105F1B00000F06D
:1009B000AEF90021084600F0AAF90021102000F04D
:1009C000A6F900240121002000F0A1F9641CE4B282
:1009D000802CF7D36D1CEDB2082DE5D370BD00005F
:1009E00070B5114D4FF4805421462846FFF762FF41
:1009F0000420FFF795FE660031462846FFF75AFFB0
:100A00000420FFF78DFE31462846FFF751FF0420F2
:100A1000FFF786FE21462846FFF74AFFBDE87040F3
:100A20000420FFF77DBE00000004024070B50D4CAD
:100A30004FF480512046FFF73DFF0420FFF770FE82
:100A40004FF4005529462046FFF732FF0420FFF7F8
:100A500067FE29462046FFF72DFFBDE870400420C1
:100A6000FFF75EBE0004024070B5094D4FF480549C
:100A700021462846FFF71EFF0420FFF751FE2146BE
:100A80002846FFF715FFBDE870400420FFF748BE79
:100A9000000402407CB50121022000F0EDF94FF482
:100AA0004054009401208DF8040000228DF80620A7
:100AB0008DF8070002208DF805003D4D6946284657
:100AC000FFF7A8FE21462846FFF7F4FE4FF44870D2
:100AD000FFF71AFE0021AE2000F019F900210846A8
:100AE00000F015F90021102000F011F9002140203C
:100AF00000F00DF90021B02000F009F9002181205B
:100B000000F005F90021FF2000F001F90021A120EB
:100B100000F0FDF80021A62000F0F9F80021A8203F
:100B200000F0F5F800213F2000F0F1F80021C82086
:100B300000F0EDF80021D32000F0E9F8002108468C
:100B400000F0E5F80021D52000F0E1F80021802038
:100B500000F0DDF80021D82000F0D9F800210520B0
:100B600000F0D5F80021D92000F0D1F80021F120C3
:100B700000F0CDF80021DA2000F0C9F800211220A1
:100B800000F0C5F80021DB2000F0C1F80021302082
:100B900000F0BDF800218D2000F0B9F800211420EC
:100BA00000F0B5F80021AF2000F0B1F87CBD0000E6
:100BB0000004024010B5044608460021B03000F0A1
:100BC000A6F8102040EA1410002100F0A0F804F06C
:100BD0000F00BDE81040002100F099B82DE9F04168
:100BE00080460F460024203AD5B2B8F17F0F02D9D3
:100BF000A046BF1CFFB2102B12D039464046FFF76B
:100C0000D9FF184905EB450001EB40050121285D9E
:100C100000F07DF8641CE4B2062CF7D3BDE8F08147
:100C200039464046FFF7C6FF0F4E04EB0510012181
:100C3000305C00F06CF8641CE4B2082CF5D37F1C27
:100C4000F9B24046FFF7B6FF002404EB051030442C
:100C50000121007A00F05BF8641CE4B2082CF4D3A4
:100C6000DCE7000068230008902500082DE9F05F0C
:100C70008046DDF828A08B4691461D4600260024BC
:100C80004FEA5A071DE0281B401EC1B20A2001F09E
:100C900063FBB9FBF0F00A21B0FBF1F201FB12009B
:100CA00026B9691E8C4201DA78B101263030C2B211
:100CB00007FB0480C0B253465946FFF78FFF641C00
:100CC000E4B2AC42DFD3BDE8F09F07FB0480C0B2C2
:100CD000534620225946FFF781FFF0E72DE9F04106
:100CE00004460E4615461F460CE03B46314620465C
:100CF000FFF774FF0834E4B2782C02D90024B61C44
:100D0000F6B26D1C2A78002AEFD1BDE8F0810029E7
:100D100002D0C0B200F057B8C0B200F03DB8000039
:100D20002DE9F04104461B4F4FF4805631463846BA
:100D3000FFF7BEFD0420FFF7F3FC00254FF4005839
:100D400004F0800080281CD041463846FFF7B0FDF3
:100D50000420FFF7E5FC6006040E31463846FFF735
:100D6000A9FD0420FFF7DCFC31463846FFF7A0FD63
:100D70000420FFF7D5FC6D1CEDB2082DE0D3BDE8D3
:100D8000F08141463846FFF795FD0420FFF7C8FC87
:100D9000E1E700000004024010B50446FFF720FE22
:100DA0007820FFF7BDFFFFF75FFE0020FFF7B8FFD9
:100DB000FFF75AFE2046FFF7B3FFFFF755FEBDE8E9
:100DC0001040FFF733BE10B50446FFF709FE782048
:100DD000FFF7A6FFFFF748FE4020FFF7A1FFFFF750
:100DE00043FE2046FFF79CFFFFF73EFEBDE81040A4
:100DF000FFF71CBE80ED000A9FED0B0A80ED010A93
:100E000080ED020AF7EE000AC0ED030AC0ED040A05
:100E1000F6EE000AC0ED050A80ED060A80ED070A2D
:100E200080ED080A7047000000000000D0ED000AC5
:100E300030EEC00A80ED060AD0ED020A30EE801ACC
:100E400080ED021AD0ED030AD0ED041A60EE800A9C
:100E500041EE810A90ED071AD0ED051A30EE411AE5
:100E600041EE810AC0ED010A80ED070ABDEEE00AFD
:100E7000B8EEC00A70477047054A002903D01168D0
:100E80000143116070471168814311607047000091
:100E900030380240054A002903D01168014311602F
:100EA000704711688143116070470000403802406C
:100EB000054A002903D01168014311607047116889
:100EC00081431160704700004438024070B5244BE4
:100ED000196801F00C01234C00291ED0661004296A
:100EE0001DD008291DD00460196801F0F00109091E
:100EF0001D4A545C0168E14041601C6804F4E05400
:100F0000A40A145D21FA04F484601B6803F46043AE
:100F10005B0BD25CD140C16070BD0460E4E7066049
:100F2000E2E70F4A121F1168C1F38055116801F002
:100F30003F0135B1B6FBF1F11468C4F38814614385
:100F400005E0B4FBF1F11468C4F38814614312683E
:100F5000C2F30142521C5200B1FBF2F10160C3E73F
:100F6000083802400024F400000000207047000010
:100F700070B588B001210846FFF77EFF01211020DF
:100F8000FFF796FF244E072209213046FFF780FC29
:100F900007220A213046FFF77BFC4FF4C06106911F
:100FA00002218DF81C108DF81D1000248DF81E40B4
:100FB00001258DF81F5006A93046FFF72BFC4FF492
:100FC000E1300290ADF80C40ADF80E40ADF81040A5
:100FD000ADF814400C20ADF81200104C02A92046C8
:100FE00000F074FC012240F22551204600F053FC31
:100FF00025218DF8041003218DF805108DF80610B9
:101000008DF8075001A8FFF78FFC0121204600F062
:101010000FFC08B070BD000000000240001001404D
:101020000CB50022019200922749086840F48030F4
:1010300008604FF4A063086800F400300090019845
:10104000401C0190009810B901989842F3D10868AB
:10105000800302D50120009000E000920098012852
:1010600031D119484030026842F08052026017487E
:10107000026842F48042026013480830026802604D
:10108000026842F400420260026842F4A052026028
:10109000021F0F4B13600A6842F080720A600A68F0
:1010A0009201FCD50B4A40F205611160016821F004
:1010B00003010160016841F0020101600168C1F3B0
:1010C00081010229FAD10CBD0038024000700040B5
:1010D00008544007003C024002480168491C016076
:1010E000704700001000002010B51248016841F45C
:1010F000700101601048016841F0010101600E4A71
:1011000000210832116002680C4B1A400260031D76
:101110000B4A1A60026822F48022026006480C30F2
:101120000160FFF77DFF03494FF0006080390860E0
:1011300010BD000088ED00E000380240FFFFF6FE21
:101140001030002470B5048C24F001040484058B55
:10115000048C25F0F3054FF6FF7606EA03131343DC
:101160002B4324F00A020A4342F001010383018465
:1011700070BD70B5048C24F010040484058B068CBB
:101180004FF6FF7404EA011125F4734504EA0333B2
:101190002B4304EA02221A4326F0A0030B4343F038
:1011A00010010283018470BDF0B5048C24F48074B6
:1011B0000484868B058C4FF6FF7707EA012426F01E
:1011C000F30607EA03111143314325F42062224359
:1011D00042F4807281830284F0BD70B5048C24F4E3
:1011E00080540484858B068C4FF6FF7404EA013129
:1011F00025F4734504EA02222A4304EA0333134325
:1012000026F420420A4342F480518383018470BD56
:1012100070B5124D0121284600F061F801281BD15C
:10122000FFF7EAFA0E4C00EE100AA0606068401C5E
:101230006060B8EEC00A0B48FFF7F8FDBDEEC00ACB
:1012400010EE101AE160084800F0A4F92846BDE845
:101250007040012100F019B870BD0000001400407A
:10126000100000202800002000040040002904D0C5
:10127000018841F0800101807047018821F08001E0
:1012800001807047C94301827047C943018270479A
:10129000002904D0018841F00101018070470188D4
:1012A00021F001010180704770B50589048B068C1F
:1012B00025F007050D434FF6FC410C4040F20111AB
:1012C0000C4326F022064FF6FF7101EA0311114389
:1012D000314305810483018470BD406A7047024632
:1012E0000020138A0B4092890A40002B02D0002A6A
:1012F00000D00120704770B506460C4625886188ED
:10130000A2882389002D0CD0042D13D0082D1AD0CB
:101310003046FFF762FFE1883046BDE8704000F0DC
:1013200059B93046FFF70EFFE1883046BDE87040FE
:1013300000F034B93046FFF71CFFE1883046BDE8C5
:10134000704000F033B93046FFF72EFFE188304699
:10135000BDE8704000F036B90021018041800122D3
:101360008280C18001817047002A03D082890A43AC
:101370008281704782898A438281704730B5028CAE
:1013800022F001020284058C8388028B22F0700215
:1013900022F003020C88144325F002028D891543C4
:1013A0004A882A430D4DA84202D00D4DA8420FD1C4
:1013B00022F00805CA892A4322F004058A882A43B4
:1013C00023F4807323F400730D8A1D434B8A2B434F
:1013D0008380048389684163028430BD000001403A
:1013E00000040140028B22F008020A430283704786
:1013F00070B5028C22F010020284028C8388048B68
:1014000024F4E04424F440760D884FF6FF7404EA97
:101410000525354322F020028E8904EA061616437C
:101420004A8804EA02123243114EB04202D0114EF1
:10143000B04217D122F08002CE8904EA0616164384
:1014400026F040068A8804EA0212324323F48063BD
:1014500023F400630E8A04EA86061E434B8A04EADC
:10146000830333438380058389688163028470BD6D
:101470000000014000040140028B22F400624FF69C
:10148000FF7303EA012111430183704770B5028C99
:1014900022F480720284028C8388848B24F070048E
:1014A00024F003040D88254322F400728E894FF640
:1014B000FF7404EA062616434A8804EA02223243ED
:1014C000114EB04202D0114EB04217D122F4006644
:1014D000CA8904EA0222324322F480668A8804EA36
:1014E0000222324323F4805323F400530E8A04EA89
:1014F00006161E434B8A04EA031333438380858315
:101500008968C163028470BD00000140000401408D
:10151000828B22F008020A438283704770B5028CE6
:1015200022F480520284058C8288838B23F4E0436A
:1015300023F440760C884FF6FF7303EA0424344307
:1015400025F400558E8903EA06362E434D8803EABA
:1015500005353543084EB04202D0084EB04205D1A1
:1015600022F480460A8A03EA82123243828084830C
:1015700089680164058470BD0000014000040140D9
:10158000828B22F400624FF6FF7303EA01211143BC
:10159000818370474163704741627047028B22F03C
:1015A0000C020283028B0A4302837047028B22F4EF
:1015B00040620283028B4FF6FF7303EA01210A4364
:1015C00002837047828B22F00C028283828B0A4353
:1015D00082837047828B22F440628283828B4FF633
:1015E000FF7303EA01210A438283704730B5028802
:1015F000164C174DA0420DD0A8420BD0B0F1804F31
:1016000008D0144B984205D0134B984202D0134B8C
:10161000984203D122F070034A881A43104B984233
:1016200006D0104B984203D022F440730A891A4323
:1016300002804A68C2620A880285A04201D0A8429C
:1016400001D1897A01860121818230BD00000140EB
:10165000000401400004004000080040000C00406D
:101660000010004000140040F0B58BB001210220B2
:10167000FFF710FC01210846FFF7FEFB01210220C5
:10168000FFF7FAFB3B4F022206213846FFF700F92D
:10169000022207213846FFF7FBF8C02009900225F7
:1016A0008DF828508DF8295000248DF82A40012605
:1016B0008DF82B6009A93846FFF7ACF82E4F0222AF
:1016C00000213846FFF7E4F8022201213846FFF7EF
:1016D000DFF8032009908DF828508DF829508DF8F7
:1016E0002A408DF82B6009A93846FFF793F8472068
:1016F000ADF81800ADF81A4040F2E7300790ADF8A9
:1017000020401E4D06A92846FFF770FF6021ADF866
:101710000410ADF80660ADF81040C821039101A98E
:101720002846FFF72BFE08212846FFF75BFE01A99C
:101730002846FFF75DFE08212846FFF79DFE01A918
:101740002846FFF7A3FE08212846FFF7E1FE01A97E
:101750002846FFF7E3FE08212846FFF711FF012185
:101760002846FFF783FD01212846FFF791FD0BB0C6
:10177000F0BD0000000002400004024000040040F0
:101780007FB501212020FFF785FB6320029041F601
:101790001F40ADF804000024ADF80640ADF80C4041
:1017A000114D01A92846FFF721FF01212846FFF727
:1017B00069FD012211462846FFF7D6FD4FF440701F
:1017C000FFF7E6F837218DF800108DF801408DF80D
:1017D000024001218DF803106846FFF7A5F80121AA
:1017E0002846FFF755FD7FBD0014004070B50A4C38
:1017F00040F225552946204600F02DF8012809D150
:10180000204600F0C1F82946204600F009F80349B7
:101810000120087070BD0000001001402000002071
:1018200040F66A120A0A01219140C94301807047BB
:10183000002904D0818941F4005181817047818958
:1018400021F40051818170470246002012880A422B
:1018500000D00120704770B5002440F66A12C1F331
:10186000421301F01F05012606FA05F2012B0CD0E8
:10187000022B0DD0838A1340090A8E400088304025
:101880000BB100B10124204670BD83891340F3E7FA
:10189000038A1340F0E710B540F66A13C1F3421310
:1018A00001F01F040121A140012B07D0022B07D01A
:1018B00014303AB102680A43026010BD0C30F8E7F8
:1018C0001030F6E702688A43026010BD7FB5044617
:1018D0000D46208A20F44051E88808432082A089E0
:1018E00041F20C618843A9882A8911436A8902431D
:1018F0001143A181A08A20F44071A8890843A082E5
:101900006846FFF7E3FA1E48844202D01D4884422D
:1019100001D1039800E00298A189090408D500EBE1
:10192000C00101EB001029684900B0FBF1F007E0AD
:1019300000EBC00101EB001029688900B0FBF1F059
:101940006422B0FBF2F109010B096FF018056B433B
:1019500000EB8300A3891D044FF0320307D503EB8E
:10196000C000B0FBF2F000F00700084306E003EB14
:101970000010B0FBF2F000F00F00084320817FBDA3
:1019800000100140001401408088C0F30800704737
:10199000C1F3080181807047FEE700000FB4054BDA
:1019A00010B503A9044A029800F0DAF810BC5DF8FB
:1019B00014FB0000C52200082400002002E008C833
:1019C000121F08C1002AFAD170477047002001E0B9
:1019D00001C1121F002AFBD1704700002DE9FF5FF3
:1019E00082B00021DDE90430020DDDF840B0034390
:1019F00018D044F61050A2F2FF3242431514119849
:101A000001281FD0A5EB0B00401C5FEA000A4FF035
:101A100000064E4FDFF83891B046504615D5CAF152
:101A2000000413E0119801244AA3012801D16FEAB0
:101A30000B010298119AC0E90031C0E9024206B0D8
:101A4000BDE8F09FCBF10000DFE704460021404AEB
:101A5000491842EB0450CDE9001012E0E00707D02E
:101A600032463B4640464946FEF753FC804689468F
:101A700032463B4610461946FEF74BFC06460F46DB
:101A80006410002CEAD1DDE90401DDE90023BAF19C
:101A9000000F06DAFEF73DFC42464B46FEF739FCE6
:101AA00005E0FEF77DFD42464B46FEF779FD044614
:101AB0000E460022284BFEF7FBFD03D84FF0FF3007
:101AC000014607E00022254B20463146FEF77AFB0F
:101AD000FEF7D5FD102409E0002C0ADB0A220023C2
:101AE000FEF79FFC039B30321A55641E50EA010238
:101AF000F2D1641C039AC4F111031444119A012A0F
:101B000003D0012208430DD10AE0084304D000208D
:101B10004FF0110B119072E7A3EB0B056D1E0DE05A
:101B20005B4504DD4FF0000205F1010504E003DA36
:101B30004FF00002A5F10105002AECD0029811999E
:101B4000C0E90231C0E9004579E700000000144017
:101B50000000F03F300000000000F0430000E03FD4
:101B60002DE9FF4F95B09A46884606460025EEE1DE
:101B7000252877D100242746F94A0121039400E063
:101B8000044316F8013F203B01FA03F01042F7D15D
:101B900030782A2811D06FF02F033078A0F130026E
:101BA000092A16D8039A44F0020402EB820203EBDE
:101BB00042021044761C0390EFE758F8042B03927E
:101BC000002A03DA504244F40054039044F0020423
:101BD000761C30782E2816D116F8010F44F0040434
:101BE0002A280DD06FF02F023078A0F13003092B96
:101BF00009D807EB870302EB4303C718761CF3E70A
:101C000058F8047B761C30786C280FD006DC4C2802
:101C100017D068280DD06A2814D104E0742810D099
:101C20007A280FD10DE044F400140AE044F4801443
:101C300001E044F440147278824202D104F5801429
:101C4000761C761C307866280BD013DC582877D0A9
:101C500009DC002875D04528F6D04628F4D047285E
:101C60001AD193E118E0632835D0642879D065282B
:101C700012D18BE1702873D008DC6728F1D0692875
:101C80006FD06E280DD06F2806D1ACE073282CD011
:101C9000752874D0782853D05246179990476D1CF8
:101CA00054E1C4F30250022809D003280DD0D8F81B
:101CB000001004280DD00D6008F1040846E1D8F8A2
:101CC0000010EA17C1E90052F6E7D8F800100D80BD
:101CD000F2E70D70F0E718F8041B8DF800100020F3
:101CE0008DF80100EB46012003E058F804BB4FF0EB
:101CF000FF3061074FF0000102D40DE009F101014E
:101D00008946B9420FDA8145F8DB1BF80910002932
:101D1000F4D108E009F1010189468142FADB1BF8A0
:101D200009100029F6D103985346A0EB0907214674
:101D30003846179A00F080FA284400EB090507E0BE
:101D400044E008E10DE01BF8010B5246179990475B
:101D5000B9F10109F7D2534621463846179AF2E005
:101D600039E00A21C4F302524FF0000B0091022A1D
:101D700006D058F8040BC117032A09D00AE023E063
:101D800008F1070020F00702F2E80201904605E0A2
:101D900000B2C117042A01D140B2C117002906DAE6
:101DA0000A460021404261EB02012D2202E0220599
:101DB00004D52B228DF80420012203E0E20701D094
:101DC0002022F7E7914657E00A2100E010214FF06A
:101DD000000B00910BE010214FF0000B44F00404C5
:101DE0000827009103E008204FF0000B0090C4F397
:101DF0000252022A05D058F8040B0021032A08D009
:101E000008E008F1070020F00702F2E8020190461E
:101E100003E080B2042A00D1C0B24FF000092207CB
:101E20002AD53278702A07D0DDF800C08CF0100C6B
:101E30005CEA0B0C05D00EE040228DF80420012254
:101E400008E050EA010306D030238DF804308DF805
:101E5000052002229146009B83F0080353EA0B03FE
:101E60000AD150EA010201D1620705D530228DF86E
:101E700004204FF001097F1E3278582A04D039A27D
:101E80000C920CAA02920BE03BA2F9E75B46009A87
:101E9000FEF7C7FA0C9B9B5C029A521E02921370CB
:101EA00050EA0102F2D1029804A9081A00F1200BAD
:101EB000600702D524F4803400E001275F4502DD8D
:101EC000A7EB0B0000E0002000EB0B010090039853
:101ED0004944401A0390E00306D453462146179A1A
:101EE000039800F0A9F90544002706E001A852462E
:101EF000C05D179990476D1C7F1C4F45F6DBE003D2
:101F00000CD553462146179A039800F095F90544DD
:101F100004E030205246179990476D1C0099481EE6
:101F200000900029F5DC08E00298029952460078FA
:101F3000491C0291179990476D1CBBF10001ABF150
:101F4000010BF1DC5BE100F065F90544761C3078AB
:101F500000287FF40DAE19B02846BDE8F08F0000D0
:101F6000092801003031323334353637383961626F
:101F70006364656600000000303132333435363733
:101F8000383941424344454600000000600700D410
:101F9000062708F1070020F00700F0E8022380463A
:101FA00003F0004C5FEA0C0001D097A009E0200587
:101FB00001D596A005E0E00701D095A001E0AFF2C1
:101FC0004C001390307823F0004365280CD006DCD9
:101FD000452809D046281DD047287FD13BE06628F8
:101FE00018D067287AD136E00021112F01DB1120AB
:101FF00000E0781CCDE9000104A90CA8FFF7EEFC75
:10200000DDE90D010C9A4FF0000B07F10109109268
:1020100000914EE04FF000400097CDE9011004A977
:102020000CA8FFF7DBFCDDE90D020C9B0F994FF0CC
:10203000000B91461093009211B9791C00EB010935
:10204000B7EB090003D4C0F1FF3B07F10109A9EB8D
:102050000700019042E0012F00DA01270021112F33
:1020600001DD112000E03846CDE9000104A90CA8EB
:10207000FFF7B4FCDDE90D010C9A00914FF0000B65
:10208000B946109221070FD4009A4A4503DA9146C7
:1020900001E0A9F10109B9F1010F05DD109AA9F1DB
:1020A0000101515C3029F4D0B84202DA10F1040F7A
:1020B00003DA0121CDE9011010E0002803DC83449C
:1020C000A9EB000102E0411C494500DD8946A0EB77
:1020D0000B00401C01904FF000400290200705D4F7
:1020E0000198484502DB4FF0FF30019000208DF849
:1020F0004B0002980DF14B07B0F1004F25D00220A4
:102100000C902B200D90029800280CDA404202908F
:102110002D200D9007E00A210298FEF76CF930316E
:10212000029007F8011D0C99481E0C900029F2DC62
:1021300002980028EFD1791E0D980870307800F0D1
:10214000200040F0450007F8020D11A8C01BC01D7B
:1021500002901398007800B1012000EB090101986A
:1021600001EBE071029801440398401A401E03906D
:10217000E00306D453462146179A039800F05CF812
:1021800005441398007818B15246179990476D1C72
:10219000E00323D553462146179A039800F04CF8E4
:1021A00005441BE0BBF1000F07DB0098584504DD38
:1021B0001098179910F80B0001E01799302052463B
:1021C000904701980BF1010B401E05F101050190AC
:1021D00004D12E205246179990476D1CB9F1000189
:1021E000A9F10109DEDC05E017F8010B5246179949
:1021F00090476D1C0299481E02900029F4DC53465A
:102200002146179A03989EE62D0000002B0000003F
:10221000200000002DE9F041044600251E46174627
:10222000880404D405E039462020B0476D1C641EA4
:10223000F9D52846BDE8F0812DE9F0410446002596
:102240001E469046C80301D5302700E020278804A9
:1022500004D505E041463846B0476D1C641EF9D5EB
:102260002846BDE8F081000010B5154C002202217F
:102270002046FEF721FB012204212046FEF71CFB2D
:10228000012208212046FEF717FB002210212046DC
:10229000FEF712FB012220212046FEF70DFB002253
:1022A00040212046FEF708FB012280212046FEF750
:1022B00003FB0022A1152046BDE81040FEF7FCBA42
:1022C0000014024070B50446064DE1B22846FFF7FF
:1022D0005FFB80212846FFF7B7FA0028F9D0204697
:1022E00070BD00000010014008B5FEF741FE9FEDF3
:1022F000160A1648FEF77EFDFFF7B6F9FEF7E2FA7A
:10230000FEF7C8FBFEF74EFBFEF71AFAFFF738FAA6
:10231000FFF7AAFF00250E4C10266068322804DB68
:102320000CA0A168FFF73AFB6560084A0121102361
:1023300024320846FEF7D2FC009605230321012033
:102340006268FEF793FCE8E700004843280000209D
:102350001000002025640A000346012000E05843D5
:10236000491EC9B2FBD27047000000000000000007
:10237000002F000000000700070000147F147F14E6
:1023800000242A7F2A12006264081323003649556C
:10239000225000000503000000001C224100000044
:1023A00041221C000014083E08140008083E0808DA
:1023B000000000A060000008080808080000606035
:1023C0000000002010080402003E5149453E000074
:1023D000427F4000004261514946002141454B3156
:1023E000001814127F10002745454539003C4A4922
:1023F0004930000171090503003649494936000694
:102400004949291E000036360000000056360000FB
:102410000008142241000014141414140000412276
:10242000140800020151090600324959513E007C4E
:102430001211127C007F49494936003E4141412238
:10244000007F4141221C007F49494941007F090921
:102450000901003E4149497A007F0808087F0000D1
:10246000417F4100002040413F01007F081422418C
:10247000007F40404040007F020C027F007F040844
:10248000107F003E4141413E007F09090906003EA0
:102490004151215E007F09192946004649494931C9
:1024A0000001017F0101003F4040403F001F2040EC
:1024B000201F003F4038403F0063140814630007AA
:1024C0000870080700615149454300007F41410001
:1024D00000552A552A55000041417F0000040201A1
:1024E000020400404040404000000102040000207F
:1024F00054545478007F48444438003844444420BD
:1025000000384444487F00385454541800087E0969
:1025100001020018A4A4A47C007F08040478000031
:10252000447D4000004080847D00007F10284400EE
:102530000000417F4000007C04180478007C0804FF
:10254000047800384444443800FC2424241800183B
:10255000242418FC007C0804040800485454542027
:1025600000043F444020003C4040207C001C2040B0
:10257000201C003C4030403C004428102844001CF3
:10258000A0A0A07C004464544C44141414141414EB
:10259000000000000000000000000000000000003B
:1025A000000000F8000000000000003330000000D0
:1025B00000100C06100C06000000000000000000D7
:1025C00040C07840C0784000043F04043F04040049
:1025D000007088FC08300000001820FF211E000059
:1025E000F008F000E018000000211C031E211E006E
:1025F00000F00888700000001E21232419272110F4
:1026000010160E0000000000000000000000000096
:10261000000000E01804020000000007182040003D
:1026200000020418E000000000402018070000002D
:10263000404080F0804040000202010F0102020091
:10264000000000F0000000000101011F0101010075
:10265000000000000000000080B0700000000000DA
:102660000000000000000000000101010101010163
:1026700000000000000000000030300000000000FA
:1026800000000000806018040060180601000000CF
:1026900000E010080810E000000F102020100F00CC
:1026A000001010F8000000000020203F2020000053
:1026B00000700808088870000030282422213000AB
:1026C00000300888884830000018202020110E00B3
:1026D0000000C02010F8000000070424243F24005C
:1026E00000F80888880808000019212020110E0031
:1026F00000E0108888180000000F112020110E0043
:1027000000380808C83808000000003F000000003A
:102710000070880808887000001C222121221C00FB
:1027200000E010080810E0000000312222110F0024
:10273000000000C0C00000000000003030000000B9
:102740000000008000000000000080600000000029
:102750000000804020100800000102040810200042
:10276000404040404040400004040404040404008D
:102770000008102040800000002010080402010022
:10278000007048080808F000000000303601000022
:10279000C030C828E810E0000718272423140B00D5
:1027A0000000C038E0000000203C2302022738204F
:1027B00008F8888888700000203F202020110E0033
:1027C000C03008080808380007182020201008002A
:1027D00008F808080810E000203F202020100F0013
:1027E00008F88888E8081000203F202023201800DF
:1027F00008F88888E8081000203F20000300000047
:10280000C03008080838000007182020221E0200E7
:1028100008F808000008F808203F210101213F20A6
:10282000000808F8080800000020203F20200000D1
:1028300000000808F8080800C08080807F000000C1
:1028400008F888C028180800203F200126382000FA
:1028500008F8080000000000203F20202020300061
:1028600008F8F800F8F80800203F003F003F20007B
:1028700008F830C00008F808203F200007183F0083
:10288000E01008080810E0000F10202020100F00B2
:1028900008F808080808F000203F210101010000A5
:1028A000E01008080810E0000F18242438504F00EA
:1028B00008F8888888887000203F2000030C3020AA
:1028C00000708808080838000038202121221C00E8
:1028D000180808F8080818000000203F2000000031
:1028E00008F808000008F808001F202020201F001A
:1028F0000878880000C83808000007380E0100007A
:10290000F80800F80008F800033C0700073C030043
:10291000081868808068180820302C03032C3020A9
:102920000838C800C83808000000203F2000000018
:1029300010080808C8380800203826212020180070
:10294000000000FE020202000000007F4040400044
:10295000000C30C000000000000000010638C0007C
:1029600000020202FE000000004040407F00000024
:102970000000040202020400000000000000000049
:102980000000000000000000808080808080808047
:10299000000202040000000000000000000000002F
:1029A00000008080808000000019242222223F2025
:1029B00008F8008080000000003F112020110E0068
:1029C0000000008080800000000E112020201100F7
:1029D000000000808088F800000E112020103F20A9
:1029E0000000808080800000001F2222222213002D
:1029F000008080F0888888180020203F2020000078
:102A00000000808080808000006B9494949360002C
:102A100008F8008080800000203F210000203F2037
:102A200000809898000000000020203F2020000037
:102A3000000000809898000000C08080807F000027
:102A400008F8000080808000203F24022D30200004
:102A5000000808F8000000000020203F20200000AF
:102A60008080808080808000203F20003F20003FC9
:102A70008080008080800000203F210000203F20D7
:102A80000000808080800000001F202020201F0088
:102A9000808000808000000080FFA12020110E00B7
:102AA0000000008080808000000E112020A0FF80A8
:102AB000808080008080800020203F212000010055
:102AC00000008080808080000033242424241900AA
:102AD000008080E0808000000000001F20200000B7
:102AE0008080000000808000001F202020103F20F8
:102AF000808080000080808000010E300806010088
:102B000080800080008080800F300C030C300F002C
:102B100000808000808080000020312E0E31200057
:102B2000808080000080808080818E701806010087
:102B300000808080808080000021302C22213000A5
:102B400000000000807C020200000000003F4040C6
:102B500000000000FF00000000000000FF00000077
:102B60000002027C800000000040403F00000000A6
:102B70000006010102020404000000000000000041
:102B8000A02B00080000002028000000BC1900084D
:102B9000C82B00082800002038040000CC190008C9
:102BA00000000000010203040102030406070809F3
:102BB0000000000000000000000000000000000015
:082BC00000000000000000000D
:040000050800018965
:00000001FF
