:020000040800F2
:1000000030050020A1010008050B0008010B0008C5
:10001000030B000855050008DD1E00080000000065
:100020000000000000000000000000002110000897
:100030002106000800000000290F0008E91200084E
:10004000BB010008BB010008BB010008BB010008A0
:10005000BB010008BB010008BB010008BB01000890
:10006000BB010008BB010008BB010008BB01000880
:10007000BB010008BB010008BB010008BB01000870
:10008000BB010008BB010008BB010008BB01000860
:10009000BB010008BB010008BB010008BB01000850
:1000A000BB010008BB010008BB010008BB01000840
:1000B000BB010008BB010008BB010008BB01000830
:1000C000BB010008BB010008BB010008BB01000820
:1000D000BB0100088D1C0008C11C0008451D00085C
:1000E000BB010008BB010008BB010008BB01000800
:1000F000BB010008BB010008BB010008BB010008F0
:10010000BB010008BB010008BB010008BB010008DF
:10011000BB010008BB010008BB0100082114000856
:10012000BB010008BB010008BB010008BB010008BF
:10013000BB010008BB010008BB010008BB010008AF
:10014000BB010008BB010008BB010008BB0100089F
:10015000BB010008BB010008BB010008BB0100088F
:10016000BB010008BB010008BB010008BB0100087F
:10017000BB010008BB010008BB010008BB0100086F
:10018000BB010008BB010008DFF810D000F06CF9DB
:1001900000480047ED200008AFF300803005002044
:1001A0000648804706480047FEE7FEE7FEE7FEE711
:1001B000FEE7FEE7FEE7FEE7FEE7FEE7F9120008CE
:1001C000890100082DE9FE4F81EA030404F0004490
:1001D00021F0004100944FF0000B23F0004350EA5F
:1001E00001045ED052EA03045BD0C3F30A54C1F3A6
:1001F0000A552C44A4F2F3340194A0FB0254C1F339
:10020000130141F48011C3F3130343F4801301FB82
:10021000024400FB034E840A970A44EA815447EAE9
:100220008357A4FB076802958D0A05FB07854FEAF3
:10023000932C04FB0C542705029D4FEA065847EA0D
:100240001637B5EB08056EEB070C870E920E47EAE2
:10025000811742EA8312A7FB0201B6EB0B0164EBA4
:1002600000042B0D43EA0C335E1844EB1C50DA46B5
:100270005146E7FB0201C5F313044FEA0B3343EA8F
:1002800014534FEA0432019C43EA0603A4F10C0420
:100290000294009CCDE900B400F098F803B0BDE8EA
:1002A000F08F00200146F9E70EB5C10F80EAE0703B
:1002B0000844CA07002140F233438DE80E000A4685
:1002C0000B4600F083F803B000BD01F0004330B4EA
:1002D00021F0004150EA010206D00A0DA2F5607239
:1002E000C1F31301002A02DC30BC00207047440F28
:1002F00044EAC104C100E01830BC00EBC25000F079
:100300001FB8202A04DB203A00FA02F100207047CF
:100310009140C2F1200320FA03F319439040704743
:10032000202A04DB203A21FA02F00021704721FA4A
:1003300002F3D040C2F120029140084319467047B1
:100340000029A8BF7047401C490008BF20F00100E9
:10035000704710B4B0FA80FC00FA0CF050EA0104C7
:1003600004BF10BC704749B1CCF1200421FA04F459
:1003700011FA0CF118BF012121430843A3EB0C0132
:10038000CB1D4FEA00614FEA102042BF002010BC95
:10039000704700EBC35010440029A4BF10BC704745
:1003A000401C490008BF20F0010010BC704710B588
:1003B000141E73F1000408DA401C41F10001921888
:1003C0005B411A4301D120F0010010BD2DE9F04D31
:1003D00092469B4611B1B1FA81F202E0B0FA80F286
:1003E00020329046FFF78DFF04460F4640EA0A0090
:1003F00041EA0B0153465A46084313D0114653EACB
:10040000010019D0C8F140025046FFF789FF0546A8
:100410000E46504659464246FFF773FF084305D043
:10042000012004E020463946BDE8F08D0020054358
:1004300046EAE0762C4337430A986305E40AA0EBCA
:1004400008000022FD0A44EA47540A3002D5002081
:100450000146E9E7010510196941DDE90845001980
:100460006941BDE8F04DA2E7064C074D06E0E068A3
:1004700040F0010394E8070098471034AC42F6D3EB
:10048000FFF786FEC4210008E421000810B5074CE0
:1004900000220821204600F0EBFA0122102120461C
:1004A00000F0E6FA02490120C86410BD00140240C1
:1004B0001000002010B5074C01220821204600F052
:1004C000D7FA01221021204600F0D2FA0249022078
:1004D000C86410BD001402401000002010B5074C85
:1004E00001222021204600F0C3FA002240212046AC
:1004F00000F0BEFA02490320086510BD0014024056
:100500001000002010B5074C00222021204600F0EA
:10051000AFFA01224021204600F0AAFA0249012048
:10052000086510BD001402401000002010B5074CF3
:1005300001222021204600F09BFA01224021204682
:1005400000F096FA02490220086510BD001402402E
:1005500010000020FEE7000010B5074C0122022128
:10056000204600F085FA00220421204600F080FA9F
:1005700002490320486510BD00140240100000200D
:1005800010B5074C00220221204600F071FA01222A
:100590000421204600F06CFA02490120486510BD94
:1005A000001402401000002010B5074C0122022167
:1005B000204600F05DFA01220421204600F058FA9E
:1005C00002490220486510BD0014024010000020BE
:1005D00010B5074C01228021204600F049FA002284
:1005E000A115204600F044FA02490120886510BD9B
:1005F000001402401000002010B5074C0122802199
:10060000204600F035FA01221102204600F030FAAF
:1006100002490220886510BD00140240100000202D
:10062000704700B502464FF47A7302E0184600F0B6
:1006300004F8521E501CF9D100BD00EBC000C100EF
:100640004FF0E020416100218161052101610169D4
:10065000C903FCD5042101617047000070B5054D48
:10066000284601F082F804B20021284601F0E2F9A0
:10067000204670BD0008004030B589B0012104203B
:1006800000F062FC0121022000F050FCC020079025
:1006900002208DF8200003208DF8210000248DF821
:1006A00023408DF82240204D07A9284600F08EF9FE
:1006B00002220621284600F0C7F902220721284617
:1006C00000F0C2F94FF6FE700590ADF81040ADF89D
:1006D0001240ADF818408DF81A40144D04A9284670
:1006E00001F0D2F901A801F07FF8ADF804400F2421
:1006F000ADF80C4001A9284601F045F80421ADF8F9
:100700000410ADF80C4001A9284601F03CF8002384
:100710001A460321284601F00FF80121284600F06F
:10072000FFFF09B030BD0000000402400008004097
:1007300070B5054D284601F018F804B2002128468E
:1007400001F078F9204670BD000C004030B589B04A
:100750000121082000F0F8FB0121084600F0E6FB2B
:100760000320079002218DF820108DF8210000242D
:100770008DF823408DF822401F4D07A9284600F030
:1007800025F902220021284600F05EF9022201210B
:10079000284600F059F94FF6FE700590ADF810406C
:1007A000ADF81240ADF818408DF81A40134D04A969
:1007B000284601F069F901A801F016F8ADF80440E7
:1007C0000F24ADF80C4001A9284600F0DCFF0421FD
:1007D000ADF80410ADF80C4001A9284600F0D3FF95
:1007E00000231A460321284600F0A6FF01212846CF
:1007F00000F096FF09B030BD00000240000C004040
:1008000070B54FF08045284600F0AFFF04B20021DC
:10081000284601F00FF9204670BD0000F0B589B000
:100820000121084600F090FB0121084600F07EFB04
:100830000121022000F07AFB2020079002268DF88B
:10084000206003258DF8215000248DF823408DF879
:100850002240274F07A9384600F0B8F80820079033
:100860008DF820608DF821508DF823408DF82240BE
:10087000204D07A9284600F0A9F801220521384695
:1008800000F0E2F801220321284600F0DDF84FF6DF
:10089000FE700590ADF81040ADF81240ADF818406C
:1008A0008DF81A402D0504A9284601F0EDF801A89D
:1008B00000F09AFFADF804400F24ADF80C4001A9F8
:1008C000284600F060FF0421ADF80410ADF80C409C
:1008D00001A9284600F057FF00231A4603212846A5
:1008E00000F02AFF0121284600F01AFF09B0F0BDF0
:1008F000000002400004024070B5054D284600F09B
:1009000034FF04B20021284601F094F8204670BD5F
:100910000004014030B589B00121022000F022FB23
:100920000121042000F002FBC020079002208DF876
:10093000200003208DF8210000248DF823408DF83D
:100940002240204D07A9284600F040F80322062146
:10095000284600F079F803220721284600F074F8B1
:100960004FF6FE700590ADF81040ADF81240ADF8AE
:1009700018408DF81A40144D04A9284601F084F857
:1009800001A800F031FFADF804400F24ADF80C4091
:1009900001A9284600F0F7FE0421ADF80410ADF8D7
:1009A0000C4001A9284600F0EEFE00231A46032160
:1009B000284600F0C1FE0121284600F0B1FE09B032
:1009C00030BD000000080240000401402DE9F04164
:1009D000002201274FF0030C07FA02F50B682B40A9
:1009E000AB422CD1066853000CFA03F4A643066010
:1009F0000E79D0F800809E4046EA080606600E791F
:100A0000012E01D0022E12D18668A64386604E794F
:100A1000D0F808809E4046EA080686604668AE43E5
:100A2000466045688E799640B6B235434560C568E4
:100A3000A543C560CC799C40C3681C43C460521C6C
:100A4000102AC9D3BDE8F08110B54B07DB0E9A40E0
:100A5000C90800EB8100016A0F249C40A143016298
:100A6000016A1143016210BD4183704701837047E1
:100A7000002A01D001837047418370477CB5012172
:100A8000402000F053FA01248DF8044000258DF831
:100A90000650200200908DF8074002268DF8056070
:100AA00069461448FFF792FF0121042000F03EFA46
:100AB0008DF804508DF80650802000908DF8074086
:100AC0008DF8056069460C48FFF780FF0121202062
:100AD00000F02CFA8DF804408DF8065040F2FF101B
:100AE00000908DF807408DF8056069460348FFF7D0
:100AF0006DFF7CBD00180240000802400014024057
:100B0000FEE7FEE77047000030B50F23C2780125ED
:100B10000178002A1FD0154A126802F4E062C2F57B
:100B2000E062C2F30722C2F10404D3404278A2403B
:100B300084781C401443220101F1E02181F8002453
:100B4000007800F01F018D404009800000F1E02096
:100B5000C0F8005130BD01F01F00854048098000F9
:100B600000F1E020C0F8805130BD00000CED00E045
:100B70000249084302490860704700000000FA0576
:100B80000CED00E070B50025002105F1B00000F08B
:100B900001F90021084600F0FDF80021102000F0C6
:100BA000F9F800240121002000F0F4F8641CE4B2FC
:100BB000802CF7D36D1CEDB2082DE5D370BD00007D
:100BC00070B5114D4FF4805421462846FFF74EFF73
:100BD0000420FFF732FD660031462846FFF746FF46
:100BE0000420FFF72AFD31462846FFF73DFF042089
:100BF000FFF723FD21462846FFF736FFBDE870408A
:100C00000420FFF71ABD00000004024070B50D4C2F
:100C10004FF480512046FFF729FF0420FFF70DFD18
:100C20004FF4005529462046FFF71EFF0420FFF72A
:100C300004FD29462046FFF719FFBDE87040042057
:100C4000FFF7FBBC0004024070B5094D4FF480541F
:100C500021462846FFF70AFF0420FFF7EEFC214655
:100C60002846FFF701FFBDE870400420FFF7E5BC10
:100C7000000402407CB50121022000F057F94FF436
:100C80004054009401208DF8040000228DF80620C5
:100C90008DF8070002208DF805003D4D6946284675
:100CA000FFF794FE21462846FFF7E0FE4FF4487018
:100CB000FFF7B7FC0021AE2000F06CF800210846D9
:100CC00000F068F80021102000F064F800214020B6
:100CD00000F060F80021B02000F05CF800218120D5
:100CE00000F058F80021FF2000F054F80021A12066
:100CF00000F050F80021A62000F04CF80021A820B8
:100D000000F048F800213F2000F044F80021C820FE
:100D100000F040F80021D32000F03CF80021084604
:100D200000F038F80021D52000F034F800218020B0
:100D300000F030F80021D82000F02CF80021052028
:100D400000F028F80021D92000F024F80021F1203B
:100D500000F020F80021DA2000F01CF80021122019
:100D600000F018F80021DB2000F014F800213020FA
:100D700000F010F800218D2000F00CF80021142064
:100D800000F008F80021AF2000F004F87CBD00005E
:100D900000040240002902D0C0B200F056B8C0B230
:100DA00000F03CB82DE9F04104461B4F4FF480564B
:100DB00031463846FFF758FE0420FFF73EFC002579
:100DC0004FF4005804F0800080281CD0414638467B
:100DD000FFF74AFE0420FFF730FC6006040E3146A0
:100DE0003846FFF743FE0420FFF727FC314638461C
:100DF000FFF73AFE0420FFF720FC6D1CEDB2082D32
:100E0000E0D3BDE8F08141463846FFF72FFE0420CD
:100E1000FFF713FCE1E700000004024010B50446B0
:100E2000FFF7CEFE7820FFF7BDFFFFF70DFF002094
:100E3000FFF7B8FFFFF708FF2046FFF7B3FFFFF704
:100E400003FFBDE81040FFF7E1BE10B50446FFF711
:100E5000B7FE7820FFF7A6FFFFF7F6FE4020FFF76A
:100E6000A1FFFFF7F1FE2046FFF79CFFFFF7ECFE26
:100E7000BDE81040FFF7CABE80ED000A9FED090AE9
:100E800080ED010A80ED020AC0ED030A80ED041A2C
:100E9000C0ED051A80ED060A80ED070A80ED080A0C
:100EA0007047000000000000D0ED000A30EEC00ADC
:100EB00080ED060AD0ED030A90ED041A90ED052AA4
:100EC00060EE800A41EE000A90ED071A70EE411ABA
:100ED00042EE210AD0ED011A70EEA10AC0ED010A1E
:100EE00080ED081A80ED070A10EE901A0A4A914226
:100EF0000ADB9FED0A0A80ED010A9FED090A80EDE9
:100F0000020A084A0121116090ED010ABDEEC00AF3
:100F1000B8EEC00A70470000000048440000484492
:100F2000000000001000002070470000054A002962
:100F300003D011680143116070471168814311604B
:100F40007047000030380240054A002903D011687C
:100F500001431160704711688143116070470000C0
:100F600040380240054A002903D01168014311604E
:100F70007047116881431160704700004438024097
:100F800070B5244B196801F00C01234C00291ED0C8
:100F9000661004291DD008291DD00460196801F0CD
:100FA000F00109091D4A545C0168E14041601C6878
:100FB00004F4E054A40A145D21FA04F484601B686C
:100FC00003F460435B0BD25CD140C16070BD046030
:100FD000E4E70660E2E70F4A121F1168C1F380558B
:100FE000116801F03F0135B1B6FBF1F11468C4F3AB
:100FF0008814614305E0B4FBF1F11468C4F388146C
:1010000061431268C2F30142521C5200B1FBF2F17B
:101010000160C3E7083802400024F400000000200B
:101020007047000070B588B001210846FFF77EFFC9
:1010300001211020FFF796FF244E07220921304698
:10104000FFF702FD07220A213046FFF7FDFC4FF4AF
:10105000C061069102218DF81C108DF81D1000242E
:101060008DF81E4001258DF81F5006A93046FFF768
:10107000ADFC4FF4E1300290ADF80C40ADF80E40FD
:10108000ADF81040ADF814400C20ADF81200104C33
:1010900002A9204600F0C0FE012240F22551204660
:1010A00000F09EFE25218DF8041003218DF8051017
:1010B0008DF806108DF8075001A8FFF725FD0121D6
:1010C000204600F061FE08B070BD00000000024044
:1010D0000010014070B588B001210820FFF726FFFD
:1010E00001214804FFF730FF234E07220521304637
:1010F000FFF7AAFC072206213046FFF7A5FC602176
:10110000069102218DF81C108DF81D1000248DF819
:101110001E4001258DF81F5006A93046FFF756FCEA
:101120004FF4E1300290ADF80C40ADF80E40ADF850
:101130001040ADF814400C20ADF812000F4C02A97D
:10114000204600F069FE012240F22551204600F0C1
:1011500047FE26218DF8041003218DF805108DF827
:1011600006108DF8075001A8FFF7CEFC012120469C
:1011700000F00AFE08B070BD000C024000440040C0
:1011800070B588B001210220FFF7D0FE012188044C
:10119000FFF7DAFE244E07220A213046FFF754FCFF
:1011A00007220B213046FFF74FFC4FF440610691B8
:1011B00002218DF81C108DF81D1000248DF81E40A2
:1011C00001258DF81F5006A93046FFF7FFFB4FF4AD
:1011D000E1300290ADF80C40ADF80E40ADF8104093
:1011E000ADF814400C20ADF81200104C02A92046B6
:1011F00000F012FE012240F22551204600F0F0FDE1
:1012000027218DF8041003218DF805108DF80610A4
:101210008DF8075001A8FFF777FC0121204600F068
:10122000B3FD08B070BD000000040240004800405B
:101230000CB50022019200922749086840F48030E2
:1012400008604FF4A063086800F400300090019833
:10125000401C0190009810B901989842F3D1086899
:10126000800302D50120009000E000920098012840
:1012700031D119484030026842F08052026017486C
:10128000026842F48042026013480830026802603B
:10129000026842F400420260026842F4A052026016
:1012A000021F0F4B13600A6842F080720A600A68DE
:1012B0009201FCD50B4A40F205611160016821F0F2
:1012C00003010160016841F0020101600168C1F39E
:1012D00081010229FAD10CBD0038024000700040A3
:1012E00008544007003C024002484168491C4160E4
:1012F000704700001000002010B51248016841F44A
:10130000700101601048016841F0010101600E4A5E
:1013100000210832116002680C4B1A400260031D64
:101320000B4A1A60026822F48022026006480C30E0
:101330000160FFF77DFF03494FF0006080390860CE
:1013400010BD000088ED00E000380240FFFFF6FE0F
:101350001030002470B5048C24F001040484058B43
:10136000048C25F0F3054FF6FF7606EA03131343CA
:101370002B4324F00A020A4342F001010383018453
:1013800070BD70B5048C24F010040484058B068CA9
:101390004FF6FF7404EA011125F4734504EA0333A0
:1013A0002B4304EA02221A4326F0A0030B4343F026
:1013B00010010283018470BDF0B5048C24F48074A4
:1013C0000484868B058C4FF6FF7707EA012426F00C
:1013D000F30607EA03111143314325F42062224347
:1013E00042F4807281830284F0BD70B5048C24F4D1
:1013F00080540484858B068C4FF6FF7404EA013117
:1014000025F4734504EA02222A4304EA0333134312
:1014100026F420420A4342F480518383018470BD44
:101420002DE9F0412DED048B0121DFF8B482404617
:1014300000F09DF901287CD1AA4CA069401CA06154
:10144000FFF776F9E061FFF7DBF9A062FFF706F935
:101450006063FFF751FA05462064A66AE169676B8D
:10146000881938442844C21700EB92708010E0605D
:101470002269104420614842FEF716FF9FED9A8BC7
:1014800053EC182BFEF79EFEFEF71FFF09EE100A25
:1014900084ED099A3046FEF707FF53EC182BFEF750
:1014A00091FEFEF712FF20633846FEF7FDFE53EC77
:1014B000182BFEF787FEFEF708FFE0636842FEF791
:1014C000F3FE53EC182BFEF77DFEFEF7FEFEA06444
:1014D0002068002871D1B5EEC09A854DF1EE10FA62
:1014E00002DDE06C01280AD0B5EEC09AF1EE10FAE8
:1014F00022D2E06C03280DD001280BD01CE0002282
:1015000008212846FFF7B4FA012210212846FFF7E8
:10151000AFFA11E0012208212846FFF7A9FA0022BC
:1015200010212846FFF7A4FA94ED090AB1EE400A0B
:1015300000E0D0E084ED090A94ED0C0AB5EEC00A93
:10154000F1EE10FA02DD206D012808D0B5EEC00AD8
:10155000F1EE10FA1ED2206D03280BD01AE0002203
:1015600020212846FFF784FA012240212846FFF770
:101570007FFA0FE0012220212846FFF779FA0022A6
:1015800040212846FFF774FA94ED0C0AB1EE400AA8
:1015900084ED0C0A94ED0F0AB5EEC00AF1EE10FAD4
:1015A00002DD606D012809D0B5EEC00AF1EE10FA37
:1015B0001FD2606D03280CD01BE082E000220221C4
:1015C0002846FFF755FA012204212846FFF750FA72
:1015D0000FE0012202212846FFF74AFA00220421E7
:1015E0002846FFF745FA94ED0F0AB1EE400A84ED64
:1015F0000F0A94ED120A4FF48076B5EEC00AF1EEB0
:1016000010FA02DDA06D012808D0B5EEC00AF1EE97
:1016100010FA1ED2A06D03280BD01AE001228021FF
:101620002846FFF725FA002231462846FFF720FA20
:101630000FE0002280212846FFF71AFA01223146E6
:101640002846FFF715FA94ED120AB1EE400A84ED30
:10165000120A94ED090A2748FFF726FCBDEEC00ADE
:1016600084ED080A234894ED0C0A2430FFF71CFC93
:10167000BDEEC00A84ED0B0A1E4894ED0F0A4830F7
:10168000FFF712FCBDEEC00A84ED0E0A194894ED76
:10169000120A6C30FFF708FCBDEEC00A84ED110A97
:1016A000154D216A284600F0BFF92846E16A00F08E
:1016B000BDF92846A16B00F0B5F92846616C00F031
:1016C000B7F9002020604046BDEC048B0121BDE845
:1016D000F04100F022B8BDEC048BBDE8F0810000C1
:1016E0000014004010000020D7A3703D0AD7054029
:1016F000001402407C00002000040040002904D0B7
:10170000018841F0800101807047018821F080014B
:1017100001807047C94301827047C9430182704705
:10172000002904D0018841F001010180704701883F
:1017300021F001010180704770B50589048B068C8A
:1017400025F007050D434FF6FC410C4040F2011116
:101750000C4326F022064FF6FF7101EA03111143F4
:10176000314305810483018470BD406A704702469D
:101770000020138A0B4092890A40002B02D0002AD5
:1017800000D00120704770B506460C462588618858
:10179000A2882389002D0CD0042D13D0082D1AD037
:1017A0003046FFF722FEE1883046BDE8704000F089
:1017B0005FB93046FFF7CEFDE1883046BDE87040A6
:1017C00000F03AB93046FFF7DCFDE1883046BDE86D
:1017D000704000F039B93046FFF7EEFDE188304641
:1017E000BDE8704000F03CB9002101804180012239
:1017F0008280C18001817047002A03D082890A4318
:101800008281704782898A438281704730B5028C19
:1018100022F001020284058C8388028B22F0700280
:1018200022F003020C88144325F002028D8915432F
:101830004A882A430D4DA84202D00D4DA8420FD12F
:1018400022F00805CA892A4322F004058A882A431F
:1018500023F4807323F400730D8A1D434B8A2B43BA
:101860008380048389684163028430BD00000140A5
:1018700000040140028B22F008020A4302837047F1
:1018800070B5028C22F010020284028C8388048BD3
:1018900024F4E04424F440760D884FF6FF7404EA03
:1018A0000525354322F020028E8904EA06161643E8
:1018B0004A8804EA02123243114EB04202D0114E5D
:1018C000B04217D122F08002CE8904EA06161643F0
:1018D00026F040068A8804EA0212324323F4806329
:1018E00023F400630E8A04EA86061E434B8A04EA48
:1018F000830333438380058389688163028470BDD9
:101900000000014000040140028B22F400624FF607
:10191000FF7303EA012111430183704770B5028C04
:1019200022F480720284028C8388848B24F07004F9
:1019300024F003040D88254322F400728E894FF6AB
:10194000FF7404EA062616434A8804EA0222324358
:10195000114EB04202D0114EB04217D122F40066AF
:10196000CA8904EA0222324322F480668A8804EAA1
:101970000222324323F4805323F400530E8A04EAF4
:1019800006161E434B8A04EA031333438380858380
:101990008968C163028470BD0000014000040140F9
:1019A000828B22F008020A438283704770B5028C52
:1019B00022F480520284058C8288838B23F4E043D6
:1019C00023F440760C884FF6FF7303EA0424344373
:1019D00025F400558E8903EA06362E434D8803EA26
:1019E00005353543084EB04202D0084EB04205D10D
:1019F00022F480460A8A03EA821232438280848378
:101A000089680164058470BD000001400004014044
:101A1000828B22F400624FF6FF7303EA0121114327
:101A2000818370474163704781637047C16370472A
:101A30000164704741627047028B22F00C020283FE
:101A4000028B0A4302837047028B22F440620283B6
:101A5000028B4FF6FF7303EA01210A4302837047AA
:101A6000828B22F00C028283828B0A43828370472E
:101A7000828B22F440628283828B4FF6FF7303EAEB
:101A800001210A438283704730B50288164C174DF6
:101A9000A0420DD0A8420BD0B0F1804F08D0144B1B
:101AA000984205D0134B984202D0134B984203D171
:101AB00022F070034A881A43104B984206D0104B0C
:101AC000984203D022F440730A891A4302804A687C
:101AD000C2620A880285A04201D0A84201D1897A57
:101AE00001860121818230BD0000014000040140D7
:101AF0000004004000080040000C004000100040BE
:101B000000140040F0B58BB001210220FFF71CFA51
:101B100001210846FFF70AFA01210220FFF706FA21
:101B20003B4F022206213846FEF78EFF0222072194
:101B30003846FEF789FFC020099002258DF828500D
:101B40008DF8295000248DF82A4001268DF82B604D
:101B500009A93846FEF73AFF2E4F022200213846E7
:101B6000FEF772FF022201213846FEF76DFF0320C7
:101B700009908DF828508DF829508DF82A408DF85D
:101B80002B6009A93846FEF721FF4720ADF8180061
:101B9000ADF81A4040F2E7300790ADF820401E4DF6
:101BA00006A92846FFF770FF6021ADF80410ADF8D4
:101BB0000660ADF810405021039101A92846FFF7B7
:101BC00025FE08212846FFF755FE01A92846FFF704
:101BD00057FE08212846FFF797FE01A92846FFF780
:101BE0009DFE08212846FFF7DBFE01A92846FFF7E6
:101BF000DDFE08212846FFF70BFF01212846FFF7ED
:101C00007DFD01212846FFF78BFD0BB0F0BD0000E4
:101C10000000024000040240000400407FB50121A2
:101C20002020FFF791F940F2F310029041F61F4097
:101C3000ADF804000024ADF80640ADF80C40124D9C
:101C400001A92846FFF720FF01212846FFF762FD82
:101C5000012211462846FFF7CFFD4FF44070FEF7F2
:101C600087FF37218DF800108DF801408DF8024074
:101C700001218DF803106846FEF746FF0121284632
:101C8000FFF74EFD7FBD00000014004070B50A4D07
:101C900040F225563146284600F082F801280AD144
:101CA000284600F017F9054C20703146284600F010
:101CB00063F80120607070BD0010014074000020C6
:101CC00070B51D4C40F225552946204600F068F8B5
:101CD00001282FD1204600F0FDF8C2B21748C2708B
:101CE00003780026012133B1012B0BD0022B0ED03B
:101CF000032B17D018E0552A16D18278A2B90170AB
:101D0000467011E0522A0FD1022101700CE00C49FB
:101D10004378CA545B1CDAB24270132A04D10321FF
:101D2000017001E00670817029462046BDE87040D0
:101D300000F022B870BD0000004400407600002092
:101D40001701002070B50A4D40F22556314628464D
:101D500000F026F801280AD1284600F0BBF8054C0F
:101D600060703146284600F007F80120207070BDF1
:101D7000004800407A00002040F66A120A0A012159
:101D80009140C94301807047002904D0818941F402
:101D9000005181817047818921F400518181704710
:101DA00070B5002440F66A12C1F3421301F01F051A
:101DB000012606FA05F2012B0CD0022B0DD0838AE6
:101DC0001340090A8E40008830400BB100B1012455
:101DD000204670BD83891340F3E7038A1340F0E780
:101DE00010B540F66A13C1F3421301F01F0401213C
:101DF000A140012B07D0022B07D014303AB1026862
:101E00000A43026010BD0C30F8E71030F6E70268B4
:101E10008A43026010BD00007FB504460D46208A4B
:101E200020F44051E88808432082A08941F20C61E7
:101E30008843A9882A8911436A8902431143A181F1
:101E4000A08A20F44071A8890843A0826846FFF761
:101E500097F81E48844202D01D48844201D103985D
:101E600000E00298A189090408D500EBC00101EB4C
:101E7000001029684900B0FBF1F007E000EBC00159
:101E800001EB001029688900B0FBF1F06422B0FB7F
:101E9000F2F109010B096FF018056B4300EB8300A9
:101EA000A3891D044FF0320307D503EBC000B0FB3C
:101EB000F2F000F00700084306E003EB0010B0FB6F
:101EC000F2F000F00F00084320817FBD00100140B8
:101ED000001401408088C0F308007047FEE702E06C
:101EE00008C8121F08C1002AFAD1704770470020A5
:101EF00001E001C1121F002AFBD1704710B52DED82
:101F0000068B9621324C2046FFF78EFD9521204608
:101F1000FFF78CFD96212046FFF784FD9521204692
:101F2000FFF786FD5020FEF77CFB9FED2A8ADFED50
:101F30002A8A9FED2A9ADFED2A9AF0EE481AB0EE2F
:101F4000681AF0EE490AB0EE690A2648FEF794FFD7
:101F50009FED25AA2348F0EE481AB0EE681AF0EE7D
:101F6000490AB0EE4A0A2430FEF786FF1D48F0EE1B
:101F7000481AB0EE681AF0EE490AB0EE690A483025
:101F8000FEF77AFF1748F0EE481AB0EE681AF0EE46
:101F9000490AB0EE4A0A6C30FEF76EFF0121134881
:101FA000FFF7BEFB12480021C16501214161026EAD
:101FB000012A00D00160FEF769FAFEF7A3FAFEF7E6
:101FC000DFFABDEC068BBDE81040FEF701BB000058
:101FD000000400409A99993FCDCCCC3D3333B33FB8
:101FE000000016437C000020000015430014004050
:101FF0001000002010B52DED048B5021324C2046EE
:10200000FFF712FD50212046FFF710FD502120461A
:10201000FFF708FD51212046FFF70AFD5020FEF78B
:1020200000FB9FED2A8ADFED2A8A9FED2A9ADFEDD9
:102030002A9AF0EE481AB0EE681AF0EE490AB0EEAD
:10204000690A2648FEF718FF2448F0EE481AB0EE59
:10205000681AF0EE490AB0EE690A2430FEF70CFF68
:102060001E48F0EE481AB0EE681AF0EE490AB0EEDB
:10207000690A4830FEF700FF1848F0EE481AB0EE43
:10208000681AF0EE490A9FED160A6C30FEF7F4FE6E
:1020900001211448FFF744FB134C0020E0650320A6
:1020A0006061206E032801D001202060FEF7EEF968
:1020B000FEF714FAFEF750FAFEF78AFA6069206616
:1020C000BDEC048B10BD0000000400409A99993FBC
:1020D000CDCCCC3D3333B33F0000A0427C00002088
:1020E0000000A2420014004010000020FEF79AFFFA
:1020F000FFF708FDFEF7C2FCFEF7BCFDFEF742FD50
:10210000FEF7BAFAFEF722FBFEF788FBFEF702FCA9
:10211000FFF784FD00F03AF8FEF784FFFEF7DAFFE0
:10212000FFF72EF800F01EF84FF4FA742046FEF781
:1021300078FA41F2707542F21076FFF7DFFE28461A
:10214000FEF76FFA00F022F82046FEF76AFAFFF772
:1021500051FF3046FEF765FA00F018F82046FEF70A
:1021600060FAEAE708488821017066214170002181
:102170008170C170017141718171C17101727521EC
:1021800041727921817270470C01002010B5002145
:102190000A48FFF7C5FA0A4C0120E0650021616199
:1021A000216E01B12060FEF785F9FEF7BFF9FEF759
:1021B000FBF9FEF721FA6069206610BD00140040AB
:1021C00010000020E4210008000000207C00000036
:1021D000DE1E0008602200087C000020B40400001D
:1021E000EE1E0008000000000102030401020304C7
:1021F00006070809000000000000000000000000C1
:1022000000000000000000000000000000000000CE
:1022100000000000000000000000000000000000BE
:1022200000000000000000000000000000000000AE
:10223000000000000000000000000000000000009E
:10224000000000000000000000000000000000008E
:10225000000000000000000000000000000000007E
:040000050800018965
:00000001FF
