:020000040800F2
:1000000038050020A1010008D10E0008CD0E00081F
:10001000CF0E000821090008E522000800000000BA
:10002000000000000000000000000000E5130008D0
:10003000150A000800000000ED120008DD16000897
:10004000BB010008BB010008BB010008BB010008A0
:10005000BB010008BB010008BB010008BB01000890
:10006000BB010008BB010008BB010008BB01000880
:10007000BB010008BB010008BB010008BB01000870
:10008000BB010008BB010008BB010008BB01000860
:10009000BB010008BB010008BB010008BB01000850
:1000A000BB010008BB010008BB010008BB01000840
:1000B000BB010008BB010008BB010008BB01000830
:1000C000BB010008BB010008BB010008BB01000820
:1000D000BB01000881200008B52000083921000874
:1000E000BB010008BB010008BB010008BB01000800
:1000F000BB010008BB010008BB010008BB010008F0
:10010000BB010008BB010008BB010008BB010008DF
:10011000BB010008BB010008BB010008151800085E
:10012000BB010008BB010008BB010008BB010008BF
:10013000BB010008BB010008BB010008BB010008AF
:10014000BB010008BB010008BB010008BB0100089F
:10015000BB010008BB010008BB010008BB0100088F
:10016000BB010008BB010008BB010008BB0100087F
:10017000BB010008BB010008BB010008BB0100086F
:10018000BB010008BB010008DFF810D000F03EFB07
:1001900000480047452D0008AFF3008038050020D7
:1001A0000648804706480047FEE7FEE7FEE7FEE711
:1001B000FEE7FEE7FEE7FEE7FEE7FEE7ED160008D6
:1001C000890100082DE9FE4F804681EA0300C00F37
:1001D0000C46009021F0004123F00045B8EB0200EE
:1001E000A94105D24046214690461C460B46024690
:1001F00023F00040104347D0270DC7F30A00C3F394
:100200000A510290401A019040286BDAC3F31300A0
:1002100040F4801B0098924620B10023D2EB030AE1
:1002200063EB0B0B01985946C0F14002504600F0B9
:10023000A0F906460D4650465946019A00F0B8F915
:1002400010EB08006141002487EA115284EAE77349
:100250001A4340D0009A62B3019A012A4FEA07522A
:1002600015DC001B61EB02014FF0004202EA07526D
:10027000CDE90042001C41F5801132462B4600F0CA
:10028000EFF903B0BDE8F08F40462146F9E7001BC7
:1002900061EB0201001C41F5801300185B4120183E
:1002A000A2F5001747EB030140EAD570B6196D417E
:1002B00011E06D084FEA360645EAC0754FEA07526D
:1002C000001B61EB0201001C41F5801149084FEA57
:1002D00030000019514132462B4603B0BDE8F04FC3
:1002E00000F0AFB90098012240000023D0EB0202D9
:1002F00063EBE073009821464FEAE074B8EB00002E
:1003000061EB0401E9E783F000435BE781F0004122
:1003100058E72DE9FE4F81EA030404F0004421F080
:10032000004100944FF0000B23F0004350EA010419
:100330005ED052EA03045BD0C3F30A54C1F30A55FA
:100340002C44A4F2F3340194A0FB0254C1F3130132
:1003500041F48011C3F3130343F4801301FB0244FF
:1003600000FB034E840A970A44EA815447EA835704
:10037000A4FB076802958D0A05FB07854FEA932CBD
:1003800004FB0C542705029D4FEA065847EA16372E
:10039000B5EB08056EEB070C870E920E47EA811746
:1003A00042EA8312A7FB0201B6EB0B0164EB0004E7
:1003B0002B0D43EA0C335E1844EB1C50DA465146D1
:1003C000E7FB0201C5F313044FEA0B3343EA14536E
:1003D0004FEA0432019C43EA0603A4F10C040294A0
:1003E000009CCDE900B400F03BF903B0BDE8F08F0C
:1003F00000200146F9E70EB5C10F80EAE07008441D
:10040000CA07002140F233438DE80E000A460B462E
:1004100000F026F903B000BD70B5C1F30A5201F037
:1004200000450024C1F3130140F2FF3341F4801171
:100430009A4201DA002070BD40F233439A42A2F2A0
:10044000334203DC524200F0A3F800E090402C431A
:10045000F1D0404270BD00F0004230F000400AD0C0
:10046000C10D01F56071C0F3160042EA0151C208E6
:1004700040071143704700200146704730B5041E05
:1004800071F1000404DB4FF00044404264EB0101D1
:10049000141E73F1000405DB1C464FF0004352426A
:1004A00063EB0403994208BF904230BD01F0004362
:1004B00030B421F0004150EA010206D00A0DA2F545
:1004C0006072C1F31301002A02DC30BC00207047C7
:1004D000440F44EAC104C100E01830BC00EBC25034
:1004E00000F078B830B50B460146002020220124E8
:1004F00009E021FA02F59D4205D303FA02F5491BF2
:1005000004FA02F52844151EA2F10102F1DC30BD07
:100510002DE9F05F0546002092469B468846064638
:10052000814640241BE0284641464746224600F0CB
:100530002FF853465A46C01A914110D31146184617
:10054000224600F016F82D1A67EB01084F462246A6
:100550000120002100F00DF817EB00094E41201E8C
:10056000A4F10104DFDC484631462A464346BDE893
:10057000F09F202A04DB203A00FA02F100207047A5
:100580009140C2F1200320FA03F3194390407047D1
:10059000202A04DB203A21FA02F00021704721FAD8
:1005A00002F3D040C2F1200291400843194670473F
:1005B000202A06DBCB17203A41FA02F043EAE07327
:1005C00006E041FA02F3D040C2F120029140084314
:1005D000194670470029A8BF7047401C490008BF52
:1005E00020F00100704710B4B0FA80FC00FA0CF063
:1005F00050EA010404BF10BC704749B1CCF120049B
:1006000021FA04F411FA0CF118BF01212143084327
:10061000A3EB0C01CB1D4FEA00614FEA102042BF53
:10062000002010BC704700EBC35010440029A4BF49
:1006300010BC7047401C490008BF20F0010010BCEE
:10064000704710B5141E73F1000408DA401C41F124
:10065000000192185B411A4301D120F0010010BD46
:100660002DE9F04D92469B4611B1B1FA81F202E0BC
:10067000B0FA80F220329046FFF77BFF04460F4627
:1006800040EA0A0041EA0B0153465A46084313D098
:10069000114653EA010019D0C8F140025046FFF755
:1006A00077FF05460E46504659464246FFF761FF22
:1006B000084305D0012004E020463946BDE8F08D0E
:1006C0000020054346EAE0762C4337430A98630549
:1006D000E40AA0EB08000022FD0A44EA47540A306D
:1006E00002D500200146E9E7010510196941DDE95D
:1006F000084500196941BDE8F04DA2E72DE9F04D2C
:1007000081EA030404F0004B21F0004514464FF049
:10071000000A23F0004150EA050220D054EA010209
:100720001DD0C5F30A570246C5F31303C1F31300E6
:10073000C1F30A5640F4801543F48013A7EB060872
:10074000101BD64608F2FD3873EB050002D308F102
:10075000010801E092185B41B8F1000F03DA0020B4
:100760000146BDE8F08D00204FF480110646844616
:100770000EE0171B73EB050705D3121B63EB050394
:1007800006434CEA010C49084FEA300092185B41DD
:1007900050EA0107EDD152EA030012D082EA0400C8
:1007A00083EA0501084305D0101BAB4106D20122A4
:1007B000002306E000224FF0004302E06FF0010248
:1007C00053101AEB06004CEB085110EB0A0041EBFA
:1007D0000B01BDE8F04DFFF734BFC1F30A52C1F37E
:1007E000130140F2FF3341F480119A4202DA0020F3
:1007F0000146704740F233439A42A2F2334202DC90
:100800005242FFF7C5BEFFF7B4BE0000064C074DCD
:1008100006E0E06840F0010394E8070098471034D0
:10082000AC42F6D3FFF7B4FCA82F0008C82F00088D
:1008300010B5074C01220821204600F013FB0022CE
:100840001021204600F00EFB02490320C86410BDB1
:10085000001402401000002010B5074C00220821AF
:10086000204600F0FFFA01221021204600F0FAFA9B
:1008700002490120C86410BD00140240100000208D
:1008800010B5074C01220821204600F0EBFA0122A6
:100890001021204600F0E6FA02490220C86410BD8B
:1008A000001402401000002010B5074C0122202146
:1008B000204600F0D7FA00224021204600F0D2FA6C
:1008C00002490320086510BD0014024010000020FA
:1008D00010B5074C00222021204600F0C3FA012267
:1008E0004021204600F0BEFA02490120086510BDF3
:1008F000001402401000002010B5074C01222021F6
:10090000204600F0AFFA01224021204600F0AAFA6A
:1009100002490220086510BD0014024010000020AA
:10092000FEE7000010B5074C01220221204600F02E
:1009300099FA00220421204600F094FA024903208B
:10094000486510BD001402401000002010B5074C8F
:1009500000220221204600F085FA012204212046CF
:1009600000F080FA02490120486510BD00140240E1
:100970001000002010B5074C01220221204600F093
:1009800071FA01220421204600F06CFA024902208B
:10099000486510BD001402401000002010B5074C3F
:1009A00001228021204600F05DFA0022A115204698
:1009B00000F058FA02490320886510BD0014024077
:1009C0001000002010B5074C00228021204600F0C6
:1009D00049FA01221102204600F044FA024901209E
:1009E000886510BD001402401000002010B5074CAF
:1009F00001228021204600F035FA01221102204612
:100A000000F030FA02490220886510BD001402404F
:100A100010000020704700B502464FF47A7302E0E0
:100A2000184600F004F8521E501CF9D100BD00EB2E
:100A3000C000C1004FF0E02041610021816105212B
:100A400001610169C903FCD50421016170470000FF
:100A500070B5054D284601F082F804B20021284601
:100A600001F0E2F9204670BD0008004030B589B0C1
:100A70000121042000F04AFC0121022000F038FC92
:100A8000C020079002208DF8200003208DF821005F
:100A900000248DF823408DF82240204D07A92846D8
:100AA00000F08EF902220621284600F0C7F9022242
:100AB0000721284600F0C2F94FF6FE700590ADF808
:100AC0001040ADF81240ADF818408DF81A40144DA2
:100AD00004A9284601F0D2F901A801F07FF8ADF889
:100AE00004400F24ADF80C4001A9284601F045F858
:100AF0000421ADF80410ADF80C4001A9284601F01E
:100B00003CF800231A460321284601F00FF8012182
:100B1000284600F0FFFF09B030BD0000000402408D
:100B20000008004070B5054D284601F018F804B2E1
:100B30000021284601F078F9204670BD000C0040E5
:100B400030B589B00121082000F0E0FB0121084602
:100B500000F0CEFB0320079002218DF820108DF8C5
:100B6000210000248DF823408DF822401F4D07A955
:100B7000284600F025F902220021284600F05EF9FF
:100B800002220121284600F059F94FF6FE70059027
:100B9000ADF81040ADF81240ADF818408DF81A408D
:100BA000134D04A9284601F069F901A801F016F8CF
:100BB000ADF804400F24ADF80C4001A9284600F020
:100BC000DCFF0421ADF80410ADF80C4001A9284663
:100BD00000F0D3FF00231A460321284600F0A6FFA9
:100BE0000121284600F096FF09B030BD0000024008
:100BF000000C004070B54FF08045284600F0AFFF74
:100C000004B20021284601F00FF9204670BD000013
:100C1000F0B589B00121084600F078FB01210846B3
:100C200000F066FB0121022000F062FB202007900B
:100C300002268DF8206003258DF8215000248DF8C0
:100C400023408DF82240274F07A9384600F0B8F816
:100C5000082007908DF820608DF821508DF82340F2
:100C60008DF82240204D07A9284600F0A9F801225E
:100C70000521384600F0E2F801220321284600F061
:100C8000DDF84FF6FE700590ADF81040ADF812405B
:100C9000ADF818408DF81A402D0504A9284601F03A
:100CA000EDF801A800F09AFFADF804400F24ADF86C
:100CB0000C4001A9284600F060FF0421ADF80410A3
:100CC000ADF80C4001A9284600F057FF00231A4652
:100CD0000321284600F02AFF0121284600F01AFFD0
:100CE00009B0F0BD000002400004024070B5054D9F
:100CF000284600F034FF04B20021284601F094F8A1
:100D0000204670BD0004014030B589B001210220A9
:100D100000F00AFB0121042000F0EAFAC02007904D
:100D200002208DF8200003208DF8210000248DF88A
:100D300023408DF82240204D07A9284600F040F8B6
:100D400003220621284600F079F8032207212846CD
:100D500000F074F84FF6FE700590ADF81040ADF855
:100D60001240ADF818408DF81A40144D04A92846D9
:100D700001F084F801A800F031FFADF804400F2421
:100D8000ADF80C4001A9284600F0F7FE0421ADF8AB
:100D90000410ADF80C4001A9284600F0EEFE002337
:100DA0001A460321284600F0C1FE0121284600F022
:100DB000B1FE09B030BD000000080240000401404F
:100DC0002DE9F041002201274FF0030C07FA02F54C
:100DD0000B682B40AB422CD1066853000CFA03F48D
:100DE000A64306600E79D0F800809E4046EA0806C9
:100DF00006600E79012E01D0022E12D18668A6431C
:100E000086604E79D0F808809E4046EA08068660E3
:100E10004668AE43466045688E799640B6B2354323
:100E20004560C568A543C560CC799C40C3681C4338
:100E3000C460521C102AC9D3BDE8F08110B54B071D
:100E4000DB0E9A40C90800EB8100016A0F249C4028
:100E5000A1430162016A1143016210BD41837047E1
:100E600001837047002A01D0018370474183704796
:100E70007CB50121402000F03BFA01248DF80440AC
:100E800000268DF80660200200908DF807400225AC
:100E90008DF8055069460B48FFF792FF012120208D
:100EA00000F026FA8DF804408DF8066040F2FF103D
:100EB00000908DF807408DF8055069460248FFF70D
:100EC0007FFF7CBD0018024000140240FEE7FEE7F1
:100ED0007047000030B50F23C27801250178002A41
:100EE0001FD0154A126802F4E062C2F5E062C2F354
:100EF0000722C2F10404D3404278A24084781C4007
:100F00001443220101F1E02181F80024007800F06F
:100F10001F018D404009800000F1E020C0F8005121
:100F200030BD01F01F0085404809800000F1E0203D
:100F3000C0F8805130BD00000CED00E002490843CC
:100F400002490860704700000000FA050CED00E05F
:100F500070B50025002105F1B00000F001F9002175
:100F6000084600F0FDF80021102000F0F9F80024F8
:100F70000121002000F0F4F8641CE4B2802CF7D3C7
:100F80006D1CEDB2082DE5D370BD000070B5114D9C
:100F90004FF4805421462846FFF762FF0420FFF7F4
:100FA00046FD660031462846FFF75AFF0420FFF74A
:100FB0003EFD31462846FFF751FF0420FFF737FD7D
:100FC00021462846FFF74AFFBDE870400420FFF79E
:100FD0002EBD00000004024070B50D4C4FF480514E
:100FE0002046FFF73DFF0420FFF721FD4FF4005599
:100FF00029462046FFF732FF0420FFF718FD294657
:101000002046FFF72DFFBDE870400420FFF70FBD1D
:101010000004024070B5094D4FF480542146284623
:10102000FFF71EFF0420FFF702FD21462846FFF7C9
:1010300015FFBDE870400420FFF7F9BC0004024032
:101040007CB50121022000F053F94FF44054009484
:1010500001208DF8040000228DF806208DF807008D
:1010600002208DF805003D4D69462846FFF7A8FE91
:1010700021462846FFF7F4FE4FF44870FFF7CBFCFB
:101080000021AE2000F06CF80021084600F068F85E
:101090000021102000F064F80021402000F060F8EA
:1010A0000021B02000F05CF80021812000F058F809
:1010B0000021FF2000F054F80021A12000F050F89A
:1010C0000021A62000F04CF80021A82000F048F8EC
:1010D00000213F2000F044F80021C82000F040F833
:1010E0000021D32000F03CF80021084600F038F839
:1010F0000021D52000F034F80021802000F030F8E5
:101100000021D82000F02CF80021052000F028F85C
:101110000021D92000F024F80021F12000F020F86F
:101120000021DA2000F01CF80021122000F018F84D
:101130000021DB2000F014F80021302000F010F82E
:1011400000218D2000F00CF80021142000F008F898
:101150000021AF2000F004F87CBD00000004024034
:10116000002902D0C0B200F056B8C0B200F03CB8BE
:101170002DE9F04104461B4F4FF480563146384666
:10118000FFF76CFE0420FFF752FC00254FF40058D7
:1011900004F0800080281CD041463846FFF75EFEF0
:1011A0000420FFF744FC6006040E31463846FFF782
:1011B00057FE0420FFF73BFC31463846FFF74EFE52
:1011C0000420FFF734FC6D1CEDB2082DE0D3BDE820
:1011D000F08141463846FFF743FE0420FFF727FC25
:1011E000E1E700000004024010B50446FFF7CEFE20
:1011F0007820FFF7BDFFFFF70DFF0020FFF7B8FFD6
:10120000FFF708FF2046FFF7B3FFFFF703FFBDE836
:101210001040FFF7E1BE10B50446FFF7B7FE782097
:10122000FFF7A6FFFFF7F6FE4020FFF7A1FFFFF74D
:10123000F1FE2046FFF79CFFFFF7ECFEBDE81040F3
:10124000FFF7CABE80ED000A9FED090A80ED010A92
:1012500080ED020AC0ED030A80ED041AC0ED051A04
:1012600080ED060A80ED070A80ED080A704700004D
:1012700000000000D0ED000A30EEC00A80ED060A42
:10128000D0ED030A90ED041A90ED052A60EE800A75
:1012900041EE000A90ED071A70EE411A42EE210A63
:1012A000C0ED010A80ED081A80ED070A10EE901AD1
:1012B0000A4A91420ADB9FED0A0A80ED010A9FED7E
:1012C000090A80ED020A084A0121116090ED010A25
:1012D000BDEEC00AB8EEC00A7047000000004844E6
:1012E000000048440000000010000020704700008B
:1012F000054A002903D01168014311607047116845
:10130000814311607047000030380240054A0029CF
:1013100003D0116801431160704711688143116067
:101320007047000040380240054A002903D0116888
:1013300001431160704711688143116070470000DC
:101340004438024070B5244B196801F00C01234C5D
:1013500000291ED0661004291DD008291DD0046064
:10136000196801F0F00109091D4A545C0168E14067
:1013700041601C6804F4E054A40A145D21FA04F4EA
:1013800084601B6803F460435B0BD25CD140C16096
:1013900070BD0460E4E70660E2E70F4A121F1168BF
:1013A000C1F38055116801F03F0135B1B6FBF1F191
:1013B0001468C4F38814614305E0B4FBF1F11468C8
:1013C000C4F3881461431268C2F30142521C5200F4
:1013D000B1FBF2F10160C3E7083802400024F400D9
:1013E000000000207047000004488178012901D0E6
:1013F0000020704700218170012070477A00002092
:1014000004480178012901D00020704700210170B3
:10141000012070477E00002070B588B00121084689
:10142000FFF766FF01211020FFF77EFF244E072201
:1014300009213046FFF702FD07220A213046FFF757
:10144000FDFC4FF4C061069102218DF81C108DF84F
:101450001D1000248DF81E4001258DF81F5006A98F
:101460003046FFF7ADFC4FF4E1300290ADF80C4090
:10147000ADF80E40ADF81040ADF814400C20ADF8BA
:101480001200104C02A9204600F0C6FE012240F2D4
:101490002551204600F0A5FE25218DF804100321DA
:1014A0008DF805108DF806108DF8075001A8FFF78C
:1014B00011FD0121204600F061FE08B070BD000062
:1014C000000002400010014070B588B001210820E2
:1014D000FFF70EFF01214804FFF718FF234E0722F4
:1014E00005213046FFF7AAFC072206213046FFF708
:1014F000A5FC6021069102218DF81C108DF81D10AD
:1015000000248DF81E4001258DF81F5006A9304695
:10151000FFF756FC4FF4E1300290ADF80C40ADF807
:101520000E40ADF81040ADF814400C20ADF812009C
:101530000F4C02A9204600F06FFE012240F2255117
:10154000204600F04EFE26218DF8041003218DF870
:1015500005108DF806108DF8075001A8FFF7BAFCAA
:101560000121204600F00AFE08B070BD000C0240C8
:101570000044004070B588B001210220FFF7B8FE9A
:1015800001218804FFF7C2FE244E07220A213046BB
:10159000FFF754FC07220B213046FFF74FFC4FF4B6
:1015A0004061069102218DF81C108DF81D10002459
:1015B0008DF81E4001258DF81F5006A93046FFF713
:1015C000FFFB4FF416500290ADF80C40ADF80E4002
:1015D000ADF81040ADF814400C20ADF81200104CDE
:1015E00002A9204600F018FE012240F225512046B3
:1015F00000F0F7FD27218DF8041003218DF8051068
:101600008DF806108DF8075001A8FFF763FC012143
:10161000204600F0B3FD08B070BD00000004024099
:10162000004800400CB5002201920092274908684A
:1016300040F4803008604FF4A063086800F4003084
:1016400000900198401C0190009810B901989842B0
:10165000F3D10868800302D50120009000E00092D9
:101660000098012831D119484030026842F0805278
:1016700002601748026842F4804202601348083052
:1016800002680260026842F400420260026842F4AA
:10169000A0520260021F0F4B13600A6842F0807272
:1016A0000A600A689201FCD50B4A40F2056111609C
:1016B000016821F003010160016841F0020101604D
:1016C0000168C1F381010229FAD10CBD0038024042
:1016D0000070004008544007003C02400248416846
:1016E000491C4160704700001000002010B51248EE
:1016F000016841F4700101601048016841F0010186
:1017000001600E4A00210832116002680C4B1A4039
:101710000260031D0B4A1A60026822F480220260F4
:1017200006480C300160FFF77DFF03494FF0006071
:101730008039086010BD000088ED00E000380240EC
:10174000FFFFF6FE1030002470B5048C24F0010475
:101750000484058B048C25F0F3054FF6FF7606EA2A
:10176000031313432B4324F00A020A4342F00101FE
:101770000383018470BD70B5048C24F010040484CC
:10178000058B068C4FF6FF7404EA011125F47345AE
:1017900004EA03332B4304EA02221A4326F0A0038F
:1017A0000B4343F010010283018470BDF0B5048C3B
:1017B00024F480740484868B058C4FF6FF7707EA47
:1017C000012426F0F30607EA03111143314325F4FF
:1017D0002062224342F4807281830284F0BD70B59E
:1017E000048C24F480540484858B068C4FF6FF749B
:1017F00004EA013125F4734504EA02222A4304EA8B
:101800000333134326F420420A4342F48051838376
:10181000018470BD2DE9F0412DED048B0121DFF82D
:10182000B482404600F09DF901287CD1AA4CA06901
:10183000401CA061FFF776F9E061FFF7DBF9A062D9
:10184000FFF706F96063FFF751FA05462064A66AC0
:10185000E169676B881938442844C21700EB92701D
:101860008010E0602269104420614842FEF7C3FD09
:101870009FED9A8B53EC182BFEF74BFDFEF716FEEF
:1018800009EE100A84ED099A3046FEF7B4FD53ECD8
:10189000182BFEF73EFDFEF709FE20633846FEF7E3
:1018A000AAFD53EC182BFEF734FDFEF7FFFDE063B5
:1018B0006842FEF7A0FD53EC182BFEF72AFDFEF759
:1018C000F5FDA0642068002871D1B5EEC09A854D61
:1018D000F1EE10FA02DDE06C01280AD0B5EEC09AF4
:1018E000F1EE10FA22D2E06C03280DD001280BD0C3
:1018F0001CE0002208212846FFF7B4FA012210213B
:101900002846FFF7AFFA11E0012208212846FFF729
:10191000A9FA002210212846FFF7A4FA94ED090A3B
:10192000B1EE400A00E0D0E084ED090A94ED0C0A23
:10193000B5EEC00AF1EE10FA02DD206D012808D0E4
:10194000B5EEC00AF1EE10FA1ED2206D03280BD0BE
:101950001AE0002220212846FFF784FA01224021C4
:101960002846FFF77FFA0FE0012220212846FFF7E3
:1019700079FA002240212846FFF774FA94ED0C0A08
:10198000B1EE400A84ED0C0A94ED0F0AB5EEC00AE0
:10199000F1EE10FA02DD606D012809D0B5EEC00A43
:1019A000F1EE10FA1FD2606D03280CD01BE082E02C
:1019B000002202212846FFF755FA01220421284679
:1019C000FFF750FA0FE0012202212846FFF74AFAFA
:1019D000002204212846FFF745FA94ED0F0AB1EEE4
:1019E000400A84ED0F0A94ED120A4FF48076B5EEAA
:1019F000C00AF1EE10FA02DDA06D012808D0B5EEA4
:101A0000C00AF1EE10FA1ED2A06D03280BD01AE026
:101A1000002280212846FFF725FA01223146284678
:101A2000FFF720FA0FE0012280212846FFF71AFA7B
:101A3000002231462846FFF715FA94ED120AB1EE5E
:101A4000400A84ED120A94ED090A2748FFF712FCB8
:101A5000BDEEC00A84ED080A234894ED0C0A243038
:101A6000FFF708FCBDEEC00A84ED0B0A1E4894ED9A
:101A70000F0A4830FFF7FEFBBDEEC00A84ED0E0AE8
:101A8000194894ED120A6C30FFF7F4FBBDEEC00A62
:101A900084ED110A154D216A284600F0BFF9284649
:101AA000E16A00F0BDF92846A16B00F0B5F92846BF
:101AB000616C00F0B7F9002020604046BDEC048B5B
:101AC0000121BDE8F04100F022B8BDEC048BBDE877
:101AD000F08100000014004010000020D7A3703DEA
:101AE0000AD7054000140240840000200004004092
:101AF000002904D0018841F08001018070470188ED
:101B000021F0800101807047C94301827047C943B9
:101B100001827047002904D0018841F00101018051
:101B20007047018821F001010180704770B5058977
:101B3000048B068C25F007050D434FF6FC410C4045
:101B400040F201110C4326F022064FF6FF7101EA24
:101B500003111143314305810483018470BD406A40
:101B6000704702460020138A0B4092890A40002BDE
:101B700002D0002A00D00120704770B506460C46FE
:101B800025886188A2882389002D0CD0042D13D0CC
:101B9000082D1AD03046FFF722FEE1883046BDE816
:101BA000704000F05FB93046FFF7CEFDE188304667
:101BB000BDE8704000F03AB93046FFF7DCFDE1883F
:101BC0003046BDE8704000F039B93046FFF7EEFD11
:101BD000E1883046BDE8704000F03CB9002101804A
:101BE000418001228280C18001817047002A03D098
:101BF00082890A438281704782898A438281704741
:101C000030B5028C22F001020284058C8388028B9D
:101C100022F0700222F003020C88144325F0020225
:101C20008D8915434A882A430D4DA84202D00D4D97
:101C3000A8420FD122F00805CA892A4322F00405E0
:101C40008A882A4323F4807323F400730D8A1D438A
:101C50004B8A2B438380048389684163028430BDAF
:101C60000000014000040140028B22F008020A43F8
:101C70000283704770B5028C22F010020284028C3D
:101C80008388048B24F4E04424F440760D884FF6D6
:101C9000FF7404EA0525354322F020028E8904EA08
:101CA000061616434A8804EA02123243114EB04225
:101CB00002D0114EB04217D122F08002CE8904EA40
:101CC0000616164326F040068A8804EA02123243BA
:101CD00023F4806323F400630E8A04EA86061E431D
:101CE0004B8A04EA830333438380058389688163D5
:101CF000028470BD0000014000040140028B22F408
:101D000000624FF6FF7303EA01211143018370471C
:101D100070B5028C22F480720284028C8388848BDA
:101D200024F0700424F003040D88254322F400728B
:101D30008E894FF6FF7404EA062616434A8804EAA1
:101D400002223243114EB04202D0114EB04217D19E
:101D500022F40066CA8904EA0222324322F4806631
:101D60008A8804EA0222324323F4805323F4005386
:101D70000E8A04EA06161E434B8A04EA0313334311
:101D8000838085838968C163028470BD000001403F
:101D900000040140828B22F008020A4382837047CC
:101DA00070B5028C22F480520284058C8288838B69
:101DB00023F4E04323F440760C884FF6FF7303EAE4
:101DC0000424344325F400558E8903EA06362E4355
:101DD0004D8803EA05353543084EB04202D0084E1F
:101DE000B04205D122F480460A8A03EA82123243C5
:101DF0008280848389680164058470BD000001408D
:101E000000040140828B22F400624FF6FF7303EA64
:101E1000012111438183704741637047816370479B
:101E2000C16370470164704741627047028B22F0C2
:101E30000C020283028B0A4302837047028B22F456
:101E400040620283028B4FF6FF7303EA01210A43CB
:101E500002837047828B22F00C028283828B0A43BA
:101E600082837047828B22F440628283828B4FF69A
:101E7000FF7303EA01210A438283704730B5028869
:101E8000164C174DA0420DD0A8420BD0B0F1804F98
:101E900008D0144B984205D0134B984202D0134BF4
:101EA000984203D122F070034A881A43104B98429B
:101EB00006D0104B984203D022F440730A891A438B
:101EC00002804A68C2620A880285A04201D0A84204
:101ED00001D1897A01860121818230BD0000014053
:101EE000000401400004004000080040000C0040D5
:101EF0000010004000140040F0B58BB0012102201A
:101F0000FFF704FA01210846FFF7F2F90121022048
:101F1000FFF7EEF93B4F022206213846FEF78EFF0F
:101F2000022207213846FEF789FFC02009900225CA
:101F30008DF828508DF8295000248DF82A4001266C
:101F40008DF82B6009A93846FEF73AFF2E4F022282
:101F500000213846FEF772FF022201213846FEF7C3
:101F60006DFF032009908DF828508DF829508DF8C9
:101F70002A408DF82B6009A93846FEF721FF47203B
:101F8000ADF81800ADF81A4040F2E7300790ADF810
:101F900020401E4D06A92846FFF770FF6021ADF8CE
:101FA0000410ADF80660ADF810409621039101A928
:101FB0002846FFF725FE08212846FFF755FE01A910
:101FC0002846FFF757FE08212846FFF797FE01A98C
:101FD0002846FFF79DFE08212846FFF7DBFE01A9F2
:101FE0002846FFF7DDFE08212846FFF70BFF0121F9
:101FF0002846FFF77DFD01212846FFF78BFD0BB03A
:10200000F0BD000000000240000402400004004057
:102010007FB501212020FFF779F940F2F3100290FB
:1020200041F61F40ADF804000024ADF80640ADF8BD
:102030000C40124D01A92846FFF720FF0121284638
:10204000FFF762FD012211462846FFF7CFFD4FF44E
:102050004070FEF773FF37218DF800108DF80140B6
:102060008DF8024001218DF803106846FEF732FF1B
:1020700001212846FFF74EFD7FBD000000140040FF
:1020800070B50A4D40F225563146284600F089F8D1
:1020900001280AD1284600F01DF9054C2070314670
:1020A000284600F063F80120607070BD0010014008
:1020B0007800002070B51D4C40F225552946204679
:1020C00000F06FF801282FD1204600F003F9C2B2CA
:1020D0001748C27003780026012133B1012B0BD0C1
:1020E000022B0ED0032B17D018E0552A16D1827878
:1020F000A2B90170467011E0522A0FD1022101707D
:102100000CE00C494378CA545B1CDAB24270132AC3
:1021100004D10321017001E0067081702946204638
:10212000BDE8704000F022B870BD000000440040DF
:102130007A0000201F01002070B50A4D40F225569C
:102140003146284600F02DF801280AD1284600F033
:10215000C1F8054C60703146284600F007F80120B0
:10216000207070BD004800407E00002040F66A12DA
:102170000A0A01219140C94301807047002904D017
:10218000818941F4005181817047818921F4005196
:10219000818170470246002012880A4200D0012047
:1021A000704770B5002440F66A12C1F3421301F083
:1021B0001F05012606FA05F2012B0CD0022B0DD0CB
:1021C000838A1340090A8E40008830400BB100B169
:1021D0000124204670BD83891340F3E7038A13402E
:1021E000F0E710B540F66A13C1F3421301F01F0483
:1021F0000121A140012B07D0022B07D014303AB1A6
:1022000002680A43026010BD0C30F8E71030F6E7B0
:1022100002688A43026010BD7FB504460D46208ADD
:1022200020F44051E88808432082A08941F20C61E3
:102230008843A9882A8911436A8902431143A181ED
:10224000A08A20F44071A8890843A0826846FFF75D
:1022500079F81E48844202D01D48844201D1039877
:1022600000E00298A189090408D500EBC00101EB48
:10227000001029684900B0FBF1F007E000EBC00155
:1022800001EB001029688900B0FBF1F06422B0FB7B
:10229000F2F109010B096FF018056B4300EB8300A5
:1022A000A3891D044FF0320307D503EBC000B0FB38
:1022B000F2F000F00700084306E003EB0010B0FB6B
:1022C000F2F000F00F00084320817FBD00100140B4
:1022D000001401408088C0F308007047C1F3080172
:1022E00081807047FEE700000FB4054B10B503A9CD
:1022F000044A029800F0DAF810BC5DF814FB000004
:10230000F12B00088000002002E008C8121F08C15D
:10231000002AFAD170477047002001E001C1121F66
:10232000002AFBD1704700002DE9FF5F82B0002139
:10233000DDE90430020DDDF840B0034318D044F667
:102340001050A2F2FF3242431514119801281FD0F9
:10235000A5EB0B00401C5FEA000A4FF000064E4F51
:10236000DFF83891B046504615D5CAF1000413E0A5
:10237000119801244AA3012801D16FEA0B010298A8
:10238000119AC0E90031C0E9024206B0BDE8F09FF1
:10239000CBF10000DFE704460021404A491842EB38
:1023A0000450CDE9001012E0E00707D032463B466A
:1023B00040464946FDF7ADFF8046894632463B46DA
:1023C00010461946FDF7A5FF06460F466410002C7F
:1023D000EAD1DDE90401DDE90023BAF1000F06DAF4
:1023E000FDF797FF42464B46FDF793FF05E0FEF7EA
:1023F00085F942464B46FEF781F904460E46002217
:10240000284BFEF73BF803D84FF0FF30014607E0BA
:102410000022254B20463146FDF7D4FEFEF7DDF9BC
:10242000102409E0002C0ADB0A220023FEF770F8D2
:10243000039B30321A55641E50EA0102F2D1641C2B
:10244000039AC4F111031444119A012A03D0012202
:1024500008430DD10AE0084304D000204FF0110BCF
:10246000119072E7A3EB0B056D1E0DE05B4504DDDB
:102470004FF0000205F1010504E003DA4FF000021D
:10248000A5F10105002AECD002981199C0E90231AA
:10249000C0E9004579E70000000014400000F03F6B
:1024A000300000000000F0430000E03F2DE9FF4F46
:1024B00095B09A46884606460025EEE1252877D154
:1024C00000242746F94A0121039400E0044316F84A
:1024D000013F203B01FA03F01042F7D130782A285F
:1024E00011D06FF02F033078A0F13002092A16D8EE
:1024F000039A44F0020402EB820203EB420210440E
:10250000761C0390EFE758F8042B0392002A03DAB5
:10251000504244F40054039044F00204761C307896
:102520002E2816D116F8010F44F004042A280DD0E5
:102530006FF02F023078A0F13003092B09D807EB98
:10254000870302EB4303C718761CF3E758F8047BB4
:10255000761C30786C280FD006DC4C2817D0682801
:102560000DD06A2814D104E0742810D07A280FD135
:102570000DE044F400140AE044F4801401E044F453
:1025800040147278824202D104F58014761C761CC5
:10259000307866280BD013DC582877D009DC002867
:1025A00075D04528F6D04628F4D047281AD193E1B3
:1025B00018E0632835D0642879D0652812D18BE1E2
:1025C000702873D008DC6728F1D069286FD06E2896
:1025D0000DD06F2806D1ACE073282CD0752874D0AC
:1025E000782853D05246179990476D1C54E1C4F394
:1025F0000250022809D003280DD0D8F80010042872
:102600000DD00D6008F1040846E1D8F80010EA1773
:10261000C1E90052F6E7D8F800100D80F2E70D701E
:10262000F0E718F8041B8DF8001000208DF8010069
:10263000EB46012003E058F804BB4FF0FF30610780
:102640004FF0000102D40DE009F101018946B942C1
:102650000FDA8145F8DB1BF809100029F4D108E0F6
:1026600009F1010189468142FADB1BF809100029B2
:10267000F6D103985346A0EB090721463846179A2E
:1026800000F080FA284400EB090507E044E008E187
:102690000DE01BF8010B524617999047B9F101095B
:1026A000F7D2534621463846179AF2E039E00A211C
:1026B000C4F302524FF0000B0091022A06D058F8E2
:1026C000040BC117032A09D00AE023E008F1070030
:1026D00020F00702F2E80201904605E000B2C117BF
:1026E000042A01D140B2C117002906DA0A460021A6
:1026F000404261EB02012D2202E0220504D52B228B
:102700008DF80420012203E0E20701D02022F7E740
:10271000914657E00A2100E010214FF0000B009194
:102720000BE010214FF0000B44F004040827009147
:1027300003E008204FF0000B0090C4F30252022A7D
:1027400005D058F8040B0021032A08D008E008F14E
:10275000070020F00702F2E80201904603E080B291
:10276000042A00D1C0B24FF0000922072AD53278DE
:10277000702A07D0DDF800C08CF0100C5CEA0B0C5E
:1027800005D00EE040228DF80420012208E050EA36
:10279000010306D030238DF804308DF80520022285
:1027A0009146009B83F0080353EA0B030AD150EAD9
:1027B000010201D1620705D530228DF804204FF0C7
:1027C00001097F1E3278582A04D039A20C920CAA33
:1027D00002920BE03BA2F9E75B46009AFDF798FEF8
:1027E0000C9B9B5C029A521E0292137050EA0102EB
:1027F000F2D1029804A9081A00F1200B600702D553
:1028000024F4803400E001275F4502DDA7EB0B00D4
:1028100000E0002000EB0B01009003984944401AAF
:102820000390E00306D453462146179A039800F01C
:10283000A9F90544002706E001A85246C05D179992
:1028400090476D1C7F1C4F45F6DBE0030CD55346CB
:102850002146179A039800F095F9054404E03020CA
:102860005246179990476D1C0099481E0090002908
:10287000F5DC08E00298029952460078491C029162
:10288000179990476D1CBBF10001ABF1010BF1DC16
:102890005BE100F065F90544761C307800287FF490
:1028A0000DAE19B02846BDE8F08F000009280100E0
:1028B00030313233343536373839616263646566B6
:1028C0000000000030313233343536373839414278
:1028D0004344454600000000600700D4062708F185
:1028E000070020F00700F0E80223804603F0004CC8
:1028F0005FEA0C0001D097A009E0200501D596A061
:1029000005E0E00701D095A001E0AFF24C00139084
:10291000307823F0004365280CD006DC452809D028
:1029200046281DD047287FD13BE0662818D067286D
:102930007AD136E00021112F01DB112000E0781C54
:10294000CDE9000104A90CA8FFF7EEFCDDE90D01BB
:102950000C9A4FF0000B07F10109109200914EE024
:102960004FF000400097CDE9011004A90CA8FFF733
:10297000DBFCDDE90D020C9B0F994FF0000B91463B
:102980001093009211B9791C00EB0109B7EB090013
:1029900003D4C0F1FF3B07F10109A9EB0700019047
:1029A00042E0012F00DA01270021112F01DD112063
:1029B00000E03846CDE9000104A90CA8FFF7B4FCFB
:1029C000DDE90D010C9A00914FF0000BB946109211
:1029D00021070FD4009A4A4503DA914601E0A9F194
:1029E0000109B9F1010F05DD109AA9F10101515C4E
:1029F0003029F4D0B84202DA10F1040F03DA0121D1
:102A0000CDE9011010E0002803DC8344A9EB0001AC
:102A100002E0411C494500DD8946A0EB0B00401C4B
:102A200001904FF000400290200705D401984845DE
:102A300002DB4FF0FF30019000208DF84B00029830
:102A40000DF14B07B0F1004F25D002200C902B2048
:102A50000D90029800280CDA404202902D200D9033
:102A600007E00A210298FDF73DFD3031029007F89A
:102A7000011D0C99481E0C900029F2DC02980028D8
:102A8000EFD1791E0D980870307800F0200040F0EA
:102A9000450007F8020D11A8C01BC01D0290139835
:102AA000007800B1012000EB0901019801EBE07111
:102AB000029801440398401A401E0390E00306D494
:102AC00053462146179A039800F05CF80544139882
:102AD000007818B15246179990476D1CE00323D532
:102AE00053462146179A039800F04CF805441BE022
:102AF000BBF1000F07DB0098584504DD10981799CB
:102B000010F80B0001E017993020524690470198C9
:102B10000BF1010B401E05F10105019004D12E209F
:102B20005246179990476D1CB9F10001A9F10109AE
:102B3000DEDC05E017F8010B5246179990476D1C33
:102B40000299481E02900029F4DC53462146179A48
:102B500003989EE62D0000002B00000020000000DE
:102B60002DE9F041044600251E461746880404D48A
:102B700005E039462020B0476D1C641EF9D5284673
:102B8000BDE8F0812DE9F041044600251E4690463F
:102B9000C80301D5302700E02027880404D505E0CC
:102BA00041463846B0476D1C641EF9D52846BDE83D
:102BB000F081000010B501210B48FEF7ABFF0B4C74
:102BC0000020E06504206061206E042801D001200F
:102BD0002060FDF72DFEFDF767FEFDF7A3FEFDF774
:102BE000DDFE6069206610BD00140040100000206A
:102BF00070B50446064DE1B22846FFF76FFB802111
:102C00002846FFF7C7FA0028F9D0204670BD00001B
:102C10000010014010B501210A48FEF77BFF0A4869
:102C20000021C16501214161026E012A00D00160CD
:102C3000FDF712FEFDF74CFEFDF788FEBDE81040E3
:102C4000FDF7C0BE001400401000002010B52DEDAF
:102C5000048B9FED199B1A48C17B007C41EA002040
:102C6000FDF7C9FB9FED171B53EC112BFDF751FB33
:102C700053EC192BFDF74DFB41EC180B53EC192BC2
:102C800051EC180BFDF7FAFB0BD253EC192B51EC5E
:102C9000180BFDF738FBFDF7BFFBB438BDEC048B18
:102CA00010BD53EC182B51EC190BFDF72CFBFDF765
:102CB000B3FBC0F1B400F1E7000000000080664003
:102CC0001F010020000000000000003F10B501219E
:102CD0000B48FEF71FFF0B4C0020E06505206061EC
:102CE000206E052801D001202060FDF7B5FDFDF71D
:102CF000DBFDFDF72BFEFDF751FE6069206610BD80
:102D0000001400401000002010B501210B48FEF710
:102D100001FF0B4C0020E06503206061206E03285A
:102D200001D001202060FDF797FDFDF7BDFDFDF707
:102D3000F9FDFDF747FE6069206610BD00140040F4
:102D4000100000202DED048B86B0FEF765FBF6EE3B
:102D5000001A9FED638AF0EE080AB0EE481ADFED24
:102D6000618A6148B0EE680AFEF76CFA5E48F6EEDA
:102D7000001AB0EE481AF0EE080AB0EE680A2430E5
:102D8000FEF760FAF6EE001AB0EE481A9FED579A79
:102D90005548B0EE680AF0EE490A4830FEF752FA9C
:102DA0005148F6EE001AB0EE481AF0EE490AB0EEBD
:102DB000680A6C30FEF746FAFFF79EF8FEF758F8FF
:102DC000FEF73EF9FEF7C4F8FDF750FEFDF7B8FE3A
:102DD000FDF71EFFFDF798FFFFF71AF900F096F8D0
:102DE000FEF71AFBFEF770FBFEF7C4FB00F0ACF831
:102DF0004FF0010B3E4CFEF7F7FA012805D1FFF723
:102E000025FF01463BA0FFF76FFA6420FDF703FEA4
:102E1000A06CFDF720FB05460E46E06BFDF71BFBA3
:102E200007468846206BFDF716FB81468A46606A96
:102E3000FDF711FBCDE9009A41EC100BCDE90278CA
:102E4000CDE9045653EC102B2BA0FFF74DFAFEF7FB
:102E5000D7FA0128CFD12C480078012812D00228B7
:102E600019D0032820D0042827D005282ED00028E8
:102E7000C1D100F07DF8606E08B1C4F800B0002048
:102E80006066B8E7FFF7C6FE606E08B1C4F800B030
:102E900000206066AFE700F039F8606E08B1C4F852
:102EA00000B000206066A6E7FFF72EFF606E08B155
:102EB000C4F800B0002060669DE7FFF77BFE606EFF
:102EC00008B1C4F800B00020606694E7FFF7FEFE8A
:102ED000606E08B1C4F800B0002060668BE70000A7
:102EE00000000000000048438400002033333340DA
:102EF0001000002025640A0025662C25662C256616
:102F00002C25660A000000007F00002010B501217A
:102F10000B48FEF7FFFD0B4C0020E06502206061CE
:102F2000206E022801D001202060FDF781FCFDF712
:102F3000CFFCFDF70BFDFDF731FD6069206610BD8C
:102F4000001400401000002008488821017066210C
:102F5000417000218170C170017141718171C17135
:102F6000017275214172792181727047140100202C
:102F700010B500210A48FEF7CDFD0A4C0120E0659E
:102F800000216161216E01B12060FDF779FCFDF740
:102F9000B3FCFDF7EFFCFDF729FD6069206610BD6D
:102FA0000014004010000020C82F0008000000207E
:102FB00084000000082300084C3000088400002032
:102FC000B4040000182300080000000001020304FC
:102FD00001020304060708090000000000000000C9
:102FE00000000000000000000000000000000000E1
:102FF00000000000000000000000000000000000D1
:1030000000000000000000000000000000000000C0
:1030100000000000000000000000000000000000B0
:1030200000000000000000000000000000000000A0
:103030000000000000000000000000000000000090
:0C30400000000000000000000000000084
:040000050800018965
:00000001FF
