:020000040800F2
:1000000018050020A10100088509000881090008E1
:100010008309000875040008E51C000800000000C2
:10002000000000000000000000000000910E000829
:10003000C904000800000000990D000859110008CB
:10004000BB010008BB010008BB010008BB010008A0
:10005000BB010008BB010008BB010008BB01000890
:10006000BB010008BB010008BB010008BB01000880
:10007000BB010008BB010008BB010008BB01000870
:10008000BB010008BB010008BB010008BB01000860
:10009000BB010008BB010008BB010008BB01000850
:1000A000BB010008BB010008BB010008BB01000840
:1000B000BB010008BB010008BB010008BB01000830
:1000C000BB010008BB010008BB010008BB01000820
:1000D000BB010008951A0008C91A00084D1B00084A
:1000E000BB010008BB010008BB010008BB01000800
:1000F000BB010008BB010008BB010008BB010008F0
:10010000BB010008BB010008BB010008BB010008DF
:10011000BB010008BB010008BB01000891120008E8
:10012000BB010008BB010008BB010008BB010008BF
:10013000BB010008BB010008BB010008BB010008AF
:10014000BB010008BB010008BB010008BB0100089F
:10015000BB010008BB010008BB010008BB0100088F
:10016000BB010008BB010008BB010008BB0100087F
:10017000BB010008BB010008BB010008BB0100086F
:10018000BB010008BB010008DFF810D000F038F90F
:1001900000480047311D0008AFF30080180500201B
:1001A0000648804706480047FEE7FEE7FEE7FEE711
:1001B000FEE7FEE7FEE7FEE7FEE7FEE7691100085F
:1001C000890100082DE9FE4F81EA030404F0004490
:1001D00021F0004100944FF0000B23F0004350EA5F
:1001E00001045ED052EA03045BD0C3F30A54C1F3A6
:1001F0000A552C44A4F2F3340194A0FB0254C1F339
:10020000130141F48011C3F3130343F4801301FB82
:10021000024400FB034E840A970A44EA815447EAE9
:100220008357A4FB076802958D0A05FB07854FEAF3
:10023000932C04FB0C542705029D4FEA065847EA0D
:100240001637B5EB08056EEB070C870E920E47EAE2
:10025000811742EA8312A7FB0201B6EB0B0164EBA4
:1002600000042B0D43EA0C335E1844EB1C50DA46B5
:100270005146E7FB0201C5F313044FEA0B3343EA8F
:1002800014534FEA0432019C43EA0603A4F10C0420
:100290000294009CCDE900B400F064F803B0BDE81E
:1002A000F08F00200146F9E70EB5C10F80EAE0703B
:1002B0000844CA07002140F233438DE80E000A4685
:1002C0000B4600F04FF803B000BD70B5C1F30A5201
:1002D00001F000450024C1F3130140F2FF3341F463
:1002E00080119A4201DA002070BD40F233439A42F5
:1002F000A2F2334203DC524200F015F800E09040D5
:100300002C43F1D0404270BD202A04DB203A00FA91
:1003100002F1002070479140C2F1200320FA03F35C
:10032000194390407047202A04DB203A21FA02F05A
:100330000021704721FA02F3D040C2F1200291401F
:1003400008431946704710B5141E73F1000408DA0B
:10035000401C41F1000192185B411A4301D120F089
:10036000010010BD2DE9F04D92469B4611B1B1FA46
:1003700081F202E0B0FA80F220329046FFF7C4FF2B
:1003800004460F4640EA0A0041EA0B0153465A462A
:10039000084313D0114653EA010019D0C8F14002B6
:1003A0005046FFF7C0FF05460E46504659464246A6
:1003B000FFF7AAFF084305D0012004E02046394694
:1003C000BDE8F08D0020054346EAE0762C43374334
:1003D0000A986305E40AA0EB08000022FD0A44EA3B
:1003E00047540A3002D500200146E9E701051019FB
:1003F0006941DDE9084500196941BDE8F04DA2E712
:10040000064C074D06E0E06840F0010394E8070061
:1004100098471034AC42F6D3FFF7BAFEC81D000867
:10042000E81D000810B5074C01220821204600F005
:1004300073FA00221021204600F06EFA02490120D2
:10044000486410BD001402401000002010B5074C95
:1004500001222021204600F05FFA002240212046A0
:1004600000F05AFA02490120886410BD00140240CD
:1004700010000020FEE7000010B5074C002202210A
:10048000204600F049FA01220421204600F044FAF7
:1004900002490120C86410BD001402401000002071
:1004A00010B5074C01228021204600F035FA0022C9
:1004B000A115204600F030FA02490120086510BD60
:1004C0000014024010000020704700B502464FF4AF
:1004D0007A7302E0184600F004F8521E501CF9D15D
:1004E00000BD00EBC000C1004FF0E02041610021E1
:1004F0008161052101610169C903FCD50421016104
:100500007047000070B5054D284601F034F804B27C
:100510000021284601F094F9204670BD00080040F3
:1005200030B589B00121042000F046FC01210220F1
:1005300000F034FCC020079002208DF8200003203A
:100540008DF8210000248DF823408DF82240204DA5
:1005500007A9284600F08EF902220621284600F05D
:10056000C7F902220721284600F0C2F94FF6FE70B3
:100570000590ADF81040ADF81240ADF818408DF878
:100580001A40144D04A9284601F084F901A801F08D
:1005900031F8ADF804400F24ADF80C4001A928460D
:1005A00000F0F7FF0421ADF80410ADF80C4001A9EC
:1005B000284600F0EEFF00231A460321284600F0EB
:1005C000C1FF0121284600F0B1FF09B030BD000095
:1005D000000402400008004070B5054D284600F0B8
:1005E000CAFF04B20021284601F02AF9204670BD56
:1005F000000C004030B589B00121082000F0DCFB80
:100600000121084600F0CAFB0320079002218DF863
:1006100020108DF8210000248DF823408DF8224011
:100620001F4D07A9284600F025F90222002128467F
:1006300000F05EF902220121284600F059F94FF638
:10064000FE700590ADF81040ADF81240ADF81840BE
:100650008DF81A40134D04A9284601F01BF901A892
:1006600000F0C8FFADF804400F24ADF80C4001A91C
:10067000284600F08EFF0421ADF80410ADF80C40C0
:1006800001A9284600F085FF00231A4603212846C9
:1006900000F058FF0121284600F048FF09B030BDA6
:1006A00000000240000C004070B54FF08045284625
:1006B00000F061FF04B20021284601F0C1F8204695
:1006C00070BD0000F0B589B00121084600F074FB50
:1006D0000121084600F062FB0121022000F05EFBD0
:1006E0002020079002268DF8206003258DF82150E8
:1006F00000248DF823408DF82240274F07A9384663
:1007000000F0B8F8082007908DF820608DF821508F
:100710008DF823408DF82240204D07A9284600F08F
:10072000A9F801220521384600F0E2F80122032150
:10073000284600F0DDF84FF6FE700590ADF8104049
:10074000ADF81240ADF818408DF81A402D0504A9F7
:10075000284601F09FF801A800F04CFFADF80440D6
:100760000F24ADF80C4001A9284600F012FF042127
:10077000ADF80410ADF80C4001A9284600F009FFBF
:1007800000231A460321284600F0DCFE01212846FA
:1007900000F0CCFE09B0F0BD0000024000040240B1
:1007A00070B5054D284600F0E6FE04B2002128464B
:1007B00001F046F8204670BD0004014030B589B014
:1007C0000121022000F006FB0121042000F0E6FADE
:1007D000C020079002208DF8200003208DF8210012
:1007E00000248DF823408DF82240204D07A928468B
:1007F00000F040F803220621284600F079F8032291
:100800000721284600F074F84FF6FE700590ADF809
:100810001040ADF81240ADF818408DF81A40144D54
:1008200004A9284601F036F801A800F0E3FEADF86F
:1008300004400F24ADF80C4001A9284600F0A9FEA1
:100840000421ADF80410ADF80C4001A9284600F0D1
:10085000A0FE00231A460321284600F073FE012162
:10086000284600F063FE09B030BD000000080240D9
:10087000000401402DE9F041002201274FF0030C54
:1008800007FA02F50B682B40AB422CD106685300E7
:100890000CFA03F4A64306600E79D0F800809E405F
:1008A00046EA080606600E79012E01D0022E12D10A
:1008B0008668A64386604E79D0F808809E4046EA56
:1008C000080686604668AE43466045688E79964065
:1008D000B6B235434560C568A543C560CC799C4038
:1008E000C3681C43C460521C102AC9D3BDE8F08100
:1008F00010B54B07DB0E9A40C90800EB8100016A76
:100900000F249C40A1430162016A1143016210BDA2
:100910004183704701837047002A01D001837047EB
:10092000418370477CB50121402000F037FA012453
:100930008DF8044000268DF80660200200908DF8A6
:10094000074002258DF8055069460B48FFF792FFD6
:100950000121202000F022FA8DF804408DF8066075
:1009600040F2FF1000908DF807408DF80550694661
:100970000248FFF77FFF7CBD0018024000140240D0
:10098000FEE7FEE77047000030B50F23C27801256F
:100990000178002A1FD0154A126802F4E062C2F5FD
:1009A000E062C2F30722C2F10404D3404278A240BD
:1009B00084781C401443220101F1E02181F80024D5
:1009C000007800F01F018D404009800000F1E02018
:1009D000C0F8005130BD01F01F008540480980007B
:1009E00000F1E020C0F8805130BD00000CED00E0C7
:1009F0000249084302490860704700000000FA05F8
:100A00000CED00E070B50025002105F1B00000F00C
:100A100001F90021084600F0FDF80021102000F047
:100A2000F9F800240121002000F0F4F8641CE4B27D
:100A3000802CF7D36D1CEDB2082DE5D370BD0000FE
:100A400070B5114D4FF4805421462846FFF762FFE0
:100A50000420FFF746FD660031462846FFF75AFF9F
:100A60000420FFF73EFD31462846FFF751FF0420E2
:100A7000FFF737FD21462846FFF74AFFBDE87040E3
:100A80000420FFF72EBD00000004024070B50D4C9D
:100A90004FF480512046FFF73DFF0420FFF721FD72
:100AA0004FF4005529462046FFF732FF0420FFF798
:100AB00018FD29462046FFF72DFFBDE870400420B1
:100AC000FFF70FBD0004024070B5094D4FF480548C
:100AD00021462846FFF71EFF0420FFF702FD2146AE
:100AE0002846FFF715FFBDE870400420FFF7F9BC6A
:100AF000000402407CB50121022000F04FF94FF4C0
:100B00004054009401208DF8040000228DF8062046
:100B10008DF8070002208DF805003D4D69462846F6
:100B2000FFF7A8FE21462846FFF7F4FE4FF4487071
:100B3000FFF7CBFC0021AE2000F06CF80021084646
:100B400000F068F80021102000F064F80021402037
:100B500000F060F80021B02000F05CF80021812056
:100B600000F058F80021FF2000F054F80021A120E7
:100B700000F050F80021A62000F04CF80021A82039
:100B800000F048F800213F2000F044F80021C82080
:100B900000F040F80021D32000F03CF80021084686
:100BA00000F038F80021D52000F034F80021802032
:100BB00000F030F80021D82000F02CF800210520AA
:100BC00000F028F80021D92000F024F80021F120BD
:100BD00000F020F80021DA2000F01CF8002112209B
:100BE00000F018F80021DB2000F014F8002130207C
:100BF00000F010F800218D2000F00CF800211420E6
:100C000000F008F80021AF2000F004F87CBD0000DF
:100C100000040240002902D0C0B200F056B8C0B2B1
:100C200000F03CB82DE9F04104461B4F4FF48056CC
:100C300031463846FFF76CFE0420FFF752FC0025D2
:100C40004FF4005804F0800080281CD041463846FC
:100C5000FFF75EFE0420FFF744FC6006040E3146F9
:100C60003846FFF757FE0420FFF73BFC3146384675
:100C7000FFF74EFE0420FFF734FC6D1CEDB2082D8B
:100C8000E0D3BDE8F08141463846FFF743FE04203B
:100C9000FFF727FCE1E700000004024010B504461E
:100CA000FFF7CEFE7820FFF7BDFFFFF70DFF002016
:100CB000FFF7B8FFFFF708FF2046FFF7B3FFFFF786
:100CC00003FFBDE81040FFF7E1BE10B50446FFF793
:100CD000B7FE7820FFF7A6FFFFF7F6FE4020FFF7EC
:100CE000A1FFFFF7F1FE2046FFF79CFFFFF7ECFEA8
:100CF000BDE81040FFF7CABE80ED000A9FED0C0A68
:100D000080ED010A80ED020ADFED0A0AC0ED030A58
:100D1000F7EE080AC0ED040AF6EE000AC0ED050A77
:100D200080ED060A80ED070A80ED080A7047000092
:100D300000000000CDCC8C3F90ED001A31EE400A4F
:100D400080ED060AD0ED020A70EE801AC0ED021A9C
:100D5000D0ED030A90ED042A60EE800A42EE210AEB
:100D6000D0ED071A90ED052A70EE611A42EE210AC5
:100D7000C0ED010A80ED070A10EE901A054A914273
:100D800001DB80ED011A90ED010ABDEEC00AB8EE5C
:100D9000C00A70470000484470470000054A002917
:100DA00003D01168014311607047116881431160DD
:100DB0007047000030380240054A002903D011680E
:100DC0000143116070471168814311607047000052
:100DD00040380240054A002903D0116801431160E0
:100DE0007047116881431160704700004438024029
:100DF00070B5244B196801F00C01234C00291ED05A
:100E0000661004291DD008291DD00460196801F05E
:100E1000F00109091D4A545C0168E14041601C6809
:100E200004F4E054A40A145D21FA04F484601B68FD
:100E300003F460435B0BD25CD140C16070BD0460C1
:100E4000E4E70660E2E70F4A121F1168C1F380551C
:100E5000116801F03F0135B1B6FBF1F11468C4F33C
:100E60008814614305E0B4FBF1F11468C4F38814FD
:100E700061431268C2F30142521C5200B1FBF2F10D
:100E80000160C3E7083802400024F400000000209D
:100E90007047000070B588B001210846FFF77EFF5B
:100EA00001211020FFF796FF244E0722092130462A
:100EB000FFF71EFD07220A213046FFF719FD4FF408
:100EC000C061069102218DF81C108DF81D100024C0
:100ED0008DF81E4001258DF81F5006A93046FFF7FA
:100EE000C9FC4FF4E1300290ADF80C40ADF80E4073
:100EF000ADF81040ADF814400C20ADF81200104CC5
:100F000002A9204600F08CFE012240F22551204625
:100F100000F06AFE25218DF8041003218DF80510DC
:100F20008DF806108DF8075001A8FFF72DFD01215F
:100F3000204600F02DFE08B070BD00000000024009
:100F40000010014070B588B001210820FFF726FF8E
:100F500001214804FFF730FF234E072205213046C8
:100F6000FFF7C6FC072206213046FFF7C1FC6021CF
:100F7000069102218DF81C108DF81D1000248DF8AB
:100F80001E4001258DF81F5006A93046FFF772FC60
:100F90004FF4E1300290ADF80C40ADF80E40ADF8E2
:100FA0001040ADF814400C20ADF812000F4C02A90F
:100FB000204600F035FE012240F22551204600F087
:100FC00013FE26218DF8041003218DF805108DF8ED
:100FD00006108DF8075001A8FFF7D6FC0121204626
:100FE00000F0D6FD08B070BD000C02400044004087
:100FF00070B588B001210220FFF7D0FE01218804DE
:10100000FFF7DAFE244E07220A213046FFF770FC74
:1010100007220B213046FFF76BFC4FF4406106912D
:1010200002218DF81C108DF81D1000248DF81E4033
:1010300001258DF81F5006A93046FFF71BFC4FF421
:10104000E1300290ADF80C40ADF80E40ADF8104024
:10105000ADF814400C20ADF81200104C02A9204647
:1010600000F0DEFD012240F22551204600F0BCFDDB
:1010700027218DF8041003218DF805108DF8061036
:101080008DF8075001A8FFF77FFC0121204600F0F2
:101090007FFD08B070BD0000000402400048004021
:1010A0000CB50022019200922749086840F4803074
:1010B00008604FF4A063086800F4003000900198C5
:1010C000401C0190009810B901989842F3D108682B
:1010D000800302D50120009000E0009200980128D2
:1010E00031D119484030026842F0805202601748FE
:1010F000026842F4804202601348083002680260CD
:10110000026842F400420260026842F4A0520260A7
:10111000021F0F4B13600A6842F080720A600A686F
:101120009201FCD50B4A40F205611160016821F083
:1011300003010160016841F0020101600168C1F32F
:1011400081010229FAD10CBD003802400070004034
:1011500008544007003C024002484168491C416075
:10116000704700001000002010B51248016841F4DB
:10117000700101601048016841F0010101600E4AF0
:1011800000210832116002680C4B1A400260031DF6
:101190000B4A1A60026822F48022026006480C3072
:1011A0000160FFF77DFF03494FF000608039086060
:1011B00010BD000088ED00E000380240FFFFF6FEA1
:1011C0001030002470B5048C24F001040484058BD5
:1011D000048C25F0F3054FF6FF7606EA031313435C
:1011E0002B4324F00A020A4342F0010103830184E5
:1011F00070BD70B5048C24F010040484058B068C3B
:101200004FF6FF7404EA011125F4734504EA033331
:101210002B4304EA02221A4326F0A0030B4343F0B7
:1012200010010283018470BDF0B5048C24F4807435
:101230000484868B058C4FF6FF7707EA012426F09D
:10124000F30607EA03111143314325F420622243D8
:1012500042F4807281830284F0BD70B5048C24F462
:1012600080540484858B068C4FF6FF7404EA0131A8
:1012700025F4734504EA02222A4304EA03331343A4
:1012800026F420420A4342F480518383018470BDD6
:101290002DE9F041DFF84C820121404600F06DF964
:1012A000012871D1904C0027606D01280AD1676533
:1012B00020609FED8E0A8E48FFF71EFD00218D48AD
:1012C00000F0BEFAFFF788F96061FFF7EDF92062E0
:1012D000FFF718F9E062FFF763FAA0632169491C80
:1012E00021616169C1EBC106E661216AC1EBC101FF
:1012F000A162E16AC1EBC1016163C0EBC00020647F
:101300004FF47A7096FBF0F0FEF7CEFF9FED7A1B5C
:1013100053EC112BFEF756FFFEF7D7FFA0602068B5
:1013200000287CD1764D002E02DD606C012807D0AC
:10133000002E1DDA606C03280DD001280BD017E0B9
:10134000012208212846FFF7E7FA0022102128464B
:10135000FFF7E2FA0CE0002208212846FFF7DCFA4A
:10136000012210212846FFF7D7FAE0694042E061E8
:10137000A06A002802DDA16C012906D000281CDA31
:10138000A06C03280CD018E0A9E0012220212846F7
:10139000FFF7C2FA002240212846FFF7BDFA0CE011
:1013A000002220212846FFF7B7FA012240212846D3
:1013B000FFF7B2FAA06A4042A062606B002802DD2B
:1013C000E16C012905D000281BDAE06C03280BD062
:1013D00017E0002202212846FFF79EFA012204218D
:1013E0002846FFF799FA0CE0012202212846FFF770
:1013F00093FA002204212846FFF78EFA606B4042E0
:101400006063206C4FF48076002802DD216D012995
:1014100006D000281CDA206D03280CD018E057E015
:10142000012280212846FFF777FA0022314628461C
:10143000FFF772FA0CE0002280212846FFF76CFAD1
:10144000012231462846FFF767FA206C40422064AB
:1014500094ED070A2648B8EEC00AFFF76DFCBDEE12
:10146000C00A84ED060A94ED0A0A2148B8EEC00AC3
:101470002430FFF761FCBDEEC00A84ED090A94ED4B
:101480000D0A1B48B8EEC00A4830FFF755FCBDEE08
:10149000C00A84ED0C0A94ED100A1548B8EEC00A93
:1014A0006C30FFF749FCBDEEC00A84ED0F0A154D04
:1014B000A169284600F0BEF92846616A00F0BCF92F
:1014C0002846216B00F0B4F92846E16B00F0B6F92C
:1014D00027604046BDE8F041012100F024B8BDE896
:1014E000F081000000140040100000200000000007
:1014F00070000020000C0040397AA125B4D15C4076
:101500000014024000040040002904D0018841F08A
:10151000800101807047018821F0800101807047BF
:10152000C94301827047C94301827047002904D032
:10153000018841F0010101807047018821F001011B
:101540000180704770B50589048B068C25F007056E
:101550000D434FF6FC410C4040F201110C4326F0C4
:1015600022064FF6FF7101EA031111433143058151
:101570000483018470BD406A704702460020138ACC
:101580000B4092890A40002B02D0002A00D0012093
:10159000704770B506460C4625886188A288238965
:1015A000002D0CD0042D13D0082D1AD03046FFF793
:1015B00054FEE1883046BDE8704000F05FB9304627
:1015C000FFF700FEE1883046BDE8704000F03AB910
:1015D0003046FFF70EFEE1883046BDE8704000F06F
:1015E00039B93046FFF720FEE1883046BDE870404B
:1015F00000F03CB900210180418001228280C1803D
:1016000001817047002A03D082890A438281704792
:1016100082898A438281704730B5028C22F00102B0
:101620000284058C8388028B22F0700222F0030270
:101630000C88144325F002028D8915434A882A43F9
:101640000D4DA84202D00D4DA8420FD122F0080541
:10165000CA892A4322F004058A882A4323F4807326
:1016600023F400730D8A1D434B8A2B43838004832C
:1016700089684163028430BD0000014000040140DC
:10168000028B22F008020A430283704770B5028C75
:1016900022F010020284028C8388048B24F4E0443C
:1016A00024F440760D884FF6FF7404EA052535438F
:1016B00022F020028E8904EA061616434A8804EABC
:1016C00002123243114EB04202D0114EB04217D135
:1016D00022F08002CE8904EA0616164326F0400660
:1016E0008A8804EA0212324323F4806323F40063FD
:1016F0000E8A04EA86061E434B8A04EA83033343B8
:101700008380058389688163028470BD0000014085
:1017100000040140028B22F400624FF6FF7303EADB
:10172000012111430183704770B5028C22F480724D
:101730000284028C8388848B24F0700424F00304D8
:101740000D88254322F400728E894FF6FF7404EA57
:10175000062616434A8804EA02223243114EB0425A
:1017600002D0114EB04217D122F40066CA8904EAB1
:101770000222324322F480668A8804EA022232433B
:1017800023F4805323F400530E8A04EA06161E4302
:101790004B8A04EA03133343838085838968C163DA
:1017A000028470BD0000014000040140828B22F0E1
:1017B00008020A438283704770B5028C22F480527B
:1017C0000284058C8288838B23F4E04323F44076E3
:1017D0000C884FF6FF7303EA0424344325F40055C4
:1017E0008E8903EA06362E434D8803EA05353543D4
:1017F000084EB04202D0084EB04205D122F48046D5
:101800000A8A03EA821232438280848389680164EF
:10181000058470BD0000014000040140828B22F469
:1018200000624FF6FF7303EA012111438183704781
:101830004163704781637047C163704701647047BB
:1018400041627047028B22F00C020283028B0A4332
:1018500002837047028B22F440620283028B4FF6B0
:10186000FF7303EA01210A4302837047828B22F04F
:101870000C028283828B0A4382837047828B22F41C
:1018800040628283828B4FF6FF7303EA01210A4391
:101890008283704730B50288164C174DA0420DD098
:1018A000A8420BD0B0F1804F08D0144B984205D01D
:1018B000134B984202D0134B984203D122F070038D
:1018C0004A881A43104B984206D0104B984203D0D6
:1018D00022F440730A891A4302804A68C2620A8865
:1018E0000285A04201D0A84201D1897A0186012156
:1018F000818230BD0000014000040140000400402E
:1019000000080040000C004000100040001400409F
:10191000F0B58BB001210220FFF74EFA01210846F5
:10192000FFF73CFA01210220FFF738FA3B4F022271
:1019300006213846FEF7DCFF022207213846FEF773
:10194000D7FFC020099002258DF828508DF8295026
:1019500000248DF82A4001268DF82B6009A938460D
:10196000FEF788FF2E4F022200213846FEF7C0FF07
:10197000022201213846FEF7BBFF032009908DF8B3
:1019800028508DF829508DF82A408DF82B6009A930
:101990003846FEF76FFF4720ADF81800ADF81A4043
:1019A00040F2E7300790ADF820401E4D06A92846CA
:1019B000FFF770FF6021ADF80410ADF80660ADF8D8
:1019C0001040C821039101A92846FFF725FE0821F0
:1019D0002846FFF755FE01A92846FFF757FE0821C4
:1019E0002846FFF797FE01A92846FFF79DFE08212C
:1019F0002846FFF7DBFE01A92846FFF7DDFE082198
:101A00002846FFF70BFF01212846FFF77DFD012146
:101A10002846FFF78BFD0BB0F0BD00000000024030
:101A200000040240000400407FB501212020FFF7A0
:101A3000C3F9C720029041F61F40ADF8040000240E
:101A4000ADF80640ADF80C40114D01A92846FFF74E
:101A500021FF01212846FFF763FD01221146284698
:101A6000FFF7D0FD4FF44070FEF7C2FF37218DF82D
:101A700000108DF801408DF8024001218DF803100F
:101A80006846FEF781FF00212846FFF74FFD7FBD26
:101A90000014004070B50A4D40F2255631462846E4
:101AA00000F082F801280AD1284600F017F9054C09
:101AB00020703146284600F063F80120607070BD48
:101AC000001001406800002070B51D4C40F2255503
:101AD0002946204600F068F801282FD1204600F062
:101AE000FDF8C2B21748C27003780026012133B155
:101AF000012B0BD0022B0ED0032B17D018E0552A48
:101B000016D18278A2B90170467011E0522A0FD125
:101B1000022101700CE00C494378CA545B1CDAB214
:101B20004270132A04D10321017001E00670817014
:101B300029462046BDE8704000F022B870BD000084
:101B4000004400406A0000200001002070B50A4DEA
:101B500040F225563146284600F026F801280AD1E1
:101B6000284600F0BBF8054C60703146284600F06E
:101B700007F80120207070BD004800406E00002072
:101B800040F66A120A0A01219140C9430180704758
:101B9000002904D0818941F40051818170478189F5
:101BA00021F400518181704770B5002440F66A121B
:101BB000C1F3421301F01F05012606FA05F2012BBD
:101BC0000CD0022B0DD0838A1340090A8E40008866
:101BD00030400BB100B10124204670BD8389134011
:101BE000F3E7038A1340F0E710B540F66A13C1F338
:101BF000421301F01F040121A140012B07D0022B49
:101C000007D014303AB102680A43026010BD0C30AC
:101C1000F8E71030F6E702688A43026010BD000062
:101C20007FB504460D46208A20F44051E8880843D9
:101C30002082A08941F20C618843A9882A89114336
:101C40006A8902431143A181A08A20F44071A889C6
:101C50000843A0826846FFF7CBF81E48844202D0B2
:101C60001D48844201D1039800E00298A18909042B
:101C700008D500EBC00101EB001029684900B0FB5A
:101C8000F1F007E000EBC00101EB001029688900CA
:101C9000B0FBF1F06422B0FBF2F109010B096FF027
:101CA00018056B4300EB8300A3891D044FF032033A
:101CB00007D503EBC000B0FBF2F000F007000843CB
:101CC00006E003EB0010B0FBF2F000F00F00084359
:101CD00020817FBD00100140001401408088C0F3C6
:101CE00008007047FEE702E008C8121F08C1002A7A
:101CF000FAD170477047002001E001C1121F002A8D
:101D0000FBD1704710B501210748FFF70FFC0749C9
:101D100001200860FEF786FBFEF798FBFEF7ACFBA0
:101D2000BDE81040FEF7BCBB0014004010000020CE
:101D30002DED028BFFF7AEF89FED208A2048B0EE24
:101D4000480AFEF7D9FF1E48B0EE480A2430FEF7D5
:101D5000D3FF1B48B0EE480A4830FEF7CDFF1848C5
:101D6000B0EE480A6C30FEF7C7FFFFF7D1FDFEF773
:101D7000D9FDFEF7BFFEFEF745FEFEF7D1FBFEF7ED
:101D800039FCFEF79FFCFEF719FDFFF74DFEFFF74C
:101D900081F8FFF7D7F8FFF72BF941F288360125D4
:101DA000084C4CF25037FFF7ADFF3046FEF78DFB85
:101DB000656525603846FEF788FBF4E70000484378
:101DC0007000002010000020E81D00080000002026
:101DD00070000000E61C0008581E0008700000207B
:101DE000A8040000F61C0008000000000102030423
:101DF00001020304060708090000000000000000BB
:101E000000000000000000000000000000000000D2
:101E100000000000000000000000000000000000C2
:101E200000000000000000000000000000000000B2
:101E300000000000000000000000000000000000A2
:101E40000000000000000000000000000000000092
:081E500000000000000000008A
:040000050800018965
:00000001FF
