:020000040800F2
:1000000010040020A1010008C9030008C50300086E
:10001000C7030008E9010008B10E00080000000055
:10002000000000000000000000000000A10800081F
:10003000EB01000800000000650800085D090008E9
:10004000BB010008BB010008BB010008BB010008A0
:10005000BB010008BB010008BB010008BB01000890
:10006000BB010008BB010008BB010008BB01000880
:10007000BB010008BB010008BB010008BB01000870
:10008000BB010008BB010008BB010008BB01000860
:10009000BB010008BB010008BB010008BB01000850
:1000A000BB010008BB010008BB010008BB01000840
:1000B000BB010008BB010008BB010008BB01000830
:1000C000BB010008BB010008BB010008BB01000820
:1000D000BB010008250E0008BB010008BB01000899
:1000E000BB010008BB010008BB010008BB01000800
:1000F000BB010008BB010008BB010008BB010008F0
:10010000BB010008BB010008BB010008BB010008DF
:10011000BB010008BB010008BB010008950A0008EC
:10012000BB010008BB010008BB010008BB010008BF
:10013000BB010008BB010008BB010008BB010008AF
:10014000BB010008BB010008BB010008BB0100089F
:10015000BB010008BB010008BB010008BB0100088F
:10016000BB010008BB010008BB010008BB0100087F
:10017000BB010008BB010008BB010008BB0100086F
:10018000BB010008BB010008DFF810D000F01AF82E
:1001900000480047D10E0008AFF300801004002093
:1001A0000648804706480047FEE7FEE7FEE7FEE711
:1001B000FEE7FEE7FEE7FEE7FEE7FEE76D09000863
:1001C00089010008064C074D06E0E06840F0010395
:1001D00094E8070098471034AC42F6D3FFF7D8FFF5
:1001E0005C1700087C170008FEE7704700B5024660
:1001F0004FF47A7302E0184600F004F8521E501CC7
:10020000F9D100BD00EBC000C1004FF0E02041611A
:1002100000218161052101610169C903FCD5042127
:100220000161704770B588B00121022000F02AFBFF
:100230000121084600F018FBC020069002208DF82E
:100240001C0003208DF81D0000248DF81F408DF840
:100250001E40204D06A9284600F042F80222062141
:10026000284600F07BF802220721284600F076F8A5
:100270004FF6FE700490ADF80C40ADF80E40ADF8AE
:1002800014408DF81640144D03A9284600F004FDD3
:10029000684600F08DFCADF800400F24ADF8084032
:1002A0000E4E6946304600F052FC0421ADF80010B5
:1002B000ADF808406946304600F049FC00231A4674
:1002C0000321284600F01CFC0121284600F00CFC0C
:1002D00008B070BD00000240000400400000014072
:1002E0002DE9F041002201274FF0030C07FA02F537
:1002F0000B682B40AB422CD1066853000CFA03F478
:10030000A64306600E79D0F800809E4046EA0806B3
:1003100006600E79012E01D0022E12D18668A64306
:1003200086604E79D0F808809E4046EA08068660CE
:100330004668AE43466045688E799640B6B235430E
:100340004560C568A543C560CC799C40C3681C4323
:10035000C460521C102AC9D3BDE8F08110B54B0708
:10036000DB0E9A40C90800EB8100016A0F249C4013
:10037000A1430162016A1143016210BD41837047CC
:1003800001837047002A01D0018370474183704781
:100390001CB50121402000F067FA01208DF804000F
:1003A00000218DF80610010200918DF8070002204F
:1003B0008DF8050069460248FFF792FF1CBD00005A
:1003C00000180240FEE7FEE77047000030B50F233B
:1003D000C27801250178002A1FD0154A126802F45C
:1003E000E062C2F5E062C2F30722C2F10404D34026
:1003F0004278A24084781C401443220101F1E0219C
:1004000081F80024007800F01F018D404009800031
:1004100000F1E020C0F8005130BD01F01F00854020
:100420004809800000F1E020C0F8805130BD000094
:100430000CED00E0024908430249086070470000E3
:100440000000FA050CED00E070B50025002105F173
:10045000B00000F095F90021084600F091F9002164
:10046000102000F08DF900240121002000F088F90F
:10047000641CE4B2802CF7D36D1CEDB2082DE5D3DB
:1004800070BD000070B5114D4FF4805421462846D0
:10049000FFF776FF0420FFF7B5FE660031462846D9
:1004A000FFF76EFF0420FFF7ADFE31462846FFF749
:1004B00065FF0420FFF7A6FE21462846FFF75EFFF2
:1004C000BDE870400420FFF79DBE0000000402401C
:1004D00070B50D4C4FF480512046FFF751FF0420BA
:1004E000FFF790FE4FF4005529462046FFF746FFE0
:1004F0000420FFF787FE29462046FFF741FFBDE8AD
:1005000070400420FFF77EBE0004024070B5094D24
:100510004FF4805421462846FFF732FF0420FFF7AE
:1005200071FE21462846FFF729FFBDE870400420F0
:10053000FFF768BE000402407CB50121022000F0F4
:1005400093F94FF44054009401208DF804000022E8
:100550008DF806208DF8070002208DF805003D4D2E
:1005600069462846FFF7BCFE21462846FFF708FFEC
:100570004FF44870FFF73AFE0021AE2000F000F97A
:100580000021084600F0FCF80021102000F0F8F8E7
:100590000021402000F0F4F80021B02000F0F0F835
:1005A0000021812000F0ECF80021FF2000F0E8F8A5
:1005B0000021A12000F0E4F80021A62000F0E0F8DE
:1005C0000021A82000F0DCF800213F2000F0D8F83E
:1005D0000021C82000F0D4F80021D32000F0D0F88A
:1005E0000021084600F0CCF80021D52000F0C8F822
:1005F0000021802000F0C4F80021D82000F0C0F8CD
:100600000021052000F0BCF80021D92000F0B8F846
:100610000021F12000F0B4F80021DA2000F0B0F859
:100620000021122000F0ACF80021DB2000F0A8F837
:100630000021302000F0A4F800218D2000F0A0F867
:100640000021142000F09CF80021AF2000F098F861
:100650007CBD00000004024010B50446084600219D
:10066000B03000F08DF8102040EA1410002100F0A6
:1006700087F804F00F00BDE81040002100F080B8BA
:100680002DE9F04180460F460024203AD5B2B8F15A
:100690007F0F02D9A046BF1CFFB2102B12D03946E3
:1006A0004046FFF7D9FF184905EB450001EB40052F
:1006B0000121285D00F064F8641CE4B2062CF7D335
:1006C000BDE8F08139464046FFF7C6FF0F4E04EB08
:1006D00005100121305C00F053F8641CE4B2082CD2
:1006E000F5D37F1CF9B24046FFF7B6FF002404EBB8
:1006F000051030440121007A00F042F8641CE4B295
:10070000082CF4D3DCE70000440F00086C1100084B
:100710002DE9F05F8046DDF828A08B4691461D4606
:10072000002600244FEA5A071DE0281B401EC1B2D4
:100730000A2000F0FFFBB9FBF0F00A21B0FBF1F258
:1007400001FB120026B9691E8C4201DA78B101263C
:100750003030C2B207FB0480C0B253465946FFF79F
:100760008FFF641CE4B2AC42DFD3BDE8F09F07FB0F
:100770000480C0B2534620225946FFF781FFF0E7BC
:10078000002902D0C0B200F056B8C0B200F03CB8A8
:100790002DE9F04104461B4F4FF480563146384650
:1007A000FFF7ECFD0420FFF72DFD00254FF4005866
:1007B00004F0800080281CD041463846FFF7DEFD5B
:1007C0000420FFF71FFD6006040E31463846FFF790
:1007D000D7FD0420FFF716FD31463846FFF7CEFD62
:1007E0000420FFF70FFD6D1CEDB2082DE0D3BDE82E
:1007F000F08141463846FFF7C3FD0420FFF702FDB4
:10080000E1E700000004024010B50446FFF73AFE9D
:100810007820FFF7BDFFFFF779FE0020FFF7B8FF54
:10082000FFF774FE2046FFF7B3FFFFF76FFEBDE84A
:100830001040FFF74DBE10B50446FFF723FE7820A9
:10084000FFF7A6FFFFF762FE4020FFF7A1FFFFF7CB
:100850005DFE2046FFF79CFFFFF758FEBDE8104005
:10086000FFF736BE70470000054A002903D0116823
:1008700001431160704711688143116070470000A7
:1008800030380240054A002903D011680143116045
:100890007047116881431160704700004038024082
:1008A000704700000CB500220192009227490868A9
:1008B00040F4803008604FF4A063086800F4003012
:1008C00000900198401C0190009810B9019898423E
:1008D000F3D10868800302D50120009000E0009267
:1008E0000098012831D119484030026842F0805206
:1008F00002601748026842F48042026013480830E0
:1009000002680260026842F400420260026842F437
:10091000A0520260021F0F4B13600A6842F08072FF
:100920000A600A689201FCD50B4A40F20561116029
:10093000016821F003010160016841F002010160DA
:100940000168C1F381010229FAD10CBD00380240CF
:100950000070004008544007003C024002484168D3
:10096000491C4160704700000000002010B512488B
:10097000016841F4700101601048016841F0010113
:1009800001600E4A00210832116002680C4B1A40C7
:100990000260031D0B4A1A60026822F48022026082
:1009A00006480C300160FFF77DFF03494FF00060FF
:1009B0008039086010BD000088ED00E0003802407A
:1009C000FFFFF6FE1030002470B5048C24F0010403
:1009D0000484058B048C25F0F3054FF6FF7606EAB8
:1009E000031313432B4324F00A020A4342F001018C
:1009F0000383018470BD70B5048C24F0100404845A
:100A0000058B068C4FF6FF7404EA011125F473453B
:100A100004EA03332B4304EA02221A4326F0A0031C
:100A20000B4343F010010283018470BDF0B5048CC8
:100A300024F480740484868B058C4FF6FF7707EAD4
:100A4000012426F0F30607EA03111143314325F48C
:100A50002062224342F4807281830284F0BD70B52B
:100A6000048C24F480540484858B068C4FF6FF7428
:100A700004EA013125F4734504EA02222A4304EA18
:100A80000333134326F420420A4342F48051838304
:100A9000018470BD10B5094C0121204600F04BF8CF
:100AA000012809D106488168491C81602046BDE8BB
:100AB0001040012100F015B810BD000000140040E6
:100AC00000000020002904D0018841F0800101804D
:100AD0007047018821F0800101807047C94301827D
:100AE0007047C94301827047002904D0018841F052
:100AF000010101807047018821F0010101807047E8
:100B000070B50589048B068C25F007050D434FF65B
:100B1000FC410C4040F201110C4326F022064FF636
:100B2000FF7101EA031111433143058104830184FC
:100B300070BD406A704702460020138A0B409289BC
:100B40000A40002B02D0002A00D00120704770B567
:100B500006460C4625886188A2882389002D0CD082
:100B6000042D13D0082D1AD03046FFF778FFE18806
:100B70003046BDE8704000F083B83046FFF724FFF0
:100B8000E1883046BDE8704000F05EB83046FFF7BF
:100B900032FFE1883046BDE8704000F05DB8304675
:100BA000FFF744FFE1883046BDE8704000F060B8D0
:100BB00000210180418001228280C1800181704733
:100BC000002A03D082890A438281704782898A433E
:100BD0008281704730B5028C22F001020284058CBC
:100BE0008388028B22F0700222F003020C881443E7
:100BF00025F002028D8915434A882A430D4DA842EB
:100C000002D00D4DA8420FD122F00805CA892A430F
:100C100022F004058A882A4323F4807323F40073A6
:100C20000D8A1D434B8A2B4383800483896841636B
:100C3000028430BD0000014000040140028B22F01C
:100C400008020A4302837047028B22F00C020283DF
:100C5000028B0A4302837047028B22F440620283B4
:100C6000028B4FF6FF7303EA01210A4302837047A8
:100C7000828B22F00C028283828B0A43828370472C
:100C8000828B22F440628283828B4FF6FF7303EAE9
:100C900001210A438283704730B50288164C174DF4
:100CA000A0420DD0A8420BD0B0F1804F08D0144B19
:100CB000984205D0134B984202D0134B984203D16F
:100CC00022F070034A881A43104B984206D0104B0A
:100CD000984203D022F440730A891A4302804A687A
:100CE000C2620A880285A04201D0A84201D1897A55
:100CF00001860121818230BD0000014000040140D5
:100D00000004004000080040000C004000100040BB
:100D10000014004070B58AB001210220FFF7B2FD37
:100D200001210846FFF7A0FD204E02220621304691
:100D3000FFF714FB4021089102218DF824108DF853
:100D4000251000248DF8264001258DF8275008A98C
:100D50003046FFF7C5FA4720ADF81400ADF816404D
:100D600040F2E7300690ADF81C40114E05A9304620
:100D7000FFF792FF6021ADF80010ADF80250ADF81A
:100D80000C40C821029169463046FFF723FF082135
:100D90003046FFF753FF01213046FFF793FE012154
:100DA0003046FFF7A1FE0AB070BD0000000002400F
:100DB000000400407FB501212020FFF763FD40F2D1
:100DC000E73002904720ADF804000024ADF806405B
:100DD000ADF80C4001A91148FFF75EFF104D01214D
:100DE0002846FFF77BFE012211462846FFF7E8FE62
:100DF0004FF44070FFF71EFB37218DF800108DF87F
:100E000001408DF8024001218DF803106846FFF77C
:100E1000DDFA01212846FFF767FE7FBD0004004090
:100E20000014004070B50A4C40F225552946204672
:100E300000F01AF8012809D1204600F035F82946BB
:100E4000204600F009F803490120087070BD000039
:100E5000001001400C00002040F66A120A0A01212D
:100E60009140C9430180704770B5002440F66A1272
:100E7000C1F3421301F01F05012606FA05F2012B0A
:100E80000CD0022B0DD0838A1340090A8E400088B3
:100E900030400BB100B10124204670BD838913405E
:100EA000F3E7038A1340F0E78088C0F30800704737
:100EB000FEE702E008C8121F08C1002AFAD17047F5
:100EC0007047002001E001C1121F002AFBD17047CA
:100ED00008B5FFF71FFFFFF75BFAFFF72DFBFFF7E2
:100EE000B3FAFFF79FF9FFF765FF0F4E0F4C102580
:100EF000DFF83C802F013046FFF71BFE20800523E2
:100F00000022042101200095FFF702FC0095052333
:100F100002210120A268FFF7FBFB0122394640466F
:100F2000FFF730FAE7E7000000040040000000206F
:100F3000001802400346012000E05843491EC9B290
:100F4000FBD270470000000000000000002F0000EE
:100F500000000700070000147F147F1400242A7F7C
:100F60002A120062640813230036495522500000FB
:100F70000503000000001C224100000041221C006B
:100F80000014083E08140008083E0808000000A0ED
:100F900060000008080808080000606000000020E9
:100FA00010080402003E5149453E0000427F4000C7
:100FB000004261514946002141454B31001814124D
:100FC0007F10002745454539003C4A49493000011A
:100FD0007109050300364949493600064949291E69
:100FE00000003636000000005636000000081422CB
:100FF00041000014141414140000412214080002CB
:101000000151090600324959513E007C1211127CEF
:10101000007F49494936003E41414122007F41411C
:10102000221C007F49494941007F09090901003E0E
:101030004149497A007F0808087F0000417F41004C
:10104000002040413F01007F08142241007F4040C2
:101050004040007F020C027F007F0408107F003EAA
:101060004141413E007F09090906003E4151215E90
:10107000007F091929460046494949310001017F8D
:101080000101003F4040403F001F2040201F003F23
:101090004038403F006314081463000708700807D5
:1010A00000615149454300007F41410000552A55E8
:1010B0002A55000041417F00000402010204004063
:1010C0004040404000000102040000205454547885
:1010D000007F4844443800384444442000384444A5
:1010E000487F00385454541800087E090102001843
:1010F000A4A4A47C007F080404780000447D400080
:10110000004080847D00007F102844000000417F63
:101110004000007C04180478007C0804047800383F
:101120004444443800FC242424180018242418FCC7
:10113000007C0804040800485454542000043F4430
:101140004020003C4040207C001C2040201C003CF3
:101150004030403C004428102844001CA0A0A07C43
:10116000004464544C44141414141414000000007B
:10117000000000000000000000000000000000F877
:1011800000000000000000333000000000100C06DA
:10119000100C0600000000000000000040C0784075
:1011A000C0784000043F04043F040400007088FC41
:1011B00008300000001820FF211E0000F008F00099
:1011C000E018000000211C031E211E0000F008880A
:1011D000700000001E2123241927211010160E0074
:1011E000000000000000000000000000000000E01F
:1011F0001804020000000007182040000002041834
:10120000E00000000040201807000000404080F08F
:10121000804040000202010F01020200000000F0C5
:10122000000000000101011F010101000000000099
:101230000000000080B0700000000000000000000E
:101240000000000000010101010101010000000097
:10125000000000000030300000000000000000002E
:1012600080601804006018060100000000E010080B
:101270000810E000000F102020100F00001010F8E0
:10128000000000000020203F20200000007008081F
:10129000088870000030282422213000003008889F
:1012A000884830000018202020110E000000C020C7
:1012B00010F8000000070424243F240000F80888E8
:1012C000880808000019212020110E0000E0108875
:1012D00088180000000F112020110E0000380808A7
:1012E000C83808000000003F0000000000708808B7
:1012F00008887000001C222121221C0000E0100838
:101300000810E0000000312222110F00000000C090
:10131000C00000000000003030000000000000802D
:10132000000000000000806000000000000080401D
:101330002010080000010204081020004040404036
:101340004040400004040404040404000008102089
:1013500040800000002010080402010000704808CE
:101360000808F0000000003036010000C030C82836
:10137000E810E0000718272423140B000000C038F1
:10138000E0000000203C23020227382008F888886B
:1013900088700000203F202020110E00C030080877
:1013A00008083800071820202010080008F808084E
:1013B0000810E000203F202020100F0008F8888847
:1013C000E8081000203F20202320180008F8888813
:1013D000E8081000203F200003000000C03008088B
:1013E0000838000007182020221E020008F8080014
:1013F0000008F808203F210101213F20000808F8DB
:10140000080800000020203F2020000000000808FD
:10141000F8080800C08080807F00000008F888C0BD
:1014200028180800203F20012638200008F808006E
:1014300000000000203F20202020300008F8F800A5
:10144000F8F80800203F003F003F200008F830C0B7
:101450000008F808203F200007183F00E0100808A7
:101460000810E0000F10202020100F0008F80808D6
:101470000808F000203F210101010000E0100808E9
:101480000810E0000F18242438504F0008F888880E
:1014900088887000203F2000030C302000708808EE
:1014A000080838000038202121221C00180808F8FC
:1014B000080818000000203F2000000008F808007D
:1014C0000008F808001F202020201F00087888004E
:1014D00000C83808000007380E010000F80800F8BE
:1014E0000008F800033C0700073C03000818688068
:1014F0008068180820302C03032C30200838C800DE
:10150000C83808000000203F20000000100808082C
:10151000C83808002038262120201800000000FECE
:10152000020202000000007F40404000000C30C07A
:1015300000000000000000010638C00000020202A6
:10154000FE000000004040407F0000000000040258
:101550000202040000000000000000000000000083
:101560000000000080808080808080800002020473
:10157000000000000000000000000000000080806B
:10158000808000000019242222223F2008F80080D9
:1015900080000000003F112020110E00000000809C
:1015A00080800000000E112020201100000000802B
:1015B0008088F800000E112020103F20000080805D
:1015C00080800000001F222222221300008080F071
:1015D000888888180020203F20200000000080809C
:1015E00080808000006B94949493600008F80080E1
:1015F00080800000203F210000203F20008098983C
:10160000000000000020203F20200000000000809B
:101610009898000000C08080807F000008F80000DB
:1016200080808000203F24022D302000000808F830
:10163000000000000020203F2020000080808080EB
:1016400080808000203F20003F20003F808000807D
:1016500080800000203F210000203F20000080808B
:1016600080800000001F202020201F00808000803C
:101670008000000080FFA12020110E0000000080EB
:1016800080808000000E112020A0FF8080808000DC
:101690008080800020203F21200001000000808009
:1016A000808080000033242424241900008080E0FE
:1016B000808000000000001F2020000080800000CB
:1016C00000808000001F202020103F2080808000AC
:1016D0000080808000010E300806010080800080BC
:1016E000008080800F300C030C300F0000808000E1
:1016F000808080000020312E0E312000808080000C
:101700000080808080818E701806010000808080BB
:10171000808080000021302C222130000000000059
:10172000807C020200000000003F404000000000FA
:10173000FF00000000000000FF0000000002027C2B
:10174000800000000040403F000000000006010152
:101750000202040400000000000000007C170008E2
:101760000000002010000000B20E00088C170008D6
:101770001000002000040000C20E0008000000005D
:0C1780000000000000000000000000005D
:040000050800018965
:00000001FF
