:020000040800F2
:1000000040050020A1010008810E00087D0E0008B7
:100010007F0E0008950800089D22000800000000DF
:100020000000000000000000000000009D13000818
:100030008909000800000000A512000865160008E4
:10004000BB010008BB010008BB010008BB010008A0
:10005000BB010008BB010008BB010008BB01000890
:10006000BB010008BB010008BB010008BB01000880
:10007000BB010008BB010008BB010008BB01000870
:10008000BB010008BB010008BB010008BB01000860
:10009000BB010008BB010008BB010008BB01000850
:1000A000BB010008BB010008BB010008BB01000840
:1000B000BB010008BB010008BB010008BB01000830
:1000C000BB010008BB010008BB010008BB01000820
:1000D000BB010008292000085D200008E12000087D
:1000E000BB010008BB010008BB010008BB01000800
:1000F000BB010008BB010008BB010008BB010008F0
:10010000BB010008BB010008BB010008BB010008DF
:10011000BB010008BB010008BB0100089D170008D7
:10012000BB010008BB010008BB010008BB010008BF
:10013000BB010008BB010008BB010008BB010008AF
:10014000BB010008BB010008BB010008BB0100089F
:10015000BB010008BB010008BB010008BB0100088F
:10016000BB010008BB010008BB010008BB0100087F
:10017000BB010008BB010008BB010008BB0100086F
:10018000BB010008BB010008DFF810D000F00CFB39
:1001900000480047712E0008AFF3008040050020A2
:1001A0000648804706480047FEE7FEE7FEE7FEE711
:1001B000FEE7FEE7FEE7FEE7FEE7FEE7751600084E
:1001C000890100082DE9FE4F804681EA0300C00F37
:1001D0000C46009021F0004123F00045B8EB0200EE
:1001E000A94105D24046214690461C460B46024690
:1001F00023F00040104347D0270DC7F30A00C3F394
:100200000A510290401A019040286BDAC3F31300A0
:1002100040F4801B0098924620B10023D2EB030AE1
:1002200063EB0B0B01985946C0F14002504600F0B9
:100230006EF906460D4650465946019A00F086F979
:1002400010EB08006141002487EA115284EAE77349
:100250001A4340D0009A62B3019A012A4FEA07522A
:1002600015DC001B61EB02014FF0004202EA07526D
:10027000CDE90042001C41F5801132462B4600F0CA
:10028000BDF903B0BDE8F08F40462146F9E7001BF9
:1002900061EB0201001C41F5801300185B4120183E
:1002A000A2F5001747EB030140EAD570B6196D417E
:1002B00011E06D084FEA360645EAC0754FEA07526D
:1002C000001B61EB0201001C41F5801149084FEA57
:1002D00030000019514132462B4603B0BDE8F04FC3
:1002E00000F07DB90098012240000023D0EB02020B
:1002F00063EBE073009821464FEAE074B8EB00002E
:1003000061EB0401E9E783F000435BE781F0004122
:1003100058E72DE9FE4F81EA030404F0004421F080
:10032000004100944FF0000B23F0004350EA010419
:100330005ED052EA03045BD0C3F30A54C1F30A55FA
:100340002C44A4F2F3340194A0FB0254C1F3130132
:1003500041F48011C3F3130343F4801301FB0244FF
:1003600000FB034E840A970A44EA815447EA835704
:10037000A4FB076802958D0A05FB07854FEA932CBD
:1003800004FB0C542705029D4FEA065847EA16372E
:10039000B5EB08056EEB070C870E920E47EA811746
:1003A00042EA8312A7FB0201B6EB0B0164EB0004E7
:1003B0002B0D43EA0C335E1844EB1C50DA465146D1
:1003C000E7FB0201C5F313044FEA0B3343EA14536E
:1003D0004FEA0432019C43EA0603A4F10C040294A0
:1003E000009CCDE900B400F009F903B0BDE8F08F3E
:1003F00000200146F9E70EB5C10F80EAE07008441D
:10040000CA07002140F233438DE80E000A460B462E
:1004100000F0F4F803B000BD30B5041E71F1000423
:1004200004DB4FF00044404264EB0101141E73F101
:10043000000405DB1C464FF00043524263EB04030B
:10044000994208BF904230BD01F0004330B421F022
:10045000004150EA010206D00A0DA2F56072C1F314
:100460001301002A02DC30BC00207047440F44EA2C
:10047000C104C100E01830BC00EBC25000F078B8F5
:1004800030B50B46014600202022012409E021FA64
:1004900002F59D4205D303FA02F5491B04FA02F561
:1004A0002844151EA2F10102F1DC30BD2DE9F05FF8
:1004B0000546002092469B468846064681464024D3
:1004C0001BE0284641464746224600F02FF8534697
:1004D0005A46C01A914110D311461846224600F0E0
:1004E00016F82D1A67EB01084F462246012000211D
:1004F00000F00DF817EB00094E41201EA4F1010495
:10050000DFDC484631462A464346BDE8F09F202AB4
:1005100004DB203A00FA02F1002070479140C2F15A
:10052000200320FA03F3194390407047202A04DB8C
:10053000203A21FA02F00021704721FA02F3D0405C
:10054000C2F120029140084319467047202A06DB79
:10055000CB17203A41FA02F043EAE07306E041FA91
:1005600002F3D040C2F1200291400843194670477F
:100570000029A8BF7047401C490008BF20F00100B7
:10058000704710B4B0FA80FC00FA0CF050EA010495
:1005900004BF10BC704749B1CCF1200421FA04F427
:1005A00011FA0CF118BF012121430843A3EB0C0100
:1005B000CB1D4FEA00614FEA102042BF002010BC63
:1005C000704700EBC35010440029A4BF10BC704713
:1005D000401C490008BF20F0010010BC704710B556
:1005E000141E73F1000408DA401C41F10001921856
:1005F0005B411A4301D120F0010010BD2DE9F04DFF
:1006000092469B4611B1B1FA81F202E0B0FA80F253
:1006100020329046FFF77BFF04460F4640EA0A006F
:1006200041EA0B0153465A46084313D0114653EA98
:10063000010019D0C8F140025046FFF777FF054688
:100640000E46504659464246FFF761FF084305D023
:10065000012004E020463946BDE8F08D0020054326
:1006600046EAE0762C4337430A986305E40AA0EB98
:1006700008000022FD0A44EA47540A3002D500204F
:100680000146E9E7010510196941DDE9084500194E
:100690006941BDE8F04DA2E72DE9F04D81EA030480
:1006A00004F0004B21F0004514464FF0000A23F0FF
:1006B000004150EA050220D054EA01021DD0C5F3E2
:1006C0000A570246C5F31303C1F31300C1F30A56D8
:1006D00040F4801543F48013A7EB0608101BD646A0
:1006E00008F2FD3873EB050002D308F1010801E0C0
:1006F00092185B41B8F1000F03DA00200146BDE813
:10070000F08D00204FF48011064684460EE0171B42
:1007100073EB050705D3121B63EB050306434CEA95
:10072000010C49084FEA300092185B4150EA01077A
:10073000EDD152EA030012D082EA040083EA0501F7
:10074000084305D0101BAB4106D20122002306E06E
:1007500000224FF0004302E06FF0010253101AEB49
:1007600006004CEB085110EB0A0041EB0B01BDE811
:10077000F04DFFF734BFC1F30A52C1F3130140F249
:10078000FF3341F480119A4202DA0020014670479B
:1007900040F233439A42A2F2334202DC5242FFF764
:1007A000C5BEFFF7B4BE0000064C074D06E0E0688A
:1007B00040F0010394E8070098471034AC42F6D3A8
:1007C000FFF7E6FCD82F0008F82F000810B5074CFB
:1007D00000220821204600F006FB012210212046BD
:1007E00000F001FB02490120486510BD00140240E1
:1007F0001000002010B5074C01220821204600F00F
:10080000F2FA01221021204600F0EDFA02490220FE
:10081000486510BD001402401000002010B5074CC0
:1008200001222021204600F0DEFA0022402120464D
:1008300000F0D9FA02490320886510BD0014024077
:100840001000002010B5074C00222021204600F0A7
:10085000CAFA01224021204600F0C5FA02490120CF
:10086000886510BD001402401000002010B5074C30
:1008700001222021204600F0B6FA01224021204624
:1008800000F0B1FA02490220886510BD0014024050
:1008900010000020FEE7000010B5074C01220221E5
:1008A000204600F0A0FA00220421204600F09BFA26
:1008B00002490320C86510BD00140240100000204A
:1008C00010B5074C00220221204600F08CFA0122CC
:1008D0000421204600F087FA02490120C86510BDB6
:1008E000001402401000002010B5074C0122022124
:1008F000204600F078FA01220421204600F073FA25
:1009000002490220C86510BD0014024010000020FA
:1009100010B5074C00228021204600F064FA012225
:100920001102204600F05FFA02490320086610BD5C
:10093000001402401000002010B5074C0122802155
:10094000204600F050FA0022A115204600F04BFA94
:1009500002490120086610BD00140240100000206A
:1009600010B5074C01228021204600F03CFA0122FC
:100970001102204600F037FA02490220086610BD35
:100980000014024010000020704700B502464FF4EA
:100990007A7302E0184600F004F8521E501CF9D198
:1009A00000BD00EBC000C1004FF0E020416100211C
:1009B0008161052101610169C903FCD5042101613F
:1009C0007047000070B5054D284601F09CF804B250
:1009D0000021284601F0FCF9204670BD00080040C7
:1009E00030B589B00121042000F06CFC0121022007
:1009F00000F05AFCC020079002208DF82000032050
:100A00008DF8210000248DF823408DF82240204DE0
:100A100007A9284600F08EF902220621284600F098
:100A2000C7F902220721284600F0C2F94FF6FE70EE
:100A30000590ADF81040ADF81240ADF818408DF8B3
:100A40001A40144D04A9284601F0ECF901A801F060
:100A500099F8ADF804400F24ADF80C4001A92846E0
:100A600001F05FF80421ADF80410ADF80C4001A9C5
:100A7000284601F056F800231A460321284601F0C3
:100A800029F80121284601F019F809B030BD00000D
:100A9000000402400008004070B5054D284601F0F2
:100AA00032F804B20021284601F092F9204670BDC8
:100AB000000C004030B589B00121082000F002FC94
:100AC0000121084600F0F0FB0320079002218DF879
:100AD00020108DF8210000248DF823408DF822404D
:100AE0001F4D07A9284600F025F9022200212846BB
:100AF00000F05EF902220121284600F059F94FF674
:100B0000FE700590ADF81040ADF81240ADF81840F9
:100B10008DF81A40134D04A9284601F083F901A865
:100B200001F030F8ADF804400F24ADF80C4001A9F5
:100B3000284600F0F6FF0421ADF80410ADF80C4093
:100B400001A9284600F0EDFF00231A46032128469C
:100B500000F0C0FF0121284600F0B0FF09B030BD11
:100B600000000240000C004070B54FF08045284660
:100B700000F0C9FF04B20021284601F029F92046FF
:100B800070BD0000F0B589B00121084600F09AFB65
:100B90000121084600F088FB0121022000F084FBBF
:100BA0002020079002268DF8206003258DF8215023
:100BB00000248DF823408DF82240274F07A938469E
:100BC00000F0B8F8082007908DF820608DF82150CB
:100BD0008DF823408DF82240204D07A9284600F0CB
:100BE000A9F801220521384600F0E2F8012203218C
:100BF000284600F0DDF84FF6FE700590ADF8104085
:100C0000ADF81240ADF818408DF81A402D0504A932
:100C1000284601F007F901A800F0B4FFADF8044040
:100C20000F24ADF80C4001A9284600F07AFF0421FA
:100C3000ADF80410ADF80C4001A9284600F071FF92
:100C400000231A460321284600F044FF01212846CC
:100C500000F034FF09B0F0BD000002400004024083
:100C600070B5054D284600F04EFF04B2002128461D
:100C700001F0AEF8204670BD0004014030B589B0E7
:100C80000121022000F02CFB0121042000F00CFBCC
:100C9000C020079002208DF8200003208DF821004D
:100CA00000248DF823408DF82240204D07A92846C6
:100CB00000F040F803220621284600F079F80322CC
:100CC0000721284600F074F84FF6FE700590ADF845
:100CD0001040ADF81240ADF818408DF81A40144D90
:100CE00004A9284601F09EF801A800F04BFFADF8DA
:100CF00004400F24ADF80C4001A9284600F011FF74
:100D00000421ADF80410ADF80C4001A9284600F00C
:100D100008FF00231A460321284600F0DBFE0121CC
:100D2000284600F0CBFE09B030BD000000080240AC
:100D3000000401402DE9F041002201274FF0030C8F
:100D400007FA02F50B682B40AB422CD10668530022
:100D50000CFA03F4A64306600E79D0F800809E409A
:100D600046EA080606600E79012E01D0022E12D145
:100D70008668A64386604E79D0F808809E4046EA91
:100D8000080686604668AE43466045688E799640A0
:100D9000B6B235434560C568A543C560CC799C4073
:100DA000C3681C43C460521C102AC9D3BDE8F0813B
:100DB00010B54B07DB0E9A40C90800EB8100016AB1
:100DC0000F249C40A1430162016A1143016210BDDE
:100DD0000246002012690A4200D001207047418378
:100DE000704701837047002A01D001837047418317
:100DF000704700002DE9FC410121402000F054FA29
:100E000001258DF8045000248DF80640280200903A
:100E10008DF8075002268DF80560164F6946384652
:100E2000FFF788FF0121402000F03EFA8DF80440D2
:100E30008DF80640802000908DF807408DF8056001
:100E400069463846FFF776FF0121202000F02CFA92
:100E50008DF804508DF8064040F2FF1000908DF898
:100E600007508DF8056069460348FFF763FFBDE84A
:100E7000FC8100000018024000140240FEE7FEE77B
:100E80007047000030B50F23C27801250178002A91
:100E90001FD0154A126802F4E062C2F5E062C2F3A4
:100EA0000722C2F10404D3404278A24084781C4057
:100EB0001443220101F1E02181F80024007800F0C0
:100EC0001F018D404009800000F1E020C0F8005172
:100ED00030BD01F01F0085404809800000F1E0208E
:100EE000C0F8805130BD00000CED00E0024908431D
:100EF00002490860704700000000FA050CED00E0B0
:100F000070B50025002105F1B00000F001F90021C5
:100F1000084600F0FDF80021102000F0F9F8002448
:100F20000121002000F0F4F8641CE4B2802CF7D317
:100F30006D1CEDB2082DE5D370BD000070B5114DEC
:100F40004FF4805421462846FFF74BFF0420FFF75B
:100F500028FD660031462846FFF743FF0420FFF7CF
:100F600020FD31462846FFF73AFF0420FFF719FD20
:100F700021462846FFF733FFBDE870400420FFF705
:100F800010BD00000004024070B50D4C4FF48051BC
:100F90002046FFF726FF0420FFF703FD4FF400551E
:100FA00029462046FFF71BFF0420FFF7FAFC2946DD
:100FB0002046FFF716FFBDE870400420FFF7F1BCA4
:100FC0000004024070B5094D4FF480542146284674
:100FD000FFF707FF0420FFF7E4FC21462846FFF750
:100FE000FEFEBDE870400420FFF7DBBC00040240B9
:100FF0007CB50121022000F057F94FF440540094D1
:1010000001208DF8040000228DF806208DF80700DD
:1010100002208DF805003D4D69462846FFF78AFEFF
:1010200021462846FFF7DDFE4FF44870FFF7ADFC80
:101030000021AE2000F06CF80021084600F068F8AE
:101040000021102000F064F80021402000F060F83A
:101050000021B02000F05CF80021812000F058F859
:101060000021FF2000F054F80021A12000F050F8EA
:101070000021A62000F04CF80021A82000F048F83C
:1010800000213F2000F044F80021C82000F040F883
:101090000021D32000F03CF80021084600F038F889
:1010A0000021D52000F034F80021802000F030F835
:1010B0000021D82000F02CF80021052000F028F8AD
:1010C0000021D92000F024F80021F12000F020F8C0
:1010D0000021DA2000F01CF80021122000F018F89E
:1010E0000021DB2000F014F80021302000F010F87F
:1010F00000218D2000F00CF80021142000F008F8E9
:101100000021AF2000F004F87CBD00000004024084
:10111000002902D0C0B200F056B8C0B200F03CB80E
:101120002DE9F04104461B4F4FF4805631463846B6
:10113000FFF755FE0420FFF734FC00254FF400585C
:1011400004F0800080281CD041463846FFF747FE57
:101150000420FFF726FC6006040E31463846FFF7F0
:1011600040FE0420FFF71DFC31463846FFF737FEEE
:101170000420FFF716FC6D1CEDB2082DE0D3BDE88E
:10118000F08141463846FFF72CFE0420FFF709FCAA
:10119000E1E700000004024010B50446FFF7CEFE70
:1011A0007820FFF7BDFFFFF70DFF0020FFF7B8FF26
:1011B000FFF708FF2046FFF7B3FFFFF703FFBDE887
:1011C0001040FFF7E1BE10B50446FFF7B7FE7820E8
:1011D000FFF7A6FFFFF7F6FE4020FFF7A1FFFFF79E
:1011E000F1FE2046FFF79CFFFFF7ECFEBDE8104044
:1011F000FFF7CABE80ED000A9FED090A80ED010AE3
:1012000080ED020AC0ED030A80ED041AC0ED051A54
:1012100080ED060A80ED070A80ED080A704700009D
:1012200000000000D0ED000A30EEC00A80ED060A92
:10123000D0ED030A90ED041A90ED052A60EE800AC5
:1012400041EE000A90ED071A70EE411A42EE210AB3
:10125000D0ED011A70EEA10AC0ED010A80ED081A66
:1012600080ED070A10EE901A0A4A91420ADB9FEDC0
:101270000A0A80ED010A9FED090A80ED020A084A78
:101280000121116090ED010ABDEEC00AB8EEC00A5E
:10129000704700000000484400004844000000007F
:1012A0001800002070470000054A002903D011688B
:1012B000014311607047116881431160704700005D
:1012C00030380240054A002903D0116801431160FB
:1012D0007047116881431160704700004038024038
:1012E000054A002903D01168014311607047116855
:1012F00081431160704700004438024070B5244BB0
:10130000196801F00C01234C00291ED06610042935
:101310001DD008291DD00460196801F0F0010909E9
:101320001D4A545C0168E14041601C6804F4E054CB
:10133000A40A145D21FA04F484601B6803F460437A
:101340005B0BD25CD140C16070BD0460E4E7066015
:10135000E2E70F4A121F1168C1F38055116801F0CE
:101360003F0135B1B6FBF1F11468C4F38814614351
:1013700005E0B4FBF1F11468C4F38814614312680A
:10138000C2F30142521C5200B1FBF2F10160C3E70B
:10139000083802400024F4000000002070470000DC
:1013A00070B588B001210846FFF77EFF01211020AB
:1013B000FFF796FF244E072209213046FFF7F8FC7D
:1013C00007220A213046FFF7F3FC4FF4C061069173
:1013D00002218DF81C108DF81D1000248DF81E4080
:1013E00001258DF81F5006A93046FFF7A3FC4FF4E6
:1013F000E1300290ADF80C40ADF80E40ADF8104071
:10140000ADF814400C20ADF81200104C02A9204693
:1014100000F0DEFE012240F22551204600F0BDFE24
:1014200025218DF8041003218DF805108DF8061084
:101430008DF8075001A8FFF725FD0121204600F097
:1014400079FE08B070BD00000000024000100140AD
:1014500070B588B001210820FFF726FF012148045C
:10146000FFF730FF234E072205213046FFF7A0FC8F
:10147000072206213046FFF79BFC602106910221DE
:101480008DF81C108DF81D1000248DF81E400125CC
:101490008DF81F5006A93046FFF74CFC4FF4E130A1
:1014A0000290ADF80C40ADF80E40ADF81040ADF82C
:1014B00014400C20ADF812000F4C02A9204600F099
:1014C00087FE012240F22551204600F066FE2621CB
:1014D0008DF8041003218DF805108DF806108DF895
:1014E000075001A8FFF7CEFC0121204600F022FEA4
:1014F00008B070BD000C02400044004070B588B0D8
:1015000001210220FFF7D0FE01218804FFF7DAFE57
:10151000244E07220A213046FFF74AFC07220B21FE
:101520003046FFF745FC4FF44061069102218DF8EB
:101530001C108DF81D1000248DF81E4001258DF81B
:101540001F5006A93046FFF7F5FB4FF4E13002903B
:10155000ADF80C40ADF80E40ADF81040ADF81440B9
:101560000C20ADF81200104C02A9204600F030FE0D
:10157000012240F22551204600F00FFE27218DF870
:10158000041003218DF805108DF806108DF8075012
:1015900001A8FFF777FC0121204600F0CBFD08B041
:1015A00070BD000000040240004800400CB500225D
:1015B000019200922749086840F4803008604FF497
:1015C000A063086800F4003000900198401C01906E
:1015D000009810B901989842F3D10868800302D5A9
:1015E0000120009000E000920098012831D11948B4
:1015F0004030026842F0805202601748026842F4AC
:10160000804202601348083002680260026842F4B7
:1016100000420260026842F4A0520260021F0F4BB7
:1016200013600A6842F080720A600A689201FCD571
:101630000B4A40F205611160016821F0030101606D
:10164000016841F0020101600168C1F381010229D2
:10165000FAD10CBD00380240007000400854400729
:10166000003C02400248C168491CC160704700004C
:101670001000002010B51248016841F470010160AB
:101680001048016841F0010101600E4A0021083252
:10169000116002680C4B1A400260031D0B4A1A606D
:1016A000026822F48022026006480C300160FFF7D5
:1016B0007DFF03494FF000608039086010BD0000D5
:1016C00088ED00E000380240FFFFF6FE10300024F5
:1016D00070B5048C24F001040484058B048C25F07F
:1016E000F3054FF6FF7606EA031313432B4324F06A
:1016F0000A020A4342F001010383018470BD70B500
:10170000048C24F010040484058B068C4FF6FF74BF
:1017100004EA011125F4734504EA03332B4304EA78
:1017200002221A4326F0A0030B4343F01001028368
:10173000018470BDF0B5048C24F480740484868B1D
:10174000058C4FF6FF7707EA012426F0F30607EA37
:1017500003111143314325F42062224342F4807285
:1017600081830284F0BD70B5048C24F48054048419
:10177000858B068C4FF6FF7404EA013125F473451E
:1017800004EA02222A4304EA0333134326F42042E4
:101790000A4342F480518383018470BD2DE9F041F6
:1017A0002DED048B82B00121DFF8C082404600F0AD
:1017B000ACF9012873D1AE4CA06C0090ADA0E36BE6
:1017C000226B616A00F06CFD206A401C2062FFF70A
:1017D00063F96062FFF7C8F92063FFF7F3F8E0638D
:1017E000FFF73EFA0546A064266B616AE76B88192D
:1017F00038442844C21700EB927080106061A269DF
:101800001044A0614842FEF7F6FD9FED9E8B53EC1D
:10181000182BFEF77EFDFEF717FE09EE100A84ED89
:101820000B9A3046FEF7E7FD53EC182BFEF771FDDF
:10183000FEF70AFEA0633846FEF7DDFD53EC182BD9
:10184000FEF767FDFEF700FE60646842FEF7D3FD19
:1018500053EC182BFEF75DFDFEF7F6FD2065A06842
:1018600000286ED1B5EEC09A884DF1EE10FA02DD77
:10187000606D012808D0B5EEC09AF1EE10FA1FD2C3
:10188000606D03280CD01BE0002208212846FFF7DA
:10189000AAFA012210212846FFF7A5FA10E0DFE09E
:1018A000012208212846FFF79EFA0022102128462F
:1018B000FFF799FA94ED0B0AB1EE400A84ED0B0A9A
:1018C00094ED0E0AB5EEC00AF1EE10FA02DDA06D3D
:1018D000012808D0B5EEC00AF1EE10FA1ED2A06DB4
:1018E00003280BD01AE0002220212846FFF77BFABC
:1018F000012240212846FFF776FA0FE0012220213D
:101900002846FFF770FA002240212846FFF76BFABD
:1019100094ED0E0AB1EE400A84ED0E0A94ED110A20
:10192000B5EEC00AF1EE10FA02DDE06D012809D033
:10193000B5EEC00AF1EE10FA1FD2E06D03280CD00C
:101940001BE082E0002202212846FFF74CFA012228
:1019500004212846FFF747FA0FE00122022128461A
:10196000FFF741FA002204212846FFF73CFA94EDE4
:10197000110AB1EE400A84ED110A94ED140A4FF4F5
:101980008076B5EEC00AF1EE10FA02DD206E012875
:1019900008D0B5EEC00AF1EE10FA1ED2206E032870
:1019A0000BD01AE0012280212846FFF71CFA002202
:1019B00031462846FFF717FA0FE00022802128461B
:1019C000FFF711FA012231462846FFF70CFA94ED91
:1019D000140AB1EE400A84ED140A94ED0B0A2C4867
:1019E000FFF720FCBDEEC00A84ED0A0A284894EDFA
:1019F0000E0A2430FFF716FCBDEEC00A84ED0D0A76
:101A0000234894ED110A4830FFF70CFCBDEEC00AE4
:101A100084ED100A1E4894ED140A6C30FFF702FCA6
:101A2000BDEEC00A84ED130A1A4DA16A284600F0E3
:101A3000C9F92846616B00F0C7F92846216C00F00F
:101A4000BFF92846E16C00F0C1F90020A06002B0A7
:101A50004046BDEC048B0121BDE8F04100F02BB8FD
:101A600002B0BDEC048BBDE8F08100000014004022
:101A70001000002025642C25642C25642C25640A84
:101A800000000000D7A3703D0AD7054000140240B3
:101A90009000002000040040002904D0018841F09B
:101AA000800101807047018821F08001018070472A
:101AB000C94301827047C94301827047002904D09D
:101AC000018841F0010101807047018821F0010186
:101AD0000180704770B50589048B068C25F00705D9
:101AE0000D434FF6FC410C4040F201110C4326F02F
:101AF00022064FF6FF7101EA0311114331430581BC
:101B00000483018470BD406A704702460020138A36
:101B10000B4092890A40002B02D0002A00D00120FD
:101B2000704770B506460C4625886188A2882389CF
:101B3000002D0CD0042D13D0082D1AD03046FFF7FD
:101B400012FEE1883046BDE8704000F05FB93046D3
:101B5000FFF7BEFDE1883046BDE8704000F03AB9BD
:101B60003046FFF7CCFDE1883046BDE8704000F01C
:101B700039B93046FFF7DEFDE1883046BDE87040F8
:101B800000F03CB900210180418001228280C180A7
:101B900001817047002A03D082890A4382817047FD
:101BA00082898A438281704730B5028C22F001021B
:101BB0000284058C8388028B22F0700222F00302DB
:101BC0000C88144325F002028D8915434A882A4364
:101BD0000D4DA84202D00D4DA8420FD122F00805AC
:101BE000CA892A4322F004058A882A4323F4807391
:101BF00023F400730D8A1D434B8A2B438380048397
:101C000089684163028430BD000001400004014046
:101C1000028B22F008020A430283704770B5028CDF
:101C200022F010020284028C8388048B24F4E044A6
:101C300024F440760D884FF6FF7404EA05253543F9
:101C400022F020028E8904EA061616434A8804EA26
:101C500002123243114EB04202D0114EB04217D19F
:101C600022F08002CE8904EA0616164326F04006CA
:101C70008A8804EA0212324323F4806323F4006367
:101C80000E8A04EA86061E434B8A04EA8303334322
:101C90008380058389688163028470BD00000140F0
:101CA00000040140028B22F400624FF6FF7303EA46
:101CB000012111430183704770B5028C22F48072B8
:101CC0000284028C8388848B24F0700424F0030443
:101CD0000D88254322F400728E894FF6FF7404EAC2
:101CE000062616434A8804EA02223243114EB042C5
:101CF00002D0114EB04217D122F40066CA8904EA1C
:101D00000222324322F480668A8804EA02223243A5
:101D100023F4805323F400530E8A04EA06161E436C
:101D20004B8A04EA03133343838085838968C16344
:101D3000028470BD0000014000040140828B22F04B
:101D400008020A438283704770B5028C22F48052E5
:101D50000284058C8288838B23F4E04323F440764D
:101D60000C884FF6FF7303EA0424344325F400552E
:101D70008E8903EA06362E434D8803EA053535433E
:101D8000084EB04202D0084EB04205D122F480463F
:101D90000A8A03EA8212324382808483896801645A
:101DA000058470BD0000014000040140828B22F4D4
:101DB00000624FF6FF7303EA0121114381837047EC
:101DC0004163704781637047C16370470164704726
:101DD00041627047028B22F00C020283028B0A439D
:101DE00002837047028B22F440620283028B4FF61B
:101DF000FF7303EA01210A4302837047828B22F0BA
:101E00000C028283828B0A4382837047828B22F486
:101E100040628283828B4FF6FF7303EA01210A43FB
:101E20008283704730B50288164C174DA0420DD002
:101E3000A8420BD0B0F1804F08D0144B984205D087
:101E4000134B984202D0134B984203D122F07003F7
:101E50004A881A43104B984206D0104B984203D040
:101E600022F440730A891A4302804A68C2620A88CF
:101E70000285A04201D0A84201D1897A01860121C0
:101E8000818230BD00000140000401400004004098
:101E900000080040000C004000100040001400400A
:101EA000F0B58BB001210220FFF70CFA01210846A2
:101EB000FFF7FAF901210220FFF7F6F93B4F022262
:101EC00006213846FEF774FF022207213846FEF746
:101ED0006FFFC020099002258DF828508DF82950F9
:101EE00000248DF82A4001268DF82B6009A9384678
:101EF000FEF720FF2E4F022200213846FEF758FF42
:101F0000022201213846FEF753FF032009908DF885
:101F100028508DF829508DF82A408DF82B6009A99A
:101F20003846FEF707FF4720ADF81800ADF81A4015
:101F300040F2E7300790ADF820401E4D06A9284634
:101F4000FFF770FF6021ADF80410ADF80660ADF842
:101F500010405021039101A92846FFF725FE0821D2
:101F60002846FFF755FE01A92846FFF757FE08212E
:101F70002846FFF797FE01A92846FFF79DFE082196
:101F80002846FFF7DBFE01A92846FFF7DDFE082102
:101F90002846FFF70BFF01212846FFF77DFD0121B1
:101FA0002846FFF78BFD0BB0F0BD0000000002409B
:101FB00000040240000400407FB501212020FFF70B
:101FC00081F940F2F310029041F61F40ADF8040091
:101FD0000024ADF80640ADF80C40124D01A928468A
:101FE000FFF720FF01212846FFF762FD012211467D
:101FF0002846FFF7CFFD4FF44070FEF777FF3721FB
:102000008DF800108DF801408DF8024001218DF807
:1020100003106846FEF736FF01212846FFF74EFD04
:102020007FBD00000014004070B50A4D40F22556F7
:102030003146284600F091F801280AD1284600F0E0
:1020400025F9054C20703146284600F06BF8012038
:10205000607070BD001001407C00002070B51D4C08
:1020600040F225552946204600F077F801282FD167
:10207000204600F00BF9C2B21748C2700378002660
:10208000012133B1012B0BD0022B0ED0032B17D023
:1020900018E0552A16D18278A2B90170467011E075
:1020A000522A0FD1022101700CE00C494378CA5426
:1020B0005B1CDAB24270132A04D10321017001E0E3
:1020C0000670817029462046BDE8704000F02AB8AD
:1020D00070BD0000004400407E0000202B01002065
:1020E00070B50E4D40F225563146284600F035F8C1
:1020F000012812D1284600F0C9F809494C1E62682F
:102100008854521C6260022A01D10020606031466E
:10211000284600F007F80120207070BD00480040FC
:102120008500002040F66A120A0A01219140C94345
:1021300001807047002904D0818941F400518181D8
:102140007047818921F40051818170470246002047
:1021500012880A4200D00120704770B5002440F672
:102160006A12C1F3421301F01F05012606FA05F2B7
:10217000012B0CD0022B0DD0838A1340090A8E400C
:10218000008830400BB100B10124204670BD838926
:102190001340F3E7038A1340F0E710B540F66A13E3
:1021A000C1F3421301F01F040121A140012B07D00C
:1021B000022B07D014303AB102680A43026010BD06
:1021C0000C30F8E71030F6E702688A43026010BD71
:1021D0007FB504460D46208A20F44051E888084324
:1021E0002082A08941F20C618843A9882A89114381
:1021F0006A8902431143A181A08A20F44071A88911
:102200000843A0826846FFF779F81E48844202D04E
:102210001D48844201D1039800E00298A189090475
:1022200008D500EBC00101EB001029684900B0FBA4
:10223000F1F007E000EBC00101EB00102968890014
:10224000B0FBF1F06422B0FBF2F109010B096FF071
:1022500018056B4300EB8300A3891D044FF0320384
:1022600007D503EBC000B0FBF2F000F00700084315
:1022700006E003EB0010B0FBF2F000F00F000843A3
:1022800020817FBD00100140001401408088C0F310
:1022900008007047C1F3080181807047FEE7000025
:1022A0000FB4054B10B503A9044A029800F0DAF800
:1022B00010BC5DF814FB00006D2B00088C000020A2
:1022C00002E008C8121F08C1002AFAD170477047FF
:1022D000002001E001C1121F002AFBD1704700005D
:1022E0002DE9FF5F82B00021DDE90430020DDDF849
:1022F00040B0034318D044F61050A2F2FF324243DC
:102300001514119801281FD0A5EB0B00401C5FEAA3
:10231000000A4FF000064E4FDFF83891B0465046A5
:1023200015D5CAF1000413E0119801244AA301282D
:1023300001D16FEA0B010298119AC0E90031C0E99E
:10234000024206B0BDE8F09FCBF10000DFE7044693
:102350000021404A491842EB0450CDE9001012E038
:10236000E00707D032463B4640464946FDF7D1FFDD
:102370008046894632463B4610461946FDF7C9FF5E
:1023800006460F466410002CEAD1DDE90401DDE9C0
:102390000023BAF1000F06DAFDF7BBFF42464B46B9
:1023A000FDF7B7FF05E0FEF777F942464B46FEF72B
:1023B00073F904460E460022284BFEF72DF803D889
:1023C0004FF0FF30014607E00022254B2046314602
:1023D000FDF7F8FEFEF7CFF9102409E0002C0ADB28
:1023E0000A220023FEF762F8039B30321A55641E5E
:1023F00050EA0102F2D1641C039AC4F1110314449F
:10240000119A012A03D0012208430DD10AE00843A2
:1024100004D000204FF0110B119072E7A3EB0B05D5
:102420006D1E0DE05B4504DD4FF0000205F1010576
:1024300004E003DA4FF00002A5F10105002AECD018
:1024400002981199C0E90231C0E9004579E700001E
:10245000000014400000F03F300000000000F04396
:102460000000E03F2DE9FF4F95B09A4688460646AA
:102470000025EEE1252877D100242746F94A0121DD
:10248000039400E0044316F8013F203B01FA03F0F7
:102490001042F7D130782A2811D06FF02F0330780E
:1024A000A0F13002092A16D8039A44F0020402EB84
:1024B000820203EB42021044761C0390EFE758F8C7
:1024C000042B0392002A03DA504244F40054039090
:1024D00044F00204761C30782E2816D116F8010F2D
:1024E00044F004042A280DD06FF02F023078A0F1B8
:1024F0003003092B09D807EB870302EB4303C71806
:10250000761CF3E758F8047B761C30786C280FD0E3
:1025100006DC4C2817D068280DD06A2814D104E0B6
:10252000742810D07A280FD10DE044F400140AE08A
:1025300044F4801401E044F440147278824202D1E1
:1025400004F58014761C761C307866280BD013DCDA
:10255000582877D009DC002875D04528F6D04628C1
:10256000F4D047281AD193E118E0632835D06428C5
:1025700079D0652812D18BE1702873D008DC6728E8
:10258000F1D069286FD06E280DD06F2806D1ACE04D
:1025900073282CD0752874D0782853D052461799B8
:1025A00090476D1C54E1C4F30250022809D003285F
:1025B0000DD0D8F8001004280DD00D6008F10408E3
:1025C00046E1D8F80010EA17C1E90052F6E7D8F85A
:1025D00000100D80F2E70D70F0E718F8041B8DF87D
:1025E000001000208DF80100EB46012003E058F8B0
:1025F00004BB4FF0FF3061074FF0000102D40DE043
:1026000009F101018946B9420FDA8145F8DB1BF86F
:1026100009100029F4D108E009F10101894681423D
:10262000FADB1BF809100029F6D103985346A0EBFA
:10263000090721463846179A00F080FA284400EB33
:10264000090507E044E008E10DE01BF8010B5246E4
:1026500017999047B9F10109F7D2534621463846F8
:10266000179AF2E039E00A21C4F302524FF0000B4E
:102670000091022A06D058F8040BC117032A09D08A
:102680000AE023E008F1070020F00702F2E8020167
:10269000904605E000B2C117042A01D140B2C1172B
:1026A000002906DA0A460021404261EB02012D2290
:1026B00002E0220504D52B228DF80420012203E03C
:1026C000E20701D02022F7E7914657E00A2100E017
:1026D00010214FF0000B00910BE010214FF0000B88
:1026E00044F004040827009103E008204FF0000B99
:1026F0000090C4F30252022A05D058F8040B0021BE
:10270000032A08D008E008F1070020F00702F2E8E9
:102710000201904603E080B2042A00D1C0B24FF01B
:10272000000922072AD53278702A07D0DDF800C0C8
:102730008CF0100C5CEA0B0C05D00EE040228DF8FA
:102740000420012208E050EA010306D030238DF86E
:1027500004308DF8052002229146009B83F0080387
:1027600053EA0B030AD150EA010201D1620705D5F1
:1027700030228DF804204FF001097F1E3278582A4C
:1027800004D039A20C920CAA02920BE03BA2F9E70A
:102790005B46009AFDF78AFE0C9B9B5C029A521ED8
:1027A0000292137050EA0102F2D1029804A9081AA9
:1027B00000F1200B600702D524F4803400E00127EB
:1027C0005F4502DDA7EB0B0000E0002000EB0B01F2
:1027D000009003984944401A0390E00306D45346FE
:1027E0002146179A039800F0A9F90544002706E04E
:1027F00001A85246C05D179990476D1C7F1C4F453C
:10280000F6DBE0030CD553462146179A039800F0F7
:1028100095F9054404E030205246179990476D1C05
:102820000099481E00900029F5DC08E00298029902
:1028300052460078491C0291179990476D1CBBF1D4
:102840000001ABF1010BF1DC5BE100F065F905443F
:10285000761C307800287FF40DAE19B02846BDE80C
:10286000F08F00000928010030313233343536371B
:1028700038396162636465660000000030313233CC
:10288000343536373839414243444546000000006C
:10289000600700D4062708F1070020F00700F0E8E1
:1028A0000223804603F0004C5FEA0C0001D097A0A1
:1028B00009E0200501D596A005E0E00701D095A02C
:1028C00001E0AFF24C001390307823F0004365280C
:1028D0000CD006DC452809D046281DD047287FD1DA
:1028E0003BE0662818D067287AD136E00021112F06
:1028F00001DB112000E0781CCDE9000104A90CA83F
:10290000FFF7EEFCDDE90D010C9A4FF0000B07F12B
:102910000109109200914EE04FF000400097CDE980
:10292000011004A90CA8FFF7DBFCDDE90D020C9BEC
:102930000F994FF0000B91461093009211B9791C3A
:1029400000EB0109B7EB090003D4C0F1FF3B07F12D
:102950000109A9EB0700019042E0012F00DA0127ED
:102960000021112F01DD112000E03846CDE90001E2
:1029700004A90CA8FFF7B4FCDDE90D010C9A009145
:102980004FF0000BB946109221070FD4009A4A4528
:1029900003DA914601E0A9F10109B9F1010F05DD62
:1029A000109AA9F10101515C3029F4D0B84202DA41
:1029B00010F1040F03DA0121CDE9011010E0002825
:1029C00003DC8344A9EB000102E0411C494500DD22
:1029D0008946A0EB0B00401C01904FF00040029094
:1029E000200705D40198484502DB4FF0FF300190E5
:1029F00000208DF84B0002980DF14B07B0F1004F0D
:102A000025D002200C902B200D90029800280CDA83
:102A1000404202902D200D9007E00A210298FDF718
:102A20002FFD3031029007F8011D0C99481E0C90C3
:102A30000029F2DC02980028EFD1791E0D98087069
:102A4000307800F0200040F0450007F8020D11A892
:102A5000C01BC01D02901398007800B1012000EB4C
:102A60000901019801EBE071029801440398401AB2
:102A7000401E0390E00306D453462146179A03985C
:102A800000F05CF805441398007818B15246179985
:102A900090476D1CE00323D553462146179A0398AF
:102AA00000F04CF805441BE0BBF1000F07DB009879
:102AB000584504DD1098179910F80B0001E017999C
:102AC00030205246904701980BF1010B401E05F152
:102AD0000105019004D12E205246179990476D1C94
:102AE000B9F10001A9F10109DEDC05E017F8010BDD
:102AF0005246179990476D1C0299481E0290002972
:102B0000F4DC53462146179A03989EE62D000000F8
:102B10002B000000200000002DE9F04104460025B4
:102B20001E461746880404D405E039462020B047E5
:102B30006D1C641EF9D52846BDE8F0812DE9F041F1
:102B4000044600251E469046C80301D5302700E004
:102B50002027880404D505E041463846B0476D1C5F
:102B6000641EF9D52846BDE8F081000070B5044622
:102B7000064DE1B22846FFF78DFB80212846FFF77E
:102B8000E5FA0028F9D0204670BD00000010014091
:102B900010B52DED048B9621314C2046FFF710F92E
:102BA00096212046FFF70EF996212046FFF70CF9F3
:102BB00096212046FFF70AF95020FDF7E6FE9FED2B
:102BC000298ADFED298A9FED299ADFED299AF0EE17
:102BD000481AB0EE681AF0EE490AB0EE690A2548C4
:102BE000FEF708FB2348F0EE481AB0EE681AF0EE44
:102BF000490AB0EE690A2430FEF7FCFA1D48F0EEEF
:102C0000481AB0EE681AF0EE490AB0EE690A483088
:102C1000FEF7F0FA1748F0EE481AB0EE681AF0EE38
:102C2000490AB0EE690A6C30FEF7E4FA1248002156
:102C300041660121C161826E012A00D08160FDF7E9
:102C4000C5FDFDF7FFFDFDF73BFEFDF775FEBDEC95
:102C5000048B0121BDE810400848FEF72FBF00009B
:102C6000000400409A99993FCDCCCC3D3333B33F1B
:102C700000001643900000201000002000140040C7
:102C800010B52DED048B5021324C2046FFF79AF8F9
:102C900050212046FFF798F84F212046FFF794F87F
:102CA00050212046FFF792F85020FDF76EFE9FED71
:102CB0002A8ADFED2A8A9FED2A9ADFED2A9AF0EE22
:102CC000481AB0EE681AF0EE490AB0EE690A2648D2
:102CD000FEF790FA2448F0EE481AB0EE681AF0EECB
:102CE000490AB0EE690A2430FEF784FA1E48F0EE75
:102CF000481AB0EE681AF0EE490AB0EE690A483098
:102D0000FEF778FA1848F0EE481AB0EE681AF0EEBE
:102D1000490AB0EE690A6C30FEF76CFA01211348DB
:102D2000FEF7CCFE124C002060660520E061A06E2C
:102D3000052801D00120A060FDF748FDFDF76EFDDC
:102D4000FDF7BEFDFDF7E4FDE069A066BDEC048B78
:102D500010BD0000000400409A99993FCDCCCC3DB5
:102D60003333B33F0000A042900000200014004025
:102D70001000002010B52DED048B5121324C20465F
:102D8000FFF71EF850212046FFF71CF84F21204680
:102D9000FFF71AF850212046FFF718F85020FDF7EA
:102DA000F4FD9FED2A8ADFED2A8A9FED2A9AF0EE44
:102DB000481AB0EE681AF0EE490A9FED270A274834
:102DC000FEF718FADFED269A2448F0EE481AB0EE26
:102DD000681AF0EE490AB0EE690A2430FEF70AFAE2
:102DE0001E48F0EE481AB0EE681AF0EE490A9FED60
:102DF0001D0A4830FEF7FEF91848F0EE481AB0EE0A
:102E0000681AF0EE490AB0EE690A6C30FEF7F2F982
:102E100001211548FEF752FE144C00206066032085
:102E2000E061A06E032801D00120A060FDF7F6FC50
:102E3000FDF7CCFCFDF730FDFDF77EFDE069A066F7
:102E4000BDEC048B10BD0000000400409A99993F2E
:102E5000CDCCCC3D3333B33F0000A24290000020E4
:102E60000000A04200009E4200140040100000201C
:102E7000FEF796FAFFF714F8FDF7BCFFFEF7B8F877
:102E8000FEF73EF8FDF7ACFDFDF714FEFDF77AFE08
:102E9000FDF7F4FEFFF790F800F062F8FEF780FA15
:102EA000FEF7D6FAFEF72AFB00F046F84FF4FA7662
:102EB0003046FDF76AFDFFF76BFE1D4F1D4C80216C
:102EC0003846FDF785FF0128F9D120680028F6D1A2
:102ED00000F066F840F6B830FDF757FDFFF74AFFFF
:102EE00040F6D270FDF751FD00F05AF83046FDF77C
:102EF0004CFDFFF7C5FE41F2DA60FDF746FD00F03C
:102F00004FF83046FDF741FDFFF742FE01258021D5
:102F10003846FDF75DFF0128F9D160680028F6D139
:102F200000F03EF83046FDF730FD6560EFE7000049
:102F30000018024010000020084888210170662116
:102F4000417000218170C170017141718171C17145
:102F50000172752141727921817270472001002030
:102F600010B500210C48FEF7A9FD0C4C012060664D
:102F70000021E161A16E01B1A060FDF73BFC4FF4BF
:102F8000FA70FDF702FDFDF771FCFDF7ADFCFDF7F2
:102F9000E7FCE069A06610BD0014004010000020AE
:102FA00010B500210A48FEF789FD0A4C0120606631
:102FB0000021E161A16E01B1A060FDF71BFCFDF7EE
:102FC00055FCFDF791FCFDF7CBFCE069A06610BD58
:102FD0000014004010000020F82F0008000000201E
:102FE00090000000C02200088830000890000020F7
:102FF000B0040000D0220008000000000102030419
:103000000102030406070809000000000000000098
:1030100000000000000000000000000000000000B0
:1030200000000000000000000000000000000000A0
:103030000000000000000000000000000000000090
:103040000000000000000000000000000000000080
:103050000000000000000000000000000000000070
:103060000000000000000000000000000000000060
:103070000000000000000000000000000000000050
:08308000000000000000000048
:040000050800018965
:00000001FF
